{
  "_format": "hh-sol-artifact-1",
  "contractName": "IPDB",
  "sourceName": "contracts/IPDB.sol",
  "abi": [
    {
      "inputs": [],
      "stateMutability": "nonpayable",
      "type": "constructor"
    },
    {
      "inputs": [
        {
          "internalType": "address",
          "name": "owner",
          "type": "address"
        }
      ],
      "name": "OwnableInvalidOwner",
      "type": "error"
    },
    {
      "inputs": [
        {
          "internalType": "address",
          "name": "account",
          "type": "address"
        }
      ],
      "name": "OwnableUnauthorizedAccount",
      "type": "error"
    },
    {
      "anonymous": false,
      "inputs": [
        {
          "indexed": true,
          "internalType": "address",
          "name": "previousOwner",
          "type": "address"
        },
        {
          "indexed": true,
          "internalType": "address",
          "name": "newOwner",
          "type": "address"
        }
      ],
      "name": "OwnershipTransferred",
      "type": "event"
    },
    {
      "anonymous": false,
      "inputs": [
        {
          "indexed": false,
          "internalType": "string",
          "name": "newCid",
          "type": "string"
        }
      ],
      "name": "dbUpdated",
      "type": "event"
    },
    {
      "inputs": [],
      "name": "getState",
      "outputs": [
        {
          "internalType": "string",
          "name": "",
          "type": "string"
        }
      ],
      "stateMutability": "view",
      "type": "function"
    },
    {
      "inputs": [],
      "name": "owner",
      "outputs": [
        {
          "internalType": "address",
          "name": "",
          "type": "address"
        }
      ],
      "stateMutability": "view",
      "type": "function"
    },
    {
      "inputs": [],
      "name": "renounceOwnership",
      "outputs": [],
      "stateMutability": "nonpayable",
      "type": "function"
    },
    {
      "inputs": [
        {
          "internalType": "address",
          "name": "newOwner",
          "type": "address"
        }
      ],
      "name": "transferOwnership",
      "outputs": [],
      "stateMutability": "nonpayable",
      "type": "function"
    },
    {
      "inputs": [
        {
          "internalType": "string",
          "name": "cid",
          "type": "string"
        }
      ],
      "name": "update",
      "outputs": [],
      "stateMutability": "nonpayable",
      "type": "function"
    }
  ],
  "bytecode": "0x608060405234801561001057600080fd5b50338061003757604051631e4fbdf760e01b81526000600482015260240160405180910390fd5b61004081610046565b50610096565b600080546001600160a01b038381166001600160a01b0319831681178455604051919092169283917f8be0079c531659141344cd1fd0a4f28419497f9722a3daafe3b4186f6b6457e09190a35050565b61053d806100a56000396000f3fe608060405234801561001057600080fd5b50600436106100575760003560e01c80631865c57d1461005c5780633d7403a31461007a578063715018a61461008f5780638da5cb5b14610097578063f2fde38b146100b2575b600080fd5b6100646100c5565b6040516100719190610279565b60405180910390f35b61008d6100883660046102dd565b610157565b005b61008d6101a5565b6000546040516001600160a01b039091168152602001610071565b61008d6100c036600461038e565b6101b9565b6060600180546100d4906103be565b80601f0160208091040260200160405190810160405280929190818152602001828054610100906103be565b801561014d5780601f106101225761010080835404028352916020019161014d565b820191906000526020600020905b81548152906001019060200180831161013057829003601f168201915b5050505050905090565b61015f6101fc565b600161016b8282610447565b507e9ca43dc74ae48b80186e4968ffff198b114cf8300d701771e68d2a29f51cdf8160405161019a9190610279565b60405180910390a150565b6101ad6101fc565b6101b76000610229565b565b6101c16101fc565b6001600160a01b0381166101f057604051631e4fbdf760e01b8152600060048201526024015b60405180910390fd5b6101f981610229565b50565b6000546001600160a01b031633146101b75760405163118cdaa760e01b81523360048201526024016101e7565b600080546001600160a01b038381166001600160a01b0319831681178455604051919092169283917f8be0079c531659141344cd1fd0a4f28419497f9722a3daafe3b4186f6b6457e09190a35050565b600060208083528351808285015260005b818110156102a65785810183015185820160400152820161028a565b506000604082860101526040601f19601f8301168501019250505092915050565b634e487b7160e01b600052604160045260246000fd5b6000602082840312156102ef57600080fd5b813567ffffffffffffffff8082111561030757600080fd5b818401915084601f83011261031b57600080fd5b81358181111561032d5761032d6102c7565b604051601f8201601f19908116603f01168101908382118183101715610355576103556102c7565b8160405282815287602084870101111561036e57600080fd5b826020860160208301376000928101602001929092525095945050505050565b6000602082840312156103a057600080fd5b81356001600160a01b03811681146103b757600080fd5b9392505050565b600181811c908216806103d257607f821691505b6020821081036103f257634e487b7160e01b600052602260045260246000fd5b50919050565b601f82111561044257600081815260208120601f850160051c8101602086101561041f5750805b601f850160051c820191505b8181101561043e5782815560010161042b565b5050505b505050565b815167ffffffffffffffff811115610461576104616102c7565b6104758161046f84546103be565b846103f8565b602080601f8311600181146104aa57600084156104925750858301515b600019600386901b1c1916600185901b17855561043e565b600085815260208120601f198616915b828110156104d9578886015182559484019460019091019084016104ba565b50858210156104f75787850151600019600388901b60f8161c191681555b5050505050600190811b0190555056fea2646970667358221220c81cb301aa1d33ccee0c56b6577def9fc4b2855834196d8a3b8f0e32a4daf7d764736f6c63430008140033",
  "linkReferences": {},
  "deployedLinkReferences": {}
}