{
  "_format": "hh-sol-artifact-1",
  "contractName": "NFTMarketplace",
  "sourceName": "contracts/NFTMarketplace.sol",
  "abi": [
    {
      "inputs": [],
      "stateMutability": "nonpayable",
      "type": "constructor"
    },
    {
      "inputs": [
        {
          "internalType": "address",
          "name": "sender",
          "type": "address"
        },
        {
          "internalType": "uint256",
          "name": "tokenId",
          "type": "uint256"
        },
        {
          "internalType": "address",
          "name": "owner",
          "type": "address"
        }
      ],
      "name": "ERC721IncorrectOwner",
      "type": "error"
    },
    {
      "inputs": [
        {
          "internalType": "address",
          "name": "operator",
          "type": "address"
        },
        {
          "internalType": "uint256",
          "name": "tokenId",
          "type": "uint256"
        }
      ],
      "name": "ERC721InsufficientApproval",
      "type": "error"
    },
    {
      "inputs": [
        {
          "internalType": "address",
          "name": "approver",
          "type": "address"
        }
      ],
      "name": "ERC721InvalidApprover",
      "type": "error"
    },
    {
      "inputs": [
        {
          "internalType": "address",
          "name": "operator",
          "type": "address"
        }
      ],
      "name": "ERC721InvalidOperator",
      "type": "error"
    },
    {
      "inputs": [
        {
          "internalType": "address",
          "name": "owner",
          "type": "address"
        }
      ],
      "name": "ERC721InvalidOwner",
      "type": "error"
    },
    {
      "inputs": [
        {
          "internalType": "address",
          "name": "receiver",
          "type": "address"
        }
      ],
      "name": "ERC721InvalidReceiver",
      "type": "error"
    },
    {
      "inputs": [
        {
          "internalType": "address",
          "name": "sender",
          "type": "address"
        }
      ],
      "name": "ERC721InvalidSender",
      "type": "error"
    },
    {
      "inputs": [
        {
          "internalType": "uint256",
          "name": "tokenId",
          "type": "uint256"
        }
      ],
      "name": "ERC721NonexistentToken",
      "type": "error"
    },
    {
      "anonymous": false,
      "inputs": [
        {
          "indexed": true,
          "internalType": "address",
          "name": "owner",
          "type": "address"
        },
        {
          "indexed": true,
          "internalType": "address",
          "name": "approved",
          "type": "address"
        },
        {
          "indexed": true,
          "internalType": "uint256",
          "name": "tokenId",
          "type": "uint256"
        }
      ],
      "name": "Approval",
      "type": "event"
    },
    {
      "anonymous": false,
      "inputs": [
        {
          "indexed": true,
          "internalType": "address",
          "name": "owner",
          "type": "address"
        },
        {
          "indexed": true,
          "internalType": "address",
          "name": "operator",
          "type": "address"
        },
        {
          "indexed": false,
          "internalType": "bool",
          "name": "approved",
          "type": "bool"
        }
      ],
      "name": "ApprovalForAll",
      "type": "event"
    },
    {
      "anonymous": false,
      "inputs": [
        {
          "indexed": true,
          "internalType": "uint256",
          "name": "tokenId",
          "type": "uint256"
        },
        {
          "indexed": false,
          "internalType": "address",
          "name": "seller",
          "type": "address"
        },
        {
          "indexed": false,
          "internalType": "uint256",
          "name": "startingPrice",
          "type": "uint256"
        },
        {
          "indexed": false,
          "internalType": "uint256",
          "name": "endTime",
          "type": "uint256"
        }
      ],
      "name": "AuctionCreated",
      "type": "event"
    },
    {
      "anonymous": false,
      "inputs": [
        {
          "indexed": true,
          "internalType": "uint256",
          "name": "tokenId",
          "type": "uint256"
        },
        {
          "indexed": false,
          "internalType": "address",
          "name": "winner",
          "type": "address"
        },
        {
          "indexed": false,
          "internalType": "uint256",
          "name": "winningBid",
          "type": "uint256"
        }
      ],
      "name": "AuctionEnded",
      "type": "event"
    },
    {
      "anonymous": false,
      "inputs": [
        {
          "indexed": false,
          "internalType": "uint256",
          "name": "_fromTokenId",
          "type": "uint256"
        },
        {
          "indexed": false,
          "internalType": "uint256",
          "name": "_toTokenId",
          "type": "uint256"
        }
      ],
      "name": "BatchMetadataUpdate",
      "type": "event"
    },
    {
      "anonymous": false,
      "inputs": [
        {
          "indexed": true,
          "internalType": "uint256",
          "name": "tokenId",
          "type": "uint256"
        },
        {
          "indexed": false,
          "internalType": "address",
          "name": "bidder",
          "type": "address"
        },
        {
          "indexed": false,
          "internalType": "uint256",
          "name": "bidAmount",
          "type": "uint256"
        }
      ],
      "name": "BidPlaced",
      "type": "event"
    },
    {
      "anonymous": false,
      "inputs": [
        {
          "indexed": true,
          "internalType": "uint256",
          "name": "tokenId",
          "type": "uint256"
        },
        {
          "indexed": false,
          "internalType": "address",
          "name": "seller",
          "type": "address"
        },
        {
          "indexed": false,
          "internalType": "address",
          "name": "owner",
          "type": "address"
        },
        {
          "indexed": false,
          "internalType": "uint256",
          "name": "price",
          "type": "uint256"
        },
        {
          "indexed": false,
          "internalType": "bool",
          "name": "sold",
          "type": "bool"
        }
      ],
      "name": "MarketItemCreated",
      "type": "event"
    },
    {
      "anonymous": false,
      "inputs": [
        {
          "indexed": false,
          "internalType": "uint256",
          "name": "_tokenId",
          "type": "uint256"
        }
      ],
      "name": "MetadataUpdate",
      "type": "event"
    },
    {
      "anonymous": false,
      "inputs": [
        {
          "indexed": true,
          "internalType": "address",
          "name": "from",
          "type": "address"
        },
        {
          "indexed": true,
          "internalType": "address",
          "name": "to",
          "type": "address"
        },
        {
          "indexed": true,
          "internalType": "uint256",
          "name": "tokenId",
          "type": "uint256"
        }
      ],
      "name": "Transfer",
      "type": "event"
    },
    {
      "inputs": [
        {
          "internalType": "address",
          "name": "to",
          "type": "address"
        },
        {
          "internalType": "uint256",
          "name": "tokenId",
          "type": "uint256"
        }
      ],
      "name": "approve",
      "outputs": [],
      "stateMutability": "nonpayable",
      "type": "function"
    },
    {
      "inputs": [
        {
          "internalType": "address",
          "name": "owner",
          "type": "address"
        }
      ],
      "name": "balanceOf",
      "outputs": [
        {
          "internalType": "uint256",
          "name": "",
          "type": "uint256"
        }
      ],
      "stateMutability": "view",
      "type": "function"
    },
    {
      "inputs": [
        {
          "internalType": "uint256",
          "name": "tokenId",
          "type": "uint256"
        }
      ],
      "name": "createMarketSale",
      "outputs": [],
      "stateMutability": "payable",
      "type": "function"
    },
    {
      "inputs": [
        {
          "internalType": "string",
          "name": "tokenURI",
          "type": "string"
        },
        {
          "internalType": "uint256",
          "name": "price",
          "type": "uint256"
        }
      ],
      "name": "createToken",
      "outputs": [
        {
          "internalType": "uint256",
          "name": "",
          "type": "uint256"
        }
      ],
      "stateMutability": "payable",
      "type": "function"
    },
    {
      "inputs": [
        {
          "internalType": "uint256",
          "name": "tokenId",
          "type": "uint256"
        }
      ],
      "name": "endAuction",
      "outputs": [],
      "stateMutability": "nonpayable",
      "type": "function"
    },
    {
      "inputs": [],
      "name": "fetchActiveAuctions",
      "outputs": [
        {
          "components": [
            {
              "internalType": "uint256",
              "name": "tokenId",
              "type": "uint256"
            },
            {
              "internalType": "address payable",
              "name": "seller",
              "type": "address"
            },
            {
              "internalType": "uint256",
              "name": "startingPrice",
              "type": "uint256"
            },
            {
              "internalType": "uint256",
              "name": "highestBid",
              "type": "uint256"
            },
            {
              "internalType": "address payable",
              "name": "highestBidder",
              "type": "address"
            },
            {
              "internalType": "uint256",
              "name": "endTime",
              "type": "uint256"
            },
            {
              "internalType": "bool",
              "name": "active",
              "type": "bool"
            }
          ],
          "internalType": "struct NFTMarketplace.Auction[]",
          "name": "",
          "type": "tuple[]"
        }
      ],
      "stateMutability": "view",
      "type": "function"
    },
    {
      "inputs": [
        {
          "internalType": "uint256",
          "name": "tokenId",
          "type": "uint256"
        }
      ],
      "name": "fetchAuction",
      "outputs": [
        {
          "components": [
            {
              "internalType": "uint256",
              "name": "tokenId",
              "type": "uint256"
            },
            {
              "internalType": "address payable",
              "name": "seller",
              "type": "address"
            },
            {
              "internalType": "uint256",
              "name": "startingPrice",
              "type": "uint256"
            },
            {
              "internalType": "uint256",
              "name": "highestBid",
              "type": "uint256"
            },
            {
              "internalType": "address payable",
              "name": "highestBidder",
              "type": "address"
            },
            {
              "internalType": "uint256",
              "name": "endTime",
              "type": "uint256"
            },
            {
              "internalType": "bool",
              "name": "active",
              "type": "bool"
            }
          ],
          "internalType": "struct NFTMarketplace.Auction",
          "name": "",
          "type": "tuple"
        }
      ],
      "stateMutability": "view",
      "type": "function"
    },
    {
      "inputs": [],
      "name": "fetchItemsListed",
      "outputs": [
        {
          "components": [
            {
              "internalType": "uint256",
              "name": "tokenId",
              "type": "uint256"
            },
            {
              "internalType": "address payable",
              "name": "seller",
              "type": "address"
            },
            {
              "internalType": "address payable",
              "name": "owner",
              "type": "address"
            },
            {
              "internalType": "uint256",
              "name": "price",
              "type": "uint256"
            },
            {
              "internalType": "bool",
              "name": "sold",
              "type": "bool"
            }
          ],
          "internalType": "struct NFTMarketplace.MarketItem[]",
          "name": "",
          "type": "tuple[]"
        }
      ],
      "stateMutability": "view",
      "type": "function"
    },
    {
      "inputs": [
        {
          "internalType": "uint256",
          "name": "tokenId",
          "type": "uint256"
        }
      ],
      "name": "fetchMarketItemById",
      "outputs": [
        {
          "components": [
            {
              "internalType": "uint256",
              "name": "tokenId",
              "type": "uint256"
            },
            {
              "internalType": "address payable",
              "name": "seller",
              "type": "address"
            },
            {
              "internalType": "address payable",
              "name": "owner",
              "type": "address"
            },
            {
              "internalType": "uint256",
              "name": "price",
              "type": "uint256"
            },
            {
              "internalType": "bool",
              "name": "sold",
              "type": "bool"
            }
          ],
          "internalType": "struct NFTMarketplace.MarketItem",
          "name": "",
          "type": "tuple"
        }
      ],
      "stateMutability": "view",
      "type": "function"
    },
    {
      "inputs": [],
      "name": "fetchMarketItems",
      "outputs": [
        {
          "components": [
            {
              "internalType": "uint256",
              "name": "tokenId",
              "type": "uint256"
            },
            {
              "internalType": "address payable",
              "name": "seller",
              "type": "address"
            },
            {
              "internalType": "address payable",
              "name": "owner",
              "type": "address"
            },
            {
              "internalType": "uint256",
              "name": "price",
              "type": "uint256"
            },
            {
              "internalType": "bool",
              "name": "sold",
              "type": "bool"
            }
          ],
          "internalType": "struct NFTMarketplace.MarketItem[]",
          "name": "",
          "type": "tuple[]"
        }
      ],
      "stateMutability": "view",
      "type": "function"
    },
    {
      "inputs": [
        {
          "internalType": "uint256[]",
          "name": "tokenIds",
          "type": "uint256[]"
        }
      ],
      "name": "fetchMarketItemsByIds",
      "outputs": [
        {
          "components": [
            {
              "internalType": "uint256",
              "name": "tokenId",
              "type": "uint256"
            },
            {
              "internalType": "address payable",
              "name": "seller",
              "type": "address"
            },
            {
              "internalType": "address payable",
              "name": "owner",
              "type": "address"
            },
            {
              "internalType": "uint256",
              "name": "price",
              "type": "uint256"
            },
            {
              "internalType": "bool",
              "name": "sold",
              "type": "bool"
            }
          ],
          "internalType": "struct NFTMarketplace.MarketItem[]",
          "name": "",
          "type": "tuple[]"
        }
      ],
      "stateMutability": "view",
      "type": "function"
    },
    {
      "inputs": [],
      "name": "fetchMyNFTs",
      "outputs": [
        {
          "components": [
            {
              "internalType": "uint256",
              "name": "tokenId",
              "type": "uint256"
            },
            {
              "internalType": "address payable",
              "name": "seller",
              "type": "address"
            },
            {
              "internalType": "address payable",
              "name": "owner",
              "type": "address"
            },
            {
              "internalType": "uint256",
              "name": "price",
              "type": "uint256"
            },
            {
              "internalType": "bool",
              "name": "sold",
              "type": "bool"
            }
          ],
          "internalType": "struct NFTMarketplace.MarketItem[]",
          "name": "",
          "type": "tuple[]"
        }
      ],
      "stateMutability": "view",
      "type": "function"
    },
    {
      "inputs": [
        {
          "internalType": "address",
          "name": "ownerAddress",
          "type": "address"
        }
      ],
      "name": "fetchNFTsByOwner",
      "outputs": [
        {
          "components": [
            {
              "internalType": "uint256",
              "name": "tokenId",
              "type": "uint256"
            },
            {
              "internalType": "address payable",
              "name": "seller",
              "type": "address"
            },
            {
              "internalType": "address payable",
              "name": "owner",
              "type": "address"
            },
            {
              "internalType": "uint256",
              "name": "price",
              "type": "uint256"
            },
            {
              "internalType": "bool",
              "name": "sold",
              "type": "bool"
            }
          ],
          "internalType": "struct NFTMarketplace.MarketItem[]",
          "name": "",
          "type": "tuple[]"
        }
      ],
      "stateMutability": "view",
      "type": "function"
    },
    {
      "inputs": [
        {
          "internalType": "address",
          "name": "sellerAddress",
          "type": "address"
        }
      ],
      "name": "fetchNFTsListedBySeller",
      "outputs": [
        {
          "components": [
            {
              "internalType": "uint256",
              "name": "tokenId",
              "type": "uint256"
            },
            {
              "internalType": "address payable",
              "name": "seller",
              "type": "address"
            },
            {
              "internalType": "address payable",
              "name": "owner",
              "type": "address"
            },
            {
              "internalType": "uint256",
              "name": "price",
              "type": "uint256"
            },
            {
              "internalType": "bool",
              "name": "sold",
              "type": "bool"
            }
          ],
          "internalType": "struct NFTMarketplace.MarketItem[]",
          "name": "",
          "type": "tuple[]"
        }
      ],
      "stateMutability": "view",
      "type": "function"
    },
    {
      "inputs": [
        {
          "internalType": "uint256",
          "name": "tokenId",
          "type": "uint256"
        }
      ],
      "name": "getApproved",
      "outputs": [
        {
          "internalType": "address",
          "name": "",
          "type": "address"
        }
      ],
      "stateMutability": "view",
      "type": "function"
    },
    {
      "inputs": [],
      "name": "getListingPrice",
      "outputs": [
        {
          "internalType": "uint256",
          "name": "",
          "type": "uint256"
        }
      ],
      "stateMutability": "view",
      "type": "function"
    },
    {
      "inputs": [
        {
          "internalType": "address",
          "name": "owner",
          "type": "address"
        },
        {
          "internalType": "address",
          "name": "operator",
          "type": "address"
        }
      ],
      "name": "isApprovedForAll",
      "outputs": [
        {
          "internalType": "bool",
          "name": "",
          "type": "bool"
        }
      ],
      "stateMutability": "view",
      "type": "function"
    },
    {
      "inputs": [],
      "name": "name",
      "outputs": [
        {
          "internalType": "string",
          "name": "",
          "type": "string"
        }
      ],
      "stateMutability": "view",
      "type": "function"
    },
    {
      "inputs": [
        {
          "internalType": "uint256",
          "name": "tokenId",
          "type": "uint256"
        }
      ],
      "name": "ownerOf",
      "outputs": [
        {
          "internalType": "address",
          "name": "",
          "type": "address"
        }
      ],
      "stateMutability": "view",
      "type": "function"
    },
    {
      "inputs": [
        {
          "internalType": "uint256",
          "name": "tokenId",
          "type": "uint256"
        }
      ],
      "name": "placeBid",
      "outputs": [],
      "stateMutability": "payable",
      "type": "function"
    },
    {
      "inputs": [
        {
          "internalType": "uint256",
          "name": "tokenId",
          "type": "uint256"
        },
        {
          "internalType": "uint256",
          "name": "price",
          "type": "uint256"
        }
      ],
      "name": "resellToken",
      "outputs": [],
      "stateMutability": "payable",
      "type": "function"
    },
    {
      "inputs": [
        {
          "internalType": "address",
          "name": "from",
          "type": "address"
        },
        {
          "internalType": "address",
          "name": "to",
          "type": "address"
        },
        {
          "internalType": "uint256",
          "name": "tokenId",
          "type": "uint256"
        }
      ],
      "name": "safeTransferFrom",
      "outputs": [],
      "stateMutability": "nonpayable",
      "type": "function"
    },
    {
      "inputs": [
        {
          "internalType": "address",
          "name": "from",
          "type": "address"
        },
        {
          "internalType": "address",
          "name": "to",
          "type": "address"
        },
        {
          "internalType": "uint256",
          "name": "tokenId",
          "type": "uint256"
        },
        {
          "internalType": "bytes",
          "name": "data",
          "type": "bytes"
        }
      ],
      "name": "safeTransferFrom",
      "outputs": [],
      "stateMutability": "nonpayable",
      "type": "function"
    },
    {
      "inputs": [
        {
          "internalType": "address",
          "name": "operator",
          "type": "address"
        },
        {
          "internalType": "bool",
          "name": "approved",
          "type": "bool"
        }
      ],
      "name": "setApprovalForAll",
      "outputs": [],
      "stateMutability": "nonpayable",
      "type": "function"
    },
    {
      "inputs": [
        {
          "internalType": "uint256",
          "name": "tokenId",
          "type": "uint256"
        },
        {
          "internalType": "uint256",
          "name": "startingPrice",
          "type": "uint256"
        },
        {
          "internalType": "uint256",
          "name": "duration",
          "type": "uint256"
        }
      ],
      "name": "startAuction",
      "outputs": [],
      "stateMutability": "nonpayable",
      "type": "function"
    },
    {
      "inputs": [
        {
          "internalType": "bytes4",
          "name": "interfaceId",
          "type": "bytes4"
        }
      ],
      "name": "supportsInterface",
      "outputs": [
        {
          "internalType": "bool",
          "name": "",
          "type": "bool"
        }
      ],
      "stateMutability": "view",
      "type": "function"
    },
    {
      "inputs": [],
      "name": "symbol",
      "outputs": [
        {
          "internalType": "string",
          "name": "",
          "type": "string"
        }
      ],
      "stateMutability": "view",
      "type": "function"
    },
    {
      "inputs": [
        {
          "internalType": "uint256",
          "name": "tokenId",
          "type": "uint256"
        }
      ],
      "name": "tokenURI",
      "outputs": [
        {
          "internalType": "string",
          "name": "",
          "type": "string"
        }
      ],
      "stateMutability": "view",
      "type": "function"
    },
    {
      "inputs": [
        {
          "internalType": "address",
          "name": "from",
          "type": "address"
        },
        {
          "internalType": "address",
          "name": "to",
          "type": "address"
        },
        {
          "internalType": "uint256",
          "name": "tokenId",
          "type": "uint256"
        }
      ],
      "name": "transferFrom",
      "outputs": [],
      "stateMutability": "nonpayable",
      "type": "function"
    },
    {
      "inputs": [
        {
          "internalType": "uint256",
          "name": "_listingPrice",
          "type": "uint256"
        }
      ],
      "name": "updateListingPrice",
      "outputs": [],
      "stateMutability": "payable",
      "type": "function"
    }
  ],
  "bytecode": "0x60806040526608e1bc9bf040006009553480156200001c57600080fd5b506040518060400160405280601081526020016f4d657461766572736520546f6b656e7360801b8152506040518060400160405280600881526020016726a2aa2a27a5a2a760c11b815250816000908162000078919062000147565b50600162000087828262000147565b5050600a80546001600160a01b031916331790555062000213565b634e487b7160e01b600052604160045260246000fd5b600181811c90821680620000cd57607f821691505b602082108103620000ee57634e487b7160e01b600052602260045260246000fd5b50919050565b601f8211156200014257600081815260208120601f850160051c810160208610156200011d5750805b601f850160051c820191505b818110156200013e5782815560010162000129565b5050505b505050565b81516001600160401b03811115620001635762000163620000a2565b6200017b81620001748454620000b8565b84620000f4565b602080601f831160018114620001b357600084156200019a5750858301515b600019600386901b1c1916600185901b1785556200013e565b600085815260208120601f198616915b82811015620001e457888601518255948401946001909101908401620001c3565b5085821015620002035787850151600019600388901b60f8161c191681555b5050505050600190811b01905550565b61310f80620002236000396000f3fe6080604052600436106101cd5760003560e01c80637be43d1e116100f7578063b88d4fde11610095578063c87b56dd11610064578063c87b56dd14610509578063e219fc7514610529578063e985e9c51461053c578063f1d9e5451461055c57600080fd5b8063b88d4fde14610496578063b9a2de3a146104b6578063be9af536146104d6578063c5e71777146104e957600080fd5b80639979ef45116100d15780639979ef4514610423578063a22cb46514610436578063ad1477a914610456578063ae677aa31461048357600080fd5b80637be43d1e146103ce57806391e078bb146103ee57806395d89b411461040e57600080fd5b806323b872dd1161016f5780636352211e1161013e5780636352211e1461034e57806370a082311461036e5780637195e1241461038e57806372b3b620146103bb57600080fd5b806323b872dd146102d957806341c5f499146102f957806342842e0e1461031957806345f8fa801461033957600080fd5b8063095ea7b3116101ab578063095ea7b3146102615780630f08efe01461028357806312e85585146102a5578063202e3740146102c457600080fd5b806301ffc9a7146101d257806306fdde0314610207578063081812fc14610229575b600080fd5b3480156101de57600080fd5b506101f26101ed36600461290e565b61057e565b60405190151581526020015b60405180910390f35b34801561021357600080fd5b5061021c6105a9565b6040516101fe919061297b565b34801561023557600080fd5b5061024961024436600461298e565b61063b565b6040516001600160a01b0390911681526020016101fe565b34801561026d57600080fd5b5061028161027c3660046129c3565b610664565b005b34801561028f57600080fd5b50610298610673565b6040516101fe9190612a2d565b3480156102b157600080fd5b506009545b6040519081526020016101fe565b3480156102d057600080fd5b5061029861082e565b3480156102e557600080fd5b506102816102f4366004612a7b565b6109a6565b34801561030557600080fd5b50610298610314366004612ab7565b610a36565b34801561032557600080fd5b50610281610334366004612a7b565b610bfb565b34801561034557600080fd5b50610298610c1b565b34801561035a57600080fd5b5061024961036936600461298e565b610dcd565b34801561037a57600080fd5b506102b6610389366004612ab7565b610dd8565b34801561039a57600080fd5b506103ae6103a936600461298e565b610e20565b6040516101fe9190612b26565b6102b66103c9366004612bd1565b610ee6565b3480156103da57600080fd5b506102986103e9366004612ab7565b610f24565b3480156103fa57600080fd5b50610281610409366004612c29565b61113f565b34801561041a57600080fd5b5061021c611377565b61028161043136600461298e565b611386565b34801561044257600080fd5b50610281610451366004612c55565b61151a565b34801561046257600080fd5b5061047661047136600461298e565b611525565b6040516101fe9190612c91565b61028161049136600461298e565b61158f565b3480156104a257600080fd5b506102816104b1366004612c9f565b611680565b3480156104c257600080fd5b506102816104d136600461298e565b611697565b6102816104e436600461298e565b61187d565b3480156104f557600080fd5b50610298610504366004612d1a565b6119e7565b34801561051557600080fd5b5061021c61052436600461298e565b611b04565b610281610537366004612dbf565b611c15565b34801561054857600080fd5b506101f2610557366004612de1565b611d16565b34801561056857600080fd5b50610571611d44565b6040516101fe9190612e14565b60006001600160e01b03198216632483248360e11b14806105a357506105a382611ec0565b92915050565b6060600080546105b890612e56565b80601f01602080910402602001604051908101604052809291908181526020018280546105e490612e56565b80156106315780601f1061060657610100808354040283529160200191610631565b820191906000526020600020905b81548152906001019060200180831161061457829003601f168201915b5050505050905090565b600061064682611f10565b506000828152600460205260409020546001600160a01b03166105a3565b61066f828233611f49565b5050565b60075460609060008060015b8381116106e6576000818152600b60205260409020600201546001600160a01b0316301480156106c157506000818152600b602052604090206004015460ff16155b156106d457826106d081612ea6565b9350505b806106de81612ea6565b91505061067f565b506000826001600160401b0381111561070157610701612b34565b60405190808252806020026020018201604052801561073a57816020015b610727612876565b81526020019060019003908161071f5790505b50905060015b848111610825576000818152600b60205260409020600201546001600160a01b03163014801561078257506000818152600b602052604090206004015460ff16155b15610813576000818152600b6020908152604091829020825160a0810184528154815260018201546001600160a01b03908116938201939093526002820154909216928201929092526003820154606082015260049091015460ff161515608082015282518390859081106107f9576107f9612ebf565b6020026020010181905250828061080f90612ea6565b9350505b8061081d81612ea6565b915050610740565b50949350505050565b60075460609060008060015b838111610884576000818152600b6020526040902060020154336001600160a01b0390911603610872578261086e81612ea6565b9350505b8061087c81612ea6565b91505061083a565b506000826001600160401b0381111561089f5761089f612b34565b6040519080825280602002602001820160405280156108d857816020015b6108c5612876565b8152602001906001900390816108bd5790505b50905060015b848111610825576000818152600b6020526040902060020154336001600160a01b0390911603610994576000818152600b6020908152604091829020825160a0810184528154815260018201546001600160a01b03908116938201939093526002820154909216928201929092526003820154606082015260049091015460ff1615156080820152825183908590811061097a5761097a612ebf565b6020026020010181905250828061099090612ea6565b9350505b8061099e81612ea6565b9150506108de565b6001600160a01b0382166109d557604051633250574960e11b8152600060048201526024015b60405180910390fd5b60006109e2838333611f56565b9050836001600160a01b0316816001600160a01b031614610a30576040516364283d7b60e01b81526001600160a01b03808616600483015260248201849052821660448201526064016109cc565b50505050565b600754606090600080805b83811015610aa4576001600160a01b038616600b6000610a62846001612ed5565b81526020810191909152604001600020600201546001600160a01b031603610a9257610a8f600184612ed5565b92505b80610a9c81612ea6565b915050610a41565b506000826001600160401b03811115610abf57610abf612b34565b604051908082528060200260200182016040528015610af857816020015b610ae5612876565b815260200190600190039081610add5790505b50905060005b84811015610bf1576001600160a01b038716600b6000610b1f846001612ed5565b81526020810191909152604001600020600201546001600160a01b031603610bdf576000610b4e826001612ed5565b6000818152600b6020908152604091829020825160a0810184528154815260018201546001600160a01b039081169382019390935260028201549092169282019290925260038201546060820152600482015460ff161515608082015285519293509091859087908110610bc457610bc4612ebf565b6020908102919091010152610bda600186612ed5565b945050505b80610be981612ea6565b915050610afe565b5095945050505050565b610c1683838360405180602001604052806000815250611680565b505050565b60075460609060008060015b838111610c8e576000818152600b60205260409020600101546001600160a01b031633148015610c6957506000818152600b602052604090206004015460ff16155b15610c7c5782610c7881612ea6565b9350505b80610c8681612ea6565b915050610c27565b506000826001600160401b03811115610ca957610ca9612b34565b604051908082528060200260200182016040528015610ce257816020015b610ccf612876565b815260200190600190039081610cc75790505b50905060015b848111610825576000818152600b60205260409020600101546001600160a01b031633148015610d2a57506000818152600b602052604090206004015460ff16155b15610dbb576000818152600b6020908152604091829020825160a0810184528154815260018201546001600160a01b03908116938201939093526002820154909216928201929092526003820154606082015260049091015460ff16151560808201528251839085908110610da157610da1612ebf565b60200260200101819052508280610db790612ea6565b9350505b80610dc581612ea6565b915050610ce8565b60006105a382611f10565b60006001600160a01b038216610e04576040516322718ad960e21b8152600060048201526024016109cc565b506001600160a01b031660009081526003602052604090205490565b610e286128a4565b6000828152600c6020908152604091829020825160e0810184528154815260018201546001600160a01b03908116938201939093526002820154938101939093526003810154606084015260048101549091166080830152600581015460a08301526006015460ff16151560c082018190526105a35760405162461bcd60e51b815260206004820152601a60248201527f41756374696f6e20656e646564206f72206e6f7420657869737400000000000060448201526064016109cc565b6007805460009182610ef783612ea6565b9091555050600754610f09338261204f565b610f1381856120b4565b610f1d8184612104565b9392505050565b600754606090600080805b83811015610fc2576001600160a01b038616600b6000610f50846001612ed5565b81526020810191909152604001600020600101546001600160a01b0316148015610f9d5750600b6000610f84836001612ed5565b815260208101919091526040016000206004015460ff16155b15610fb057610fad600184612ed5565b92505b80610fba81612ea6565b915050610f2f565b506000826001600160401b03811115610fdd57610fdd612b34565b60405190808252806020026020018201604052801561101657816020015b611003612876565b815260200190600190039081610ffb5790505b50905060005b84811015610bf1576001600160a01b038716600b600061103d846001612ed5565b81526020810191909152604001600020600101546001600160a01b031614801561108a5750600b6000611071836001612ed5565b815260208101919091526040016000206004015460ff16155b1561112d57600061109c826001612ed5565b6000818152600b6020908152604091829020825160a0810184528154815260018201546001600160a01b039081169382019390935260028201549092169282019290925260038201546060820152600482015460ff16151560808201528551929350909185908790811061111257611112612ebf565b6020908102919091010152611128600186612ed5565b945050505b8061113781612ea6565b91505061101c565b6000838152600b60205260409020600201546001600160a01b031633146111a85760405162461bcd60e51b815260206004820152601c60248201527f4f6e6c79206f776e65722063616e2073746172742061756374696f6e0000000060448201526064016109cc565b6000838152600c602052604090206006015460ff1615806111da57506000838152600c60205260409020600501544210155b61124c5760405162461bcd60e51b815260206004820152603f60248201527f416e206163746976652061756374696f6e20616c72656164792065786973747360448201527f206f7220686173206e6f7420656e64656420666f722074686973206974656d0060648201526084016109cc565b6040805160e081018252848152336020820152908101839052600060608201819052608082015260a081016112818342612ed5565b8152600160209182018190526000868152600c8352604090819020845181559284015191830180546001600160a01b039384166001600160a01b03199182161790915590840151600284015560608401516003840155608084015160048401805491909316911617905560a0820151600582015560c0909101516006909101805491151560ff1990921691909117905561131c333085612253565b827fc9050d42180a61cb0d9ebb8ad118b62fe6eab12cf12ff752c4a0cc7da9ddf627338461134a8542612ed5565b604080516001600160a01b03909416845260208401929092529082015260600160405180910390a2505050565b6060600180546105b890612e56565b6000818152600c60205260409020600681015460ff166113d85760405162461bcd60e51b815260206004820152600d60248201526c105d58dd1a5bdb88195b991959609a1b60448201526064016109cc565b8060050154421061141d5760405162461bcd60e51b815260206004820152600f60248201526e105d58dd1a5bdb88195e1c1a5c9959608a1b60448201526064016109cc565b806003015434116114655760405162461bcd60e51b815260206004820152601260248201527142696420616d6f756e7420746f6f206c6f7760701b60448201526064016109cc565b60048101546001600160a01b0316156114ba57600481015460038201546040516001600160a01b039092169181156108fc0291906000818181858888f193505050501580156114b8573d6000803e3d6000fd5b505b34600382018190556004820180546001600160a01b0319163390811790915560408051918252602082019290925283917f0e54eff26401bf69b81b26f60bd85ef47f5d85275c1d268d84f68d6897431c4791015b60405180910390a25050565b61066f338383612303565b61152d612876565b506000908152600b6020908152604091829020825160a0810184528154815260018201546001600160a01b03908116938201939093526002820154909216928201929092526003820154606082015260049091015460ff161515608082015290565b600a546001600160a01b031633146116085760405162461bcd60e51b815260206004820152603660248201527f6f6e6c79206f776e6572206f6620746865206d61726b6574706c6163652063616044820152756e206368616e6765206c697374696e6720707269636560501b60648201526084016109cc565b600a546001600160a01b0316331461167b5760405162461bcd60e51b815260206004820152603060248201527f4f6e6c79206d61726b6574706c616365206f776e65722063616e20757064617460448201526f32903634b9ba34b73390383934b1b29760811b60648201526084016109cc565b600955565b61168b8484846109a6565b610a30848484846123a2565b6000818152600c60205260409020600681015460ff166116f95760405162461bcd60e51b815260206004820152601a60248201527f41756374696f6e20656e646564206f72206e6f7420657869737400000000000060448201526064016109cc565b80600501544210156117465760405162461bcd60e51b8152602060048201526016602482015275105d5d18dd1a5bdb881b9bdd081e595d08195b99195960521b60448201526064016109cc565b60068101805460ff1916905560048101546001600160a01b031615611863576004808201546000848152600b602052604081206002810180546001600160a01b0319166001600160a01b03909416939093179092559101805460ff1916600117905560088054916117b683612ea6565b909155505060048101546117d59030906001600160a01b031684612253565b600181015460038201546040516001600160a01b039092169181156108fc0291906000818181858888f19350505050158015611815573d6000803e3d6000fd5b5060048101546003820154604080516001600160a01b039093168352602083019190915283917fd2aa34a4fdbbc6dff6a3e56f46e0f3ae2a31d7785ff3487aa5c95c642acea501910161150e565b600181015461066f9030906001600160a01b031684612253565b6000818152600b6020526040902060038101546001909101546001600160a01b0316348214611916576040805162461bcd60e51b81526020600482015260248101919091527f506c65617365207375626d6974207468652061736b696e67207072696365206960448201527f6e206f7264657220746f20636f6d706c6574652074686520707572636861736560648201526084016109cc565b6000838152600b602052604081206002810180546001600160a01b0319908116331790915560048201805460ff1916600190811790915590910180549091169055600880549161196583612ea6565b9190505550611975303385612253565b600a546009546040516001600160a01b039092169181156108fc0291906000818181858888f193505050501580156119b1573d6000803e3d6000fd5b506040516001600160a01b038216903480156108fc02916000818181858888f19350505050158015610a30573d6000803e3d6000fd5b80516060906000816001600160401b03811115611a0657611a06612b34565b604051908082528060200260200182016040528015611a3f57816020015b611a2c612876565b815260200190600190039081611a245790505b50905060005b82811015611afc576000858281518110611a6157611a61612ebf565b6020908102919091018101516000818152600b8352604090819020815160a0810183528154815260018201546001600160a01b0390811695820195909552600282015490941691840191909152600381015460608401526004015460ff16151560808301528451909250849084908110611add57611add612ebf565b6020026020010181905250508080611af490612ea6565b915050611a45565b509392505050565b6060611b0f82611f10565b5060008281526006602052604081208054611b2990612e56565b80601f0160208091040260200160405190810160405280929190818152602001828054611b5590612e56565b8015611ba25780601f10611b7757610100808354040283529160200191611ba2565b820191906000526020600020905b815481529060010190602001808311611b8557829003601f168201915b505050505090506000611bc060408051602081019091526000815290565b90508051600003611bd2575092915050565b815115611c04578082604051602001611bec929190612ee8565b60405160208183030381529060405292505050919050565b611c0d846124cb565b949350505050565b6000828152600b60205260409020600201546001600160a01b03163314611c915760405162461bcd60e51b815260206004820152602a60248201527f4f6e6c79206974656d206f776e65722063616e20706572666f726d20746869736044820152691037b832b930ba34b7b760b11b60648201526084016109cc565b6009543414611cb25760405162461bcd60e51b81526004016109cc90612f17565b6000828152600b6020526040812060048101805460ff19169055600381018390556001810180546001600160a01b0319908116331790915560029091018054909116301790556008805491611d0683612f5b565b919050555061066f333084612253565b6001600160a01b03918216600090815260056020908152604080832093909416825291909152205460ff1690565b60075460609060008060015b838111611d91576000818152600c602052604090206006015460ff1615611d7f57611d7c600184612ed5565b92505b80611d8981612ea6565b915050611d50565b506000826001600160401b03811115611dac57611dac612b34565b604051908082528060200260200182016040528015611de557816020015b611dd26128a4565b815260200190600190039081611dca5790505b50905060015b848111610825576000818152600c602052604090206006015460ff1615611eae576000818152600c6020908152604091829020825160e0810184528154815260018201546001600160a01b03908116938201939093526002820154938101939093526003810154606084015260048101549091166080830152600581015460a0830152600681015460ff16151560c08301528351909190849086908110611e9457611e94612ebf565b6020908102919091010152611eaa600185612ed5565b9350505b80611eb881612ea6565b915050611deb565b60006001600160e01b031982166380ac58cd60e01b1480611ef157506001600160e01b03198216635b5e139f60e01b145b806105a357506301ffc9a760e01b6001600160e01b03198316146105a3565b6000818152600260205260408120546001600160a01b0316806105a357604051637e27328960e01b8152600481018490526024016109cc565b610c16838383600161253f565b6000828152600260205260408120546001600160a01b0390811690831615611f8357611f83818486612645565b6001600160a01b03811615611fc157611fa060008560008061253f565b6001600160a01b038116600090815260036020526040902080546000190190555b6001600160a01b03851615611ff0576001600160a01b0385166000908152600360205260409020805460010190555b60008481526002602052604080822080546001600160a01b0319166001600160a01b0389811691821790925591518793918516917fddf252ad1be2c89b69c2b068fc378daa952ba7f163c4a11628f55a4df523b3ef91a4949350505050565b6001600160a01b03821661207957604051633250574960e11b8152600060048201526024016109cc565b600061208783836000611f56565b90506001600160a01b03811615610c16576040516339e3563760e11b8152600060048201526024016109cc565b60008281526006602052604090206120cc8282612fc0565b506040518281527ff8e1a15aba9398e019f0b49df1a4fde98ee17ae345cb5f6b5e2c27f5033e8ce79060200160405180910390a15050565b600081116121545760405162461bcd60e51b815260206004820152601c60248201527f5072696365206d757374206265206174206c656173742031207765690000000060448201526064016109cc565b60095434146121755760405162461bcd60e51b81526004016109cc90612f17565b6040805160a08101825283815233602080830182815230848601818152606086018881526000608088018181528b8252600b909652979097209551865591516001860180546001600160a01b03199081166001600160a01b0393841617909155925160028701805490941691161790915593516003840155516004909201805460ff19169215159290921790915561220d9184612253565b604080513381523060208201529081018290526000606082015282907fb640004f1d14576d0c209e240cad0410e0d8c0c33a09375861fbadae2588a98d9060800161150e565b6001600160a01b03821661227d57604051633250574960e11b8152600060048201526024016109cc565b600061228b83836000611f56565b90506001600160a01b0381166122b757604051637e27328960e01b8152600481018390526024016109cc565b836001600160a01b0316816001600160a01b031614610a30576040516364283d7b60e01b81526001600160a01b03808616600483015260248201849052821660448201526064016109cc565b6001600160a01b03821661233557604051630b61174360e31b81526001600160a01b03831660048201526024016109cc565b6001600160a01b03838116600081815260056020908152604080832094871680845294825291829020805460ff191686151590811790915591519182527f17307eab39ab6107e8899845ad3d59bd9653f200f220920489ca2b5937696c31910160405180910390a3505050565b6001600160a01b0383163b15610a3057604051630a85bd0160e11b81526001600160a01b0384169063150b7a02906123e490339088908790879060040161307f565b6020604051808303816000875af192505050801561241f575060408051601f3d908101601f1916820190925261241c918101906130bc565b60015b612488573d80801561244d576040519150601f19603f3d011682016040523d82523d6000602084013e612452565b606091505b50805160000361248057604051633250574960e11b81526001600160a01b03851660048201526024016109cc565b805181602001fd5b6001600160e01b03198116630a85bd0160e11b146124c457604051633250574960e11b81526001600160a01b03851660048201526024016109cc565b5050505050565b60606124d682611f10565b5060006124ee60408051602081019091526000815290565b9050600081511161250e5760405180602001604052806000815250610f1d565b80612518846126a9565b604051602001612529929190612ee8565b6040516020818303038152906040529392505050565b808061255357506001600160a01b03821615155b1561261557600061256384611f10565b90506001600160a01b0383161580159061258f5750826001600160a01b0316816001600160a01b031614155b80156125a257506125a08184611d16565b155b156125cb5760405163a9fbf51f60e01b81526001600160a01b03841660048201526024016109cc565b81156126135783856001600160a01b0316826001600160a01b03167f8c5be1e5ebec7d5bd14f71427d1e84f3dd0314c0f7b2291e5b200ac8c7c3b92560405160405180910390a45b505b5050600090815260046020526040902080546001600160a01b0319166001600160a01b0392909216919091179055565b61265083838361273b565b610c16576001600160a01b03831661267e57604051637e27328960e01b8152600481018290526024016109cc565b60405163177e802f60e01b81526001600160a01b0383166004820152602481018290526044016109cc565b606060006126b68361279e565b60010190506000816001600160401b038111156126d5576126d5612b34565b6040519080825280601f01601f1916602001820160405280156126ff576020820181803683370190505b5090508181016020015b600019016f181899199a1a9b1b9c1cb0b131b232b360811b600a86061a8153600a850494508461270957509392505050565b60006001600160a01b03831615801590611c0d5750826001600160a01b0316846001600160a01b0316148061277557506127758484611d16565b80611c0d5750506000908152600460205260409020546001600160a01b03908116911614919050565b60008072184f03e93ff9f4daa797ed6e38ed64bf6a1f0160401b83106127dd5772184f03e93ff9f4daa797ed6e38ed64bf6a1f0160401b830492506040015b6d04ee2d6d415b85acef81000000008310612809576d04ee2d6d415b85acef8100000000830492506020015b662386f26fc10000831061282757662386f26fc10000830492506010015b6305f5e100831061283f576305f5e100830492506008015b612710831061285357612710830492506004015b60648310612865576064830492506002015b600a83106105a35760010192915050565b6040805160a08101825260008082526020820181905291810182905260608101829052608081019190915290565b6040518060e001604052806000815260200160006001600160a01b03168152602001600081526020016000815260200160006001600160a01b03168152602001600081526020016000151581525090565b6001600160e01b03198116811461290b57600080fd5b50565b60006020828403121561292057600080fd5b8135610f1d816128f5565b60005b8381101561294657818101518382015260200161292e565b50506000910152565b6000815180845261296781602086016020860161292b565b601f01601f19169290920160200192915050565b602081526000610f1d602083018461294f565b6000602082840312156129a057600080fd5b5035919050565b80356001600160a01b03811681146129be57600080fd5b919050565b600080604083850312156129d657600080fd5b6129df836129a7565b946020939093013593505050565b805182526020808201516001600160a01b039081169184019190915260408083015190911690830152606080820151908301526080908101511515910152565b6020808252825182820181905260009190848201906040850190845b81811015612a6f57612a5c8385516129ed565b9284019260a09290920191600101612a49565b50909695505050505050565b600080600060608486031215612a9057600080fd5b612a99846129a7565b9250612aa7602085016129a7565b9150604084013590509250925092565b600060208284031215612ac957600080fd5b610f1d826129a7565b80518252602081015160018060a01b0380821660208501526040830151604085015260608301516060850152806080840151166080850152505060a081015160a083015260c0810151151560c08301525050565b60e081016105a38284612ad2565b634e487b7160e01b600052604160045260246000fd5b604051601f8201601f191681016001600160401b0381118282101715612b7257612b72612b34565b604052919050565b60006001600160401b03831115612b9357612b93612b34565b612ba6601f8401601f1916602001612b4a565b9050828152838383011115612bba57600080fd5b828260208301376000602084830101529392505050565b60008060408385031215612be457600080fd5b82356001600160401b03811115612bfa57600080fd5b8301601f81018513612c0b57600080fd5b612c1a85823560208401612b7a565b95602094909401359450505050565b600080600060608486031215612c3e57600080fd5b505081359360208301359350604090920135919050565b60008060408385031215612c6857600080fd5b612c71836129a7565b915060208301358015158114612c8657600080fd5b809150509250929050565b60a081016105a382846129ed565b60008060008060808587031215612cb557600080fd5b612cbe856129a7565b9350612ccc602086016129a7565b92506040850135915060608501356001600160401b03811115612cee57600080fd5b8501601f81018713612cff57600080fd5b612d0e87823560208401612b7a565b91505092959194509250565b60006020808385031215612d2d57600080fd5b82356001600160401b0380821115612d4457600080fd5b818501915085601f830112612d5857600080fd5b813581811115612d6a57612d6a612b34565b8060051b9150612d7b848301612b4a565b8181529183018401918481019088841115612d9557600080fd5b938501935b83851015612db357843582529385019390850190612d9a565b98975050505050505050565b60008060408385031215612dd257600080fd5b50508035926020909101359150565b60008060408385031215612df457600080fd5b612dfd836129a7565b9150612e0b602084016129a7565b90509250929050565b6020808252825182820181905260009190848201906040850190845b81811015612a6f57612e43838551612ad2565b9284019260e09290920191600101612e30565b600181811c90821680612e6a57607f821691505b602082108103612e8a57634e487b7160e01b600052602260045260246000fd5b50919050565b634e487b7160e01b600052601160045260246000fd5b600060018201612eb857612eb8612e90565b5060010190565b634e487b7160e01b600052603260045260246000fd5b808201808211156105a3576105a3612e90565b60008351612efa81846020880161292b565b835190830190612f0e81836020880161292b565b01949350505050565b60208082526024908201527f5072696365206d75737420626520657175616c20746f206c697374696e6720706040820152637269636560e01b606082015260800190565b600081612f6a57612f6a612e90565b506000190190565b601f821115610c1657600081815260208120601f850160051c81016020861015612f995750805b601f850160051c820191505b81811015612fb857828155600101612fa5565b505050505050565b81516001600160401b03811115612fd957612fd9612b34565b612fed81612fe78454612e56565b84612f72565b602080601f831160018114613022576000841561300a5750858301515b600019600386901b1c1916600185901b178555612fb8565b600085815260208120601f198616915b8281101561305157888601518255948401946001909101908401613032565b508582101561306f5787850151600019600388901b60f8161c191681555b5050505050600190811b01905550565b6001600160a01b03858116825284166020820152604081018390526080606082018190526000906130b29083018461294f565b9695505050505050565b6000602082840312156130ce57600080fd5b8151610f1d816128f556fea2646970667358221220ae8ee3b7e47456a3fc9cafdd6b659678115d785bf18020413ce4c2f9b931a6b564736f6c63430008140033",
  "linkReferences": {},
  "deployedLinkReferences": {}
}