{
  "_format": "hh-sol-artifact-1",
  "contractName": "NFTMarketplace",
  "sourceName": "contracts/NFTMarketplace.sol",
  "abi": [
    {
      "inputs": [],
      "stateMutability": "nonpayable",
      "type": "constructor"
    },
    {
      "inputs": [
        {
          "internalType": "address",
          "name": "sender",
          "type": "address"
        },
        {
          "internalType": "uint256",
          "name": "tokenId",
          "type": "uint256"
        },
        {
          "internalType": "address",
          "name": "owner",
          "type": "address"
        }
      ],
      "name": "ERC721IncorrectOwner",
      "type": "error"
    },
    {
      "inputs": [
        {
          "internalType": "address",
          "name": "operator",
          "type": "address"
        },
        {
          "internalType": "uint256",
          "name": "tokenId",
          "type": "uint256"
        }
      ],
      "name": "ERC721InsufficientApproval",
      "type": "error"
    },
    {
      "inputs": [
        {
          "internalType": "address",
          "name": "approver",
          "type": "address"
        }
      ],
      "name": "ERC721InvalidApprover",
      "type": "error"
    },
    {
      "inputs": [
        {
          "internalType": "address",
          "name": "operator",
          "type": "address"
        }
      ],
      "name": "ERC721InvalidOperator",
      "type": "error"
    },
    {
      "inputs": [
        {
          "internalType": "address",
          "name": "owner",
          "type": "address"
        }
      ],
      "name": "ERC721InvalidOwner",
      "type": "error"
    },
    {
      "inputs": [
        {
          "internalType": "address",
          "name": "receiver",
          "type": "address"
        }
      ],
      "name": "ERC721InvalidReceiver",
      "type": "error"
    },
    {
      "inputs": [
        {
          "internalType": "address",
          "name": "sender",
          "type": "address"
        }
      ],
      "name": "ERC721InvalidSender",
      "type": "error"
    },
    {
      "inputs": [
        {
          "internalType": "uint256",
          "name": "tokenId",
          "type": "uint256"
        }
      ],
      "name": "ERC721NonexistentToken",
      "type": "error"
    },
    {
      "anonymous": false,
      "inputs": [
        {
          "indexed": true,
          "internalType": "address",
          "name": "owner",
          "type": "address"
        },
        {
          "indexed": true,
          "internalType": "address",
          "name": "approved",
          "type": "address"
        },
        {
          "indexed": true,
          "internalType": "uint256",
          "name": "tokenId",
          "type": "uint256"
        }
      ],
      "name": "Approval",
      "type": "event"
    },
    {
      "anonymous": false,
      "inputs": [
        {
          "indexed": true,
          "internalType": "address",
          "name": "owner",
          "type": "address"
        },
        {
          "indexed": true,
          "internalType": "address",
          "name": "operator",
          "type": "address"
        },
        {
          "indexed": false,
          "internalType": "bool",
          "name": "approved",
          "type": "bool"
        }
      ],
      "name": "ApprovalForAll",
      "type": "event"
    },
    {
      "anonymous": false,
      "inputs": [
        {
          "indexed": true,
          "internalType": "uint256",
          "name": "tokenId",
          "type": "uint256"
        },
        {
          "indexed": false,
          "internalType": "address",
          "name": "seller",
          "type": "address"
        },
        {
          "indexed": false,
          "internalType": "uint256",
          "name": "startingPrice",
          "type": "uint256"
        },
        {
          "indexed": false,
          "internalType": "uint256",
          "name": "endTime",
          "type": "uint256"
        }
      ],
      "name": "AuctionCreated",
      "type": "event"
    },
    {
      "anonymous": false,
      "inputs": [
        {
          "indexed": true,
          "internalType": "uint256",
          "name": "tokenId",
          "type": "uint256"
        },
        {
          "indexed": false,
          "internalType": "address",
          "name": "winner",
          "type": "address"
        },
        {
          "indexed": false,
          "internalType": "uint256",
          "name": "winningBid",
          "type": "uint256"
        }
      ],
      "name": "AuctionEnded",
      "type": "event"
    },
    {
      "anonymous": false,
      "inputs": [
        {
          "indexed": false,
          "internalType": "uint256",
          "name": "_fromTokenId",
          "type": "uint256"
        },
        {
          "indexed": false,
          "internalType": "uint256",
          "name": "_toTokenId",
          "type": "uint256"
        }
      ],
      "name": "BatchMetadataUpdate",
      "type": "event"
    },
    {
      "anonymous": false,
      "inputs": [
        {
          "indexed": true,
          "internalType": "uint256",
          "name": "tokenId",
          "type": "uint256"
        },
        {
          "indexed": false,
          "internalType": "address",
          "name": "bidder",
          "type": "address"
        },
        {
          "indexed": false,
          "internalType": "uint256",
          "name": "bidAmount",
          "type": "uint256"
        }
      ],
      "name": "BidPlaced",
      "type": "event"
    },
    {
      "anonymous": false,
      "inputs": [
        {
          "indexed": true,
          "internalType": "uint256",
          "name": "tokenId",
          "type": "uint256"
        },
        {
          "indexed": false,
          "internalType": "address",
          "name": "seller",
          "type": "address"
        },
        {
          "indexed": false,
          "internalType": "address",
          "name": "owner",
          "type": "address"
        },
        {
          "indexed": false,
          "internalType": "uint256",
          "name": "price",
          "type": "uint256"
        },
        {
          "indexed": false,
          "internalType": "bool",
          "name": "sold",
          "type": "bool"
        }
      ],
      "name": "MarketItemCreated",
      "type": "event"
    },
    {
      "anonymous": false,
      "inputs": [
        {
          "indexed": false,
          "internalType": "uint256",
          "name": "_tokenId",
          "type": "uint256"
        }
      ],
      "name": "MetadataUpdate",
      "type": "event"
    },
    {
      "anonymous": false,
      "inputs": [
        {
          "indexed": true,
          "internalType": "uint256",
          "name": "tokenId",
          "type": "uint256"
        },
        {
          "indexed": true,
          "internalType": "address",
          "name": "from",
          "type": "address"
        },
        {
          "indexed": true,
          "internalType": "address",
          "name": "to",
          "type": "address"
        },
        {
          "indexed": false,
          "internalType": "uint256",
          "name": "price",
          "type": "uint256"
        },
        {
          "indexed": false,
          "internalType": "string",
          "name": "action",
          "type": "string"
        },
        {
          "indexed": false,
          "internalType": "uint256",
          "name": "timestamp",
          "type": "uint256"
        }
      ],
      "name": "Provenance",
      "type": "event"
    },
    {
      "anonymous": false,
      "inputs": [
        {
          "indexed": true,
          "internalType": "address",
          "name": "from",
          "type": "address"
        },
        {
          "indexed": true,
          "internalType": "address",
          "name": "to",
          "type": "address"
        },
        {
          "indexed": true,
          "internalType": "uint256",
          "name": "tokenId",
          "type": "uint256"
        }
      ],
      "name": "Transfer",
      "type": "event"
    },
    {
      "inputs": [
        {
          "internalType": "address",
          "name": "to",
          "type": "address"
        },
        {
          "internalType": "uint256",
          "name": "tokenId",
          "type": "uint256"
        }
      ],
      "name": "approve",
      "outputs": [],
      "stateMutability": "nonpayable",
      "type": "function"
    },
    {
      "inputs": [
        {
          "internalType": "address",
          "name": "owner",
          "type": "address"
        }
      ],
      "name": "balanceOf",
      "outputs": [
        {
          "internalType": "uint256",
          "name": "",
          "type": "uint256"
        }
      ],
      "stateMutability": "view",
      "type": "function"
    },
    {
      "inputs": [
        {
          "internalType": "uint256",
          "name": "tokenId",
          "type": "uint256"
        }
      ],
      "name": "createMarketSale",
      "outputs": [],
      "stateMutability": "payable",
      "type": "function"
    },
    {
      "inputs": [
        {
          "internalType": "string",
          "name": "tokenURI",
          "type": "string"
        },
        {
          "internalType": "uint256",
          "name": "price",
          "type": "uint256"
        }
      ],
      "name": "createToken",
      "outputs": [
        {
          "internalType": "uint256",
          "name": "",
          "type": "uint256"
        }
      ],
      "stateMutability": "payable",
      "type": "function"
    },
    {
      "inputs": [
        {
          "internalType": "uint256",
          "name": "tokenId",
          "type": "uint256"
        }
      ],
      "name": "endAuction",
      "outputs": [],
      "stateMutability": "nonpayable",
      "type": "function"
    },
    {
      "inputs": [],
      "name": "fetchActiveAuctions",
      "outputs": [
        {
          "components": [
            {
              "internalType": "uint256",
              "name": "tokenId",
              "type": "uint256"
            },
            {
              "internalType": "address payable",
              "name": "seller",
              "type": "address"
            },
            {
              "internalType": "uint256",
              "name": "startingPrice",
              "type": "uint256"
            },
            {
              "internalType": "uint256",
              "name": "highestBid",
              "type": "uint256"
            },
            {
              "internalType": "address payable",
              "name": "highestBidder",
              "type": "address"
            },
            {
              "internalType": "uint256",
              "name": "endTime",
              "type": "uint256"
            },
            {
              "internalType": "bool",
              "name": "active",
              "type": "bool"
            }
          ],
          "internalType": "struct NFTMarketplace.Auction[]",
          "name": "",
          "type": "tuple[]"
        }
      ],
      "stateMutability": "view",
      "type": "function"
    },
    {
      "inputs": [
        {
          "internalType": "uint256",
          "name": "tokenId",
          "type": "uint256"
        }
      ],
      "name": "fetchAuction",
      "outputs": [
        {
          "components": [
            {
              "internalType": "uint256",
              "name": "tokenId",
              "type": "uint256"
            },
            {
              "internalType": "address payable",
              "name": "seller",
              "type": "address"
            },
            {
              "internalType": "uint256",
              "name": "startingPrice",
              "type": "uint256"
            },
            {
              "internalType": "uint256",
              "name": "highestBid",
              "type": "uint256"
            },
            {
              "internalType": "address payable",
              "name": "highestBidder",
              "type": "address"
            },
            {
              "internalType": "uint256",
              "name": "endTime",
              "type": "uint256"
            },
            {
              "internalType": "bool",
              "name": "active",
              "type": "bool"
            }
          ],
          "internalType": "struct NFTMarketplace.Auction",
          "name": "",
          "type": "tuple"
        }
      ],
      "stateMutability": "view",
      "type": "function"
    },
    {
      "inputs": [],
      "name": "fetchItemsListed",
      "outputs": [
        {
          "components": [
            {
              "internalType": "uint256",
              "name": "tokenId",
              "type": "uint256"
            },
            {
              "internalType": "address payable",
              "name": "seller",
              "type": "address"
            },
            {
              "internalType": "address payable",
              "name": "owner",
              "type": "address"
            },
            {
              "internalType": "uint256",
              "name": "price",
              "type": "uint256"
            },
            {
              "internalType": "bool",
              "name": "sold",
              "type": "bool"
            }
          ],
          "internalType": "struct NFTMarketplace.MarketItem[]",
          "name": "",
          "type": "tuple[]"
        }
      ],
      "stateMutability": "view",
      "type": "function"
    },
    {
      "inputs": [
        {
          "internalType": "uint256",
          "name": "tokenId",
          "type": "uint256"
        }
      ],
      "name": "fetchMarketItemById",
      "outputs": [
        {
          "components": [
            {
              "internalType": "uint256",
              "name": "tokenId",
              "type": "uint256"
            },
            {
              "internalType": "address payable",
              "name": "seller",
              "type": "address"
            },
            {
              "internalType": "address payable",
              "name": "owner",
              "type": "address"
            },
            {
              "internalType": "uint256",
              "name": "price",
              "type": "uint256"
            },
            {
              "internalType": "bool",
              "name": "sold",
              "type": "bool"
            }
          ],
          "internalType": "struct NFTMarketplace.MarketItem",
          "name": "",
          "type": "tuple"
        }
      ],
      "stateMutability": "view",
      "type": "function"
    },
    {
      "inputs": [],
      "name": "fetchMarketItems",
      "outputs": [
        {
          "components": [
            {
              "internalType": "uint256",
              "name": "tokenId",
              "type": "uint256"
            },
            {
              "internalType": "address payable",
              "name": "seller",
              "type": "address"
            },
            {
              "internalType": "address payable",
              "name": "owner",
              "type": "address"
            },
            {
              "internalType": "uint256",
              "name": "price",
              "type": "uint256"
            },
            {
              "internalType": "bool",
              "name": "sold",
              "type": "bool"
            }
          ],
          "internalType": "struct NFTMarketplace.MarketItem[]",
          "name": "",
          "type": "tuple[]"
        }
      ],
      "stateMutability": "view",
      "type": "function"
    },
    {
      "inputs": [
        {
          "internalType": "uint256[]",
          "name": "tokenIds",
          "type": "uint256[]"
        }
      ],
      "name": "fetchMarketItemsByIds",
      "outputs": [
        {
          "components": [
            {
              "internalType": "uint256",
              "name": "tokenId",
              "type": "uint256"
            },
            {
              "internalType": "address payable",
              "name": "seller",
              "type": "address"
            },
            {
              "internalType": "address payable",
              "name": "owner",
              "type": "address"
            },
            {
              "internalType": "uint256",
              "name": "price",
              "type": "uint256"
            },
            {
              "internalType": "bool",
              "name": "sold",
              "type": "bool"
            }
          ],
          "internalType": "struct NFTMarketplace.MarketItem[]",
          "name": "",
          "type": "tuple[]"
        }
      ],
      "stateMutability": "view",
      "type": "function"
    },
    {
      "inputs": [],
      "name": "fetchMyNFTs",
      "outputs": [
        {
          "components": [
            {
              "internalType": "uint256",
              "name": "tokenId",
              "type": "uint256"
            },
            {
              "internalType": "address payable",
              "name": "seller",
              "type": "address"
            },
            {
              "internalType": "address payable",
              "name": "owner",
              "type": "address"
            },
            {
              "internalType": "uint256",
              "name": "price",
              "type": "uint256"
            },
            {
              "internalType": "bool",
              "name": "sold",
              "type": "bool"
            }
          ],
          "internalType": "struct NFTMarketplace.MarketItem[]",
          "name": "",
          "type": "tuple[]"
        }
      ],
      "stateMutability": "view",
      "type": "function"
    },
    {
      "inputs": [
        {
          "internalType": "address",
          "name": "ownerAddress",
          "type": "address"
        }
      ],
      "name": "fetchNFTsByOwner",
      "outputs": [
        {
          "components": [
            {
              "internalType": "uint256",
              "name": "tokenId",
              "type": "uint256"
            },
            {
              "internalType": "address payable",
              "name": "seller",
              "type": "address"
            },
            {
              "internalType": "address payable",
              "name": "owner",
              "type": "address"
            },
            {
              "internalType": "uint256",
              "name": "price",
              "type": "uint256"
            },
            {
              "internalType": "bool",
              "name": "sold",
              "type": "bool"
            }
          ],
          "internalType": "struct NFTMarketplace.MarketItem[]",
          "name": "",
          "type": "tuple[]"
        }
      ],
      "stateMutability": "view",
      "type": "function"
    },
    {
      "inputs": [
        {
          "internalType": "uint256",
          "name": "tokenId",
          "type": "uint256"
        }
      ],
      "name": "getApproved",
      "outputs": [
        {
          "internalType": "address",
          "name": "",
          "type": "address"
        }
      ],
      "stateMutability": "view",
      "type": "function"
    },
    {
      "inputs": [],
      "name": "getListingPrice",
      "outputs": [
        {
          "internalType": "uint256",
          "name": "",
          "type": "uint256"
        }
      ],
      "stateMutability": "view",
      "type": "function"
    },
    {
      "inputs": [
        {
          "internalType": "address",
          "name": "userAddress",
          "type": "address"
        }
      ],
      "name": "getUserIPFSHash",
      "outputs": [
        {
          "internalType": "string",
          "name": "",
          "type": "string"
        }
      ],
      "stateMutability": "view",
      "type": "function"
    },
    {
      "inputs": [
        {
          "internalType": "address",
          "name": "owner",
          "type": "address"
        },
        {
          "internalType": "address",
          "name": "operator",
          "type": "address"
        }
      ],
      "name": "isApprovedForAll",
      "outputs": [
        {
          "internalType": "bool",
          "name": "",
          "type": "bool"
        }
      ],
      "stateMutability": "view",
      "type": "function"
    },
    {
      "inputs": [],
      "name": "name",
      "outputs": [
        {
          "internalType": "string",
          "name": "",
          "type": "string"
        }
      ],
      "stateMutability": "view",
      "type": "function"
    },
    {
      "inputs": [
        {
          "internalType": "uint256",
          "name": "tokenId",
          "type": "uint256"
        }
      ],
      "name": "ownerOf",
      "outputs": [
        {
          "internalType": "address",
          "name": "",
          "type": "address"
        }
      ],
      "stateMutability": "view",
      "type": "function"
    },
    {
      "inputs": [
        {
          "internalType": "uint256",
          "name": "tokenId",
          "type": "uint256"
        }
      ],
      "name": "placeBid",
      "outputs": [],
      "stateMutability": "payable",
      "type": "function"
    },
    {
      "inputs": [
        {
          "internalType": "uint256",
          "name": "tokenId",
          "type": "uint256"
        },
        {
          "internalType": "uint256",
          "name": "price",
          "type": "uint256"
        }
      ],
      "name": "resellToken",
      "outputs": [],
      "stateMutability": "payable",
      "type": "function"
    },
    {
      "inputs": [
        {
          "internalType": "address",
          "name": "from",
          "type": "address"
        },
        {
          "internalType": "address",
          "name": "to",
          "type": "address"
        },
        {
          "internalType": "uint256",
          "name": "tokenId",
          "type": "uint256"
        }
      ],
      "name": "safeTransferFrom",
      "outputs": [],
      "stateMutability": "nonpayable",
      "type": "function"
    },
    {
      "inputs": [
        {
          "internalType": "address",
          "name": "from",
          "type": "address"
        },
        {
          "internalType": "address",
          "name": "to",
          "type": "address"
        },
        {
          "internalType": "uint256",
          "name": "tokenId",
          "type": "uint256"
        },
        {
          "internalType": "bytes",
          "name": "data",
          "type": "bytes"
        }
      ],
      "name": "safeTransferFrom",
      "outputs": [],
      "stateMutability": "nonpayable",
      "type": "function"
    },
    {
      "inputs": [
        {
          "internalType": "address",
          "name": "operator",
          "type": "address"
        },
        {
          "internalType": "bool",
          "name": "approved",
          "type": "bool"
        }
      ],
      "name": "setApprovalForAll",
      "outputs": [],
      "stateMutability": "nonpayable",
      "type": "function"
    },
    {
      "inputs": [
        {
          "internalType": "string",
          "name": "ipfsHash",
          "type": "string"
        }
      ],
      "name": "setUserIPFSHash",
      "outputs": [],
      "stateMutability": "nonpayable",
      "type": "function"
    },
    {
      "inputs": [
        {
          "internalType": "uint256",
          "name": "tokenId",
          "type": "uint256"
        },
        {
          "internalType": "uint256",
          "name": "startingPrice",
          "type": "uint256"
        },
        {
          "internalType": "uint256",
          "name": "duration",
          "type": "uint256"
        }
      ],
      "name": "startAuction",
      "outputs": [],
      "stateMutability": "nonpayable",
      "type": "function"
    },
    {
      "inputs": [
        {
          "internalType": "bytes4",
          "name": "interfaceId",
          "type": "bytes4"
        }
      ],
      "name": "supportsInterface",
      "outputs": [
        {
          "internalType": "bool",
          "name": "",
          "type": "bool"
        }
      ],
      "stateMutability": "view",
      "type": "function"
    },
    {
      "inputs": [],
      "name": "symbol",
      "outputs": [
        {
          "internalType": "string",
          "name": "",
          "type": "string"
        }
      ],
      "stateMutability": "view",
      "type": "function"
    },
    {
      "inputs": [
        {
          "internalType": "uint256",
          "name": "tokenId",
          "type": "uint256"
        }
      ],
      "name": "tokenURI",
      "outputs": [
        {
          "internalType": "string",
          "name": "",
          "type": "string"
        }
      ],
      "stateMutability": "view",
      "type": "function"
    },
    {
      "inputs": [
        {
          "internalType": "address",
          "name": "from",
          "type": "address"
        },
        {
          "internalType": "address",
          "name": "to",
          "type": "address"
        },
        {
          "internalType": "uint256",
          "name": "tokenId",
          "type": "uint256"
        }
      ],
      "name": "transferFrom",
      "outputs": [],
      "stateMutability": "nonpayable",
      "type": "function"
    },
    {
      "inputs": [
        {
          "internalType": "uint256",
          "name": "_listingPrice",
          "type": "uint256"
        }
      ],
      "name": "updateListingPrice",
      "outputs": [],
      "stateMutability": "payable",
      "type": "function"
    }
  ],
  "bytecode": "0x60806040526608e1bc9bf040006009553480156200001c57600080fd5b506040518060400160405280601081526020016f4d657461766572736520546f6b656e7360801b8152506040518060400160405280600881526020016726a2aa2a27a5a2a760c11b815250816000908162000078919062000147565b50600162000087828262000147565b5050600a80546001600160a01b031916331790555062000213565b634e487b7160e01b600052604160045260246000fd5b600181811c90821680620000cd57607f821691505b602082108103620000ee57634e487b7160e01b600052602260045260246000fd5b50919050565b601f8211156200014257600081815260208120601f850160051c810160208610156200011d5750805b601f850160051c820191505b818110156200013e5782815560010162000129565b5050505b505050565b81516001600160401b03811115620001635762000163620000a2565b6200017b81620001748454620000b8565b84620000f4565b602080601f831160018114620001b357600084156200019a5750858301515b600019600386901b1c1916600185901b1785556200013e565b600085815260208120601f198616915b82811015620001e457888601518255948401946001909101908401620001c3565b5085821015620002035787850151600019600388901b60f8161c191681555b5050505050600190811b01905550565b61323c80620002236000396000f3fe6080604052600436106101d85760003560e01c806391e078bb11610102578063b9a2de3a11610095578063e219fc7511610064578063e219fc7514610534578063e985e9c514610547578063f1d9e54514610567578063f70622c81461058957600080fd5b8063b9a2de3a146104c1578063be9af536146104e1578063c5e71777146104f4578063c87b56dd1461051457600080fd5b8063a22cb465116100d1578063a22cb46514610441578063ad1477a914610461578063ae677aa31461048e578063b88d4fde146104a157600080fd5b806391e078bb146103d957806395d89b41146103f95780639979ef451461040e5780639ec2523b1461042157600080fd5b806323b872dd1161017a5780636352211e116101495780636352211e1461035957806370a08231146103795780637195e1241461039957806372b3b620146103c657600080fd5b806323b872dd146102e457806341c5f4991461030457806342842e0e1461032457806345f8fa801461034457600080fd5b8063095ea7b3116101b6578063095ea7b31461026c5780630f08efe01461028e57806312e85585146102b0578063202e3740146102cf57600080fd5b806301ffc9a7146101dd57806306fdde0314610212578063081812fc14610234575b600080fd5b3480156101e957600080fd5b506101fd6101f83660046129db565b6105a9565b60405190151581526020015b60405180910390f35b34801561021e57600080fd5b506102276105d4565b6040516102099190612a48565b34801561024057600080fd5b5061025461024f366004612a5b565b610666565b6040516001600160a01b039091168152602001610209565b34801561027857600080fd5b5061028c610287366004612a90565b61068f565b005b34801561029a57600080fd5b506102a361069e565b6040516102099190612afa565b3480156102bc57600080fd5b506009545b604051908152602001610209565b3480156102db57600080fd5b506102a3610859565b3480156102f057600080fd5b5061028c6102ff366004612b48565b6109d1565b34801561031057600080fd5b506102a361031f366004612b84565b610a61565b34801561033057600080fd5b5061028c61033f366004612b48565b610c26565b34801561035057600080fd5b506102a3610c46565b34801561036557600080fd5b50610254610374366004612a5b565b610df8565b34801561038557600080fd5b506102c1610394366004612b84565b610e03565b3480156103a557600080fd5b506103b96103b4366004612a5b565b610e4b565b6040516102099190612bf3565b6102c16103d4366004612cbe565b610f11565b3480156103e557600080fd5b5061028c6103f4366004612d02565b610f9a565b34801561040557600080fd5b5061022761122e565b61028c61041c366004612a5b565b61123d565b34801561042d57600080fd5b5061028c61043c366004612d2e565b6113d1565b34801561044d57600080fd5b5061028c61045c366004612d62565b6113ea565b34801561046d57600080fd5b5061048161047c366004612a5b565b6113f5565b6040516102099190612d9e565b61028c61049c366004612a5b565b61145f565b3480156104ad57600080fd5b5061028c6104bc366004612dac565b611550565b3480156104cd57600080fd5b5061028c6104dc366004612a5b565b611567565b61028c6104ef366004612a5b565b6117b7565b34801561050057600080fd5b506102a361050f366004612e27565b611970565b34801561052057600080fd5b5061022761052f366004612a5b565b611a8d565b61028c610542366004612ecc565b611b9e565b34801561055357600080fd5b506101fd610562366004612eee565b611cec565b34801561057357600080fd5b5061057c611d1a565b6040516102099190612f21565b34801561059557600080fd5b506102276105a4366004612b84565b611e96565b60006001600160e01b03198216632483248360e11b14806105ce57506105ce82611f42565b92915050565b6060600080546105e390612f63565b80601f016020809104026020016040519081016040528092919081815260200182805461060f90612f63565b801561065c5780601f106106315761010080835404028352916020019161065c565b820191906000526020600020905b81548152906001019060200180831161063f57829003601f168201915b5050505050905090565b600061067182611f92565b506000828152600460205260409020546001600160a01b03166105ce565b61069a828233611fcb565b5050565b60075460609060008060015b838111610711576000818152600b60205260409020600201546001600160a01b0316301480156106ec57506000818152600b602052604090206004015460ff16155b156106ff57826106fb81612fb3565b9350505b8061070981612fb3565b9150506106aa565b506000826001600160401b0381111561072c5761072c612c01565b60405190808252806020026020018201604052801561076557816020015b610752612943565b81526020019060019003908161074a5790505b50905060015b848111610850576000818152600b60205260409020600201546001600160a01b0316301480156107ad57506000818152600b602052604090206004015460ff16155b1561083e576000818152600b6020908152604091829020825160a0810184528154815260018201546001600160a01b03908116938201939093526002820154909216928201929092526003820154606082015260049091015460ff1615156080820152825183908590811061082457610824612fcc565b6020026020010181905250828061083a90612fb3565b9350505b8061084881612fb3565b91505061076b565b50949350505050565b60075460609060008060015b8381116108af576000818152600b6020526040902060020154336001600160a01b039091160361089d578261089981612fb3565b9350505b806108a781612fb3565b915050610865565b506000826001600160401b038111156108ca576108ca612c01565b60405190808252806020026020018201604052801561090357816020015b6108f0612943565b8152602001906001900390816108e85790505b50905060015b848111610850576000818152600b6020526040902060020154336001600160a01b03909116036109bf576000818152600b6020908152604091829020825160a0810184528154815260018201546001600160a01b03908116938201939093526002820154909216928201929092526003820154606082015260049091015460ff161515608082015282518390859081106109a5576109a5612fcc565b602002602001018190525082806109bb90612fb3565b9350505b806109c981612fb3565b915050610909565b6001600160a01b038216610a0057604051633250574960e11b8152600060048201526024015b60405180910390fd5b6000610a0d838333611fd8565b9050836001600160a01b0316816001600160a01b031614610a5b576040516364283d7b60e01b81526001600160a01b03808616600483015260248201849052821660448201526064016109f7565b50505050565b600754606090600080805b83811015610acf576001600160a01b038616600b6000610a8d846001612fe2565b81526020810191909152604001600020600201546001600160a01b031603610abd57610aba600184612fe2565b92505b80610ac781612fb3565b915050610a6c565b506000826001600160401b03811115610aea57610aea612c01565b604051908082528060200260200182016040528015610b2357816020015b610b10612943565b815260200190600190039081610b085790505b50905060005b84811015610c1c576001600160a01b038716600b6000610b4a846001612fe2565b81526020810191909152604001600020600201546001600160a01b031603610c0a576000610b79826001612fe2565b6000818152600b6020908152604091829020825160a0810184528154815260018201546001600160a01b039081169382019390935260028201549092169282019290925260038201546060820152600482015460ff161515608082015285519293509091859087908110610bef57610bef612fcc565b6020908102919091010152610c05600186612fe2565b945050505b80610c1481612fb3565b915050610b29565b5095945050505050565b610c4183838360405180602001604052806000815250611550565b505050565b60075460609060008060015b838111610cb9576000818152600b60205260409020600101546001600160a01b031633148015610c9457506000818152600b602052604090206004015460ff16155b15610ca75782610ca381612fb3565b9350505b80610cb181612fb3565b915050610c52565b506000826001600160401b03811115610cd457610cd4612c01565b604051908082528060200260200182016040528015610d0d57816020015b610cfa612943565b815260200190600190039081610cf25790505b50905060015b848111610850576000818152600b60205260409020600101546001600160a01b031633148015610d5557506000818152600b602052604090206004015460ff16155b15610de6576000818152600b6020908152604091829020825160a0810184528154815260018201546001600160a01b03908116938201939093526002820154909216928201929092526003820154606082015260049091015460ff16151560808201528251839085908110610dcc57610dcc612fcc565b60200260200101819052508280610de290612fb3565b9350505b80610df081612fb3565b915050610d13565b60006105ce82611f92565b60006001600160a01b038216610e2f576040516322718ad960e21b8152600060048201526024016109f7565b506001600160a01b031660009081526003602052604090205490565b610e53612971565b6000828152600c6020908152604091829020825160e0810184528154815260018201546001600160a01b03908116938201939093526002820154938101939093526003810154606084015260048101549091166080830152600581015460a08301526006015460ff16151560c082018190526105ce5760405162461bcd60e51b815260206004820152601a60248201527f41756374696f6e20656e646564206f72206e6f7420657869737400000000000060448201526064016109f7565b6007805460009182610f2283612fb3565b9091555050600754610f3433826120d1565b610f3e8185612136565b610f488184612186565b60408051600080825260606020830181905260069083015265135a5b9d195960d21b60808301524282840152915133929184916000805160206131e78339815191529181900360a00190a49392505050565b6000838152600b60205260409020600201546001600160a01b031633146110035760405162461bcd60e51b815260206004820152601c60248201527f4f6e6c79206f776e65722063616e2073746172742061756374696f6e0000000060448201526064016109f7565b6000838152600c602052604090206006015460ff16158061103557506000838152600c60205260409020600501544210155b6110a75760405162461bcd60e51b815260206004820152603f60248201527f416e206163746976652061756374696f6e20616c72656164792065786973747360448201527f206f7220686173206e6f7420656e64656420666f722074686973206974656d0060648201526084016109f7565b6040805160e081018252848152336020820152908101839052600060608201819052608082015260a081016110dc8342612fe2565b8152600160209182018190526000868152600c8352604090819020845181559284015191830180546001600160a01b039384166001600160a01b0319918216179091558482015160028501556060850151600385015560808501516004850180549190941691161790915560a0830151600583015560c0909201516006909101805491151560ff19909216919091179055513090339085906000805160206131e7833981519152906111c09087904290918252606060208301819052600e908301526d105d58dd1a5bdb94dd185c9d195960921b6080830152604082015260a00190565b60405180910390a46111d333308561231f565b827fc9050d42180a61cb0d9ebb8ad118b62fe6eab12cf12ff752c4a0cc7da9ddf62733846112018542612fe2565b604080516001600160a01b03909416845260208401929092529082015260600160405180910390a2505050565b6060600180546105e390612f63565b6000818152600c60205260409020600681015460ff1661128f5760405162461bcd60e51b815260206004820152600d60248201526c105d58dd1a5bdb88195b991959609a1b60448201526064016109f7565b806005015442106112d45760405162461bcd60e51b815260206004820152600f60248201526e105d58dd1a5bdb88195e1c1a5c9959608a1b60448201526064016109f7565b8060030154341161131c5760405162461bcd60e51b815260206004820152601260248201527142696420616d6f756e7420746f6f206c6f7760701b60448201526064016109f7565b60048101546001600160a01b03161561137157600481015460038201546040516001600160a01b039092169181156108fc0291906000818181858888f1935050505015801561136f573d6000803e3d6000fd5b505b34600382018190556004820180546001600160a01b0319163390811790915560408051918252602082019290925283917f0e54eff26401bf69b81b26f60bd85ef47f5d85275c1d268d84f68d6897431c4791015b60405180910390a25050565b336000908152600d6020526040902061069a8282613043565b61069a3383836123cf565b6113fd612943565b506000908152600b6020908152604091829020825160a0810184528154815260018201546001600160a01b03908116938201939093526002820154909216928201929092526003820154606082015260049091015460ff161515608082015290565b600a546001600160a01b031633146114d85760405162461bcd60e51b815260206004820152603660248201527f6f6e6c79206f776e6572206f6620746865206d61726b6574706c6163652063616044820152756e206368616e6765206c697374696e6720707269636560501b60648201526084016109f7565b600a546001600160a01b0316331461154b5760405162461bcd60e51b815260206004820152603060248201527f4f6e6c79206d61726b6574706c616365206f776e65722063616e20757064617460448201526f32903634b9ba34b73390383934b1b29760811b60648201526084016109f7565b600955565b61155b8484846109d1565b610a5b8484848461246e565b6000818152600c60205260409020600681015460ff166115c95760405162461bcd60e51b815260206004820152601a60248201527f41756374696f6e20656e646564206f72206e6f7420657869737400000000000060448201526064016109f7565b80600501544210156116165760405162461bcd60e51b8152602060048201526016602482015275105d5d18dd1a5bdb881b9bdd081e595d08195b99195960521b60448201526064016109f7565b60068101805460ff1916905560048101546001600160a01b03161561179d576004808201546000848152600b602052604081206002810180546001600160a01b0319166001600160a01b03909416939093179092559101805460ff19166001179055600880549161168683612fb3565b909155505060048101546116a59030906001600160a01b03168461231f565b600181015460038201546040516001600160a01b039092169181156108fc0291906000818181858888f193505050501580156116e5573d6000803e3d6000fd5b5060048101546003820154604080516001600160a01b039093168352602083019190915283917fd2aa34a4fdbbc6dff6a3e56f46e0f3ae2a31d7785ff3487aa5c95c642acea501910160405180910390a26004810154600382015460408051918252606060208301819052600c908301526b105d58dd1a5bdb915b99195960a21b60808301524282820152516001600160a01b0390921691309185916000805160206131e78339815191529181900360a00190a45050565b600181015461069a9030906001600160a01b03168461231f565b6000818152600b6020526040902060038101546001909101546001600160a01b0316348214611850576040805162461bcd60e51b81526020600482015260248101919091527f506c65617365207375626d6974207468652061736b696e67207072696365206960448201527f6e206f7264657220746f20636f6d706c6574652074686520707572636861736560648201526084016109f7565b6000838152600b602052604081206002810180546001600160a01b0319908116331790915560048201805460ff1916600190811790915590910180549091169055600880549161189f83612fb3565b91905055506118af30338561231f565b600a546009546040516001600160a01b039092169181156108fc0291906000818181858888f193505050501580156118eb573d6000803e3d6000fd5b506040516001600160a01b038216903480156108fc02916000818181858888f19350505050158015611921573d6000803e3d6000fd5b50604080518381526060602082018190526004908201526314dbdb1960e21b6080820152428183015290513391309186916000805160206131e7833981519152919081900360a00190a4505050565b80516060906000816001600160401b0381111561198f5761198f612c01565b6040519080825280602002602001820160405280156119c857816020015b6119b5612943565b8152602001906001900390816119ad5790505b50905060005b82811015611a855760008582815181106119ea576119ea612fcc565b6020908102919091018101516000818152600b8352604090819020815160a0810183528154815260018201546001600160a01b0390811695820195909552600282015490941691840191909152600381015460608401526004015460ff16151560808301528451909250849084908110611a6657611a66612fcc565b6020026020010181905250508080611a7d90612fb3565b9150506119ce565b509392505050565b6060611a9882611f92565b5060008281526006602052604081208054611ab290612f63565b80601f0160208091040260200160405190810160405280929190818152602001828054611ade90612f63565b8015611b2b5780601f10611b0057610100808354040283529160200191611b2b565b820191906000526020600020905b815481529060010190602001808311611b0e57829003601f168201915b505050505090506000611b4960408051602081019091526000815290565b90508051600003611b5b575092915050565b815115611b8d578082604051602001611b75929190613102565b60405160208183030381529060405292505050919050565b611b9684612597565b949350505050565b6000828152600b60205260409020600201546001600160a01b03163314611c1a5760405162461bcd60e51b815260206004820152602a60248201527f4f6e6c79206974656d206f776e65722063616e20706572666f726d20746869736044820152691037b832b930ba34b7b760b11b60648201526084016109f7565b6009543414611c3b5760405162461bcd60e51b81526004016109f790613131565b6000828152600b6020526040812060048101805460ff19169055600381018390556001810180546001600160a01b0319908116331790915560029091018054909116301790556008805491611c8f83613175565b9091555050604080518281526060602082018190526008908201526714995b1a5cdd195960c21b6080820152428183015290513091339185916000805160206131e7833981519152919081900360a00190a461069a33308461231f565b6001600160a01b03918216600090815260056020908152604080832093909416825291909152205460ff1690565b60075460609060008060015b838111611d67576000818152600c602052604090206006015460ff1615611d5557611d52600184612fe2565b92505b80611d5f81612fb3565b915050611d26565b506000826001600160401b03811115611d8257611d82612c01565b604051908082528060200260200182016040528015611dbb57816020015b611da8612971565b815260200190600190039081611da05790505b50905060015b848111610850576000818152600c602052604090206006015460ff1615611e84576000818152600c6020908152604091829020825160e0810184528154815260018201546001600160a01b03908116938201939093526002820154938101939093526003810154606084015260048101549091166080830152600581015460a0830152600681015460ff16151560c08301528351909190849086908110611e6a57611e6a612fcc565b6020908102919091010152611e80600185612fe2565b9350505b80611e8e81612fb3565b915050611dc1565b6001600160a01b0381166000908152600d60205260409020805460609190611ebd90612f63565b80601f0160208091040260200160405190810160405280929190818152602001828054611ee990612f63565b8015611f365780601f10611f0b57610100808354040283529160200191611f36565b820191906000526020600020905b815481529060010190602001808311611f1957829003601f168201915b50505050509050919050565b60006001600160e01b031982166380ac58cd60e01b1480611f7357506001600160e01b03198216635b5e139f60e01b145b806105ce57506301ffc9a760e01b6001600160e01b03198316146105ce565b6000818152600260205260408120546001600160a01b0316806105ce57604051637e27328960e01b8152600481018490526024016109f7565b610c41838383600161260c565b6000828152600260205260408120546001600160a01b039081169083161561200557612005818486612712565b6001600160a01b038116156120435761202260008560008061260c565b6001600160a01b038116600090815260036020526040902080546000190190555b6001600160a01b03851615612072576001600160a01b0385166000908152600360205260409020805460010190555b60008481526002602052604080822080546001600160a01b0319166001600160a01b0389811691821790925591518793918516917fddf252ad1be2c89b69c2b068fc378daa952ba7f163c4a11628f55a4df523b3ef91a4949350505050565b6001600160a01b0382166120fb57604051633250574960e11b8152600060048201526024016109f7565b600061210983836000611fd8565b90506001600160a01b03811615610c41576040516339e3563760e11b8152600060048201526024016109f7565b600082815260066020526040902061214e8282613043565b506040518281527ff8e1a15aba9398e019f0b49df1a4fde98ee17ae345cb5f6b5e2c27f5033e8ce79060200160405180910390a15050565b600081116121d65760405162461bcd60e51b815260206004820152601c60248201527f5072696365206d757374206265206174206c656173742031207765690000000060448201526064016109f7565b60095434146121f75760405162461bcd60e51b81526004016109f790613131565b6040805160a080820183528482523360208084018281523085870181815260608088018a815260006080808b018281528e8352600b8952918c90209a518b55955160018b0180546001600160a01b03199081166001600160a01b0393841617909155945160028c01805490961691161790935551600389015590516004909701805460ff191697151597909717909655865188815292830186905260069583019590955265131a5cdd195960d21b908201524294810194909452919285916000805160206131e7833981519152910160405180910390a46122d933308461231f565b604080513381523060208201529081018290526000606082015282907fb640004f1d14576d0c209e240cad0410e0d8c0c33a09375861fbadae2588a98d906080016113c5565b6001600160a01b03821661234957604051633250574960e11b8152600060048201526024016109f7565b600061235783836000611fd8565b90506001600160a01b03811661238357604051637e27328960e01b8152600481018390526024016109f7565b836001600160a01b0316816001600160a01b031614610a5b576040516364283d7b60e01b81526001600160a01b03808616600483015260248201849052821660448201526064016109f7565b6001600160a01b03821661240157604051630b61174360e31b81526001600160a01b03831660048201526024016109f7565b6001600160a01b03838116600081815260056020908152604080832094871680845294825291829020805460ff191686151590811790915591519182527f17307eab39ab6107e8899845ad3d59bd9653f200f220920489ca2b5937696c31910160405180910390a3505050565b6001600160a01b0383163b15610a5b57604051630a85bd0160e11b81526001600160a01b0384169063150b7a02906124b090339088908790879060040161318c565b6020604051808303816000875af19250505080156124eb575060408051601f3d908101601f191682019092526124e8918101906131c9565b60015b612554573d808015612519576040519150601f19603f3d011682016040523d82523d6000602084013e61251e565b606091505b50805160000361254c57604051633250574960e11b81526001600160a01b03851660048201526024016109f7565b805181602001fd5b6001600160e01b03198116630a85bd0160e11b1461259057604051633250574960e11b81526001600160a01b03851660048201526024016109f7565b5050505050565b60606125a282611f92565b5060006125ba60408051602081019091526000815290565b905060008151116125da5760405180602001604052806000815250612605565b806125e484612776565b6040516020016125f5929190613102565b6040516020818303038152906040525b9392505050565b808061262057506001600160a01b03821615155b156126e257600061263084611f92565b90506001600160a01b0383161580159061265c5750826001600160a01b0316816001600160a01b031614155b801561266f575061266d8184611cec565b155b156126985760405163a9fbf51f60e01b81526001600160a01b03841660048201526024016109f7565b81156126e05783856001600160a01b0316826001600160a01b03167f8c5be1e5ebec7d5bd14f71427d1e84f3dd0314c0f7b2291e5b200ac8c7c3b92560405160405180910390a45b505b5050600090815260046020526040902080546001600160a01b0319166001600160a01b0392909216919091179055565b61271d838383612808565b610c41576001600160a01b03831661274b57604051637e27328960e01b8152600481018290526024016109f7565b60405163177e802f60e01b81526001600160a01b0383166004820152602481018290526044016109f7565b606060006127838361286b565b60010190506000816001600160401b038111156127a2576127a2612c01565b6040519080825280601f01601f1916602001820160405280156127cc576020820181803683370190505b5090508181016020015b600019016f181899199a1a9b1b9c1cb0b131b232b360811b600a86061a8153600a85049450846127d657509392505050565b60006001600160a01b03831615801590611b965750826001600160a01b0316846001600160a01b0316148061284257506128428484611cec565b80611b965750506000908152600460205260409020546001600160a01b03908116911614919050565b60008072184f03e93ff9f4daa797ed6e38ed64bf6a1f0160401b83106128aa5772184f03e93ff9f4daa797ed6e38ed64bf6a1f0160401b830492506040015b6d04ee2d6d415b85acef810000000083106128d6576d04ee2d6d415b85acef8100000000830492506020015b662386f26fc1000083106128f457662386f26fc10000830492506010015b6305f5e100831061290c576305f5e100830492506008015b612710831061292057612710830492506004015b60648310612932576064830492506002015b600a83106105ce5760010192915050565b6040805160a08101825260008082526020820181905291810182905260608101829052608081019190915290565b6040518060e001604052806000815260200160006001600160a01b03168152602001600081526020016000815260200160006001600160a01b03168152602001600081526020016000151581525090565b6001600160e01b0319811681146129d857600080fd5b50565b6000602082840312156129ed57600080fd5b8135612605816129c2565b60005b83811015612a135781810151838201526020016129fb565b50506000910152565b60008151808452612a348160208601602086016129f8565b601f01601f19169290920160200192915050565b6020815260006126056020830184612a1c565b600060208284031215612a6d57600080fd5b5035919050565b80356001600160a01b0381168114612a8b57600080fd5b919050565b60008060408385031215612aa357600080fd5b612aac83612a74565b946020939093013593505050565b805182526020808201516001600160a01b039081169184019190915260408083015190911690830152606080820151908301526080908101511515910152565b6020808252825182820181905260009190848201906040850190845b81811015612b3c57612b29838551612aba565b9284019260a09290920191600101612b16565b50909695505050505050565b600080600060608486031215612b5d57600080fd5b612b6684612a74565b9250612b7460208501612a74565b9150604084013590509250925092565b600060208284031215612b9657600080fd5b61260582612a74565b80518252602081015160018060a01b0380821660208501526040830151604085015260608301516060850152806080840151166080850152505060a081015160a083015260c0810151151560c08301525050565b60e081016105ce8284612b9f565b634e487b7160e01b600052604160045260246000fd5b604051601f8201601f191681016001600160401b0381118282101715612c3f57612c3f612c01565b604052919050565b60006001600160401b03831115612c6057612c60612c01565b612c73601f8401601f1916602001612c17565b9050828152838383011115612c8757600080fd5b828260208301376000602084830101529392505050565b600082601f830112612caf57600080fd5b61260583833560208501612c47565b60008060408385031215612cd157600080fd5b82356001600160401b03811115612ce757600080fd5b612cf385828601612c9e565b95602094909401359450505050565b600080600060608486031215612d1757600080fd5b505081359360208301359350604090920135919050565b600060208284031215612d4057600080fd5b81356001600160401b03811115612d5657600080fd5b611b9684828501612c9e565b60008060408385031215612d7557600080fd5b612d7e83612a74565b915060208301358015158114612d9357600080fd5b809150509250929050565b60a081016105ce8284612aba565b60008060008060808587031215612dc257600080fd5b612dcb85612a74565b9350612dd960208601612a74565b92506040850135915060608501356001600160401b03811115612dfb57600080fd5b8501601f81018713612e0c57600080fd5b612e1b87823560208401612c47565b91505092959194509250565b60006020808385031215612e3a57600080fd5b82356001600160401b0380821115612e5157600080fd5b818501915085601f830112612e6557600080fd5b813581811115612e7757612e77612c01565b8060051b9150612e88848301612c17565b8181529183018401918481019088841115612ea257600080fd5b938501935b83851015612ec057843582529385019390850190612ea7565b98975050505050505050565b60008060408385031215612edf57600080fd5b50508035926020909101359150565b60008060408385031215612f0157600080fd5b612f0a83612a74565b9150612f1860208401612a74565b90509250929050565b6020808252825182820181905260009190848201906040850190845b81811015612b3c57612f50838551612b9f565b9284019260e09290920191600101612f3d565b600181811c90821680612f7757607f821691505b602082108103612f9757634e487b7160e01b600052602260045260246000fd5b50919050565b634e487b7160e01b600052601160045260246000fd5b600060018201612fc557612fc5612f9d565b5060010190565b634e487b7160e01b600052603260045260246000fd5b808201808211156105ce576105ce612f9d565b601f821115610c4157600081815260208120601f850160051c8101602086101561301c5750805b601f850160051c820191505b8181101561303b57828155600101613028565b505050505050565b81516001600160401b0381111561305c5761305c612c01565b6130708161306a8454612f63565b84612ff5565b602080601f8311600181146130a5576000841561308d5750858301515b600019600386901b1c1916600185901b17855561303b565b600085815260208120601f198616915b828110156130d4578886015182559484019460019091019084016130b5565b50858210156130f25787850151600019600388901b60f8161c191681555b5050505050600190811b01905550565b600083516131148184602088016129f8565b8351908301906131288183602088016129f8565b01949350505050565b60208082526024908201527f5072696365206d75737420626520657175616c20746f206c697374696e6720706040820152637269636560e01b606082015260800190565b60008161318457613184612f9d565b506000190190565b6001600160a01b03858116825284166020820152604081018390526080606082018190526000906131bf90830184612a1c565b9695505050505050565b6000602082840312156131db57600080fd5b8151612605816129c256fe54bb174cca262bb16372db4ab0481576288a7b7294650357cc2ddc2848a5c77da264697066735822122012135995ea85c9fbfb1c0cce7cec4e9f63cc058ad7fd2927ee2a050e523d71b364736f6c63430008140033",
  "linkReferences": {},
  "deployedLinkReferences": {}
}