{
  "_format": "hh-sol-artifact-1",
  "contractName": "NFTMarketplace",
  "sourceName": "contracts/NFTMarketplace.sol",
  "abi": [
    {
      "inputs": [],
      "stateMutability": "nonpayable",
      "type": "constructor"
    },
    {
      "inputs": [
        {
          "internalType": "address",
          "name": "sender",
          "type": "address"
        },
        {
          "internalType": "uint256",
          "name": "tokenId",
          "type": "uint256"
        },
        {
          "internalType": "address",
          "name": "owner",
          "type": "address"
        }
      ],
      "name": "ERC721IncorrectOwner",
      "type": "error"
    },
    {
      "inputs": [
        {
          "internalType": "address",
          "name": "operator",
          "type": "address"
        },
        {
          "internalType": "uint256",
          "name": "tokenId",
          "type": "uint256"
        }
      ],
      "name": "ERC721InsufficientApproval",
      "type": "error"
    },
    {
      "inputs": [
        {
          "internalType": "address",
          "name": "approver",
          "type": "address"
        }
      ],
      "name": "ERC721InvalidApprover",
      "type": "error"
    },
    {
      "inputs": [
        {
          "internalType": "address",
          "name": "operator",
          "type": "address"
        }
      ],
      "name": "ERC721InvalidOperator",
      "type": "error"
    },
    {
      "inputs": [
        {
          "internalType": "address",
          "name": "owner",
          "type": "address"
        }
      ],
      "name": "ERC721InvalidOwner",
      "type": "error"
    },
    {
      "inputs": [
        {
          "internalType": "address",
          "name": "receiver",
          "type": "address"
        }
      ],
      "name": "ERC721InvalidReceiver",
      "type": "error"
    },
    {
      "inputs": [
        {
          "internalType": "address",
          "name": "sender",
          "type": "address"
        }
      ],
      "name": "ERC721InvalidSender",
      "type": "error"
    },
    {
      "inputs": [
        {
          "internalType": "uint256",
          "name": "tokenId",
          "type": "uint256"
        }
      ],
      "name": "ERC721NonexistentToken",
      "type": "error"
    },
    {
      "anonymous": false,
      "inputs": [
        {
          "indexed": true,
          "internalType": "address",
          "name": "owner",
          "type": "address"
        },
        {
          "indexed": true,
          "internalType": "address",
          "name": "approved",
          "type": "address"
        },
        {
          "indexed": true,
          "internalType": "uint256",
          "name": "tokenId",
          "type": "uint256"
        }
      ],
      "name": "Approval",
      "type": "event"
    },
    {
      "anonymous": false,
      "inputs": [
        {
          "indexed": true,
          "internalType": "address",
          "name": "owner",
          "type": "address"
        },
        {
          "indexed": true,
          "internalType": "address",
          "name": "operator",
          "type": "address"
        },
        {
          "indexed": false,
          "internalType": "bool",
          "name": "approved",
          "type": "bool"
        }
      ],
      "name": "ApprovalForAll",
      "type": "event"
    },
    {
      "anonymous": false,
      "inputs": [
        {
          "indexed": true,
          "internalType": "uint256",
          "name": "tokenId",
          "type": "uint256"
        },
        {
          "indexed": false,
          "internalType": "address",
          "name": "seller",
          "type": "address"
        },
        {
          "indexed": false,
          "internalType": "uint256",
          "name": "startingPrice",
          "type": "uint256"
        },
        {
          "indexed": false,
          "internalType": "uint256",
          "name": "endTime",
          "type": "uint256"
        }
      ],
      "name": "AuctionCreated",
      "type": "event"
    },
    {
      "anonymous": false,
      "inputs": [
        {
          "indexed": true,
          "internalType": "uint256",
          "name": "tokenId",
          "type": "uint256"
        },
        {
          "indexed": false,
          "internalType": "address",
          "name": "winner",
          "type": "address"
        },
        {
          "indexed": false,
          "internalType": "uint256",
          "name": "winningBid",
          "type": "uint256"
        }
      ],
      "name": "AuctionEnded",
      "type": "event"
    },
    {
      "anonymous": false,
      "inputs": [
        {
          "indexed": false,
          "internalType": "uint256",
          "name": "_fromTokenId",
          "type": "uint256"
        },
        {
          "indexed": false,
          "internalType": "uint256",
          "name": "_toTokenId",
          "type": "uint256"
        }
      ],
      "name": "BatchMetadataUpdate",
      "type": "event"
    },
    {
      "anonymous": false,
      "inputs": [
        {
          "indexed": true,
          "internalType": "uint256",
          "name": "tokenId",
          "type": "uint256"
        },
        {
          "indexed": false,
          "internalType": "address",
          "name": "bidder",
          "type": "address"
        },
        {
          "indexed": false,
          "internalType": "uint256",
          "name": "bidAmount",
          "type": "uint256"
        }
      ],
      "name": "BidPlaced",
      "type": "event"
    },
    {
      "anonymous": false,
      "inputs": [
        {
          "indexed": true,
          "internalType": "uint256",
          "name": "tokenId",
          "type": "uint256"
        },
        {
          "indexed": false,
          "internalType": "address",
          "name": "seller",
          "type": "address"
        },
        {
          "indexed": false,
          "internalType": "address",
          "name": "owner",
          "type": "address"
        },
        {
          "indexed": false,
          "internalType": "uint256",
          "name": "price",
          "type": "uint256"
        },
        {
          "indexed": false,
          "internalType": "bool",
          "name": "sold",
          "type": "bool"
        }
      ],
      "name": "MarketItemCreated",
      "type": "event"
    },
    {
      "anonymous": false,
      "inputs": [
        {
          "indexed": false,
          "internalType": "uint256",
          "name": "_tokenId",
          "type": "uint256"
        }
      ],
      "name": "MetadataUpdate",
      "type": "event"
    },
    {
      "anonymous": false,
      "inputs": [
        {
          "indexed": true,
          "internalType": "uint256",
          "name": "tokenId",
          "type": "uint256"
        },
        {
          "indexed": true,
          "internalType": "address",
          "name": "from",
          "type": "address"
        },
        {
          "indexed": true,
          "internalType": "address",
          "name": "to",
          "type": "address"
        },
        {
          "indexed": false,
          "internalType": "uint256",
          "name": "price",
          "type": "uint256"
        },
        {
          "indexed": false,
          "internalType": "string",
          "name": "action",
          "type": "string"
        },
        {
          "indexed": false,
          "internalType": "uint256",
          "name": "timestamp",
          "type": "uint256"
        }
      ],
      "name": "Provenance",
      "type": "event"
    },
    {
      "anonymous": false,
      "inputs": [
        {
          "indexed": true,
          "internalType": "address",
          "name": "from",
          "type": "address"
        },
        {
          "indexed": true,
          "internalType": "address",
          "name": "to",
          "type": "address"
        },
        {
          "indexed": true,
          "internalType": "uint256",
          "name": "tokenId",
          "type": "uint256"
        }
      ],
      "name": "Transfer",
      "type": "event"
    },
    {
      "inputs": [
        {
          "internalType": "address",
          "name": "to",
          "type": "address"
        },
        {
          "internalType": "uint256",
          "name": "tokenId",
          "type": "uint256"
        }
      ],
      "name": "approve",
      "outputs": [],
      "stateMutability": "nonpayable",
      "type": "function"
    },
    {
      "inputs": [
        {
          "internalType": "address",
          "name": "owner",
          "type": "address"
        }
      ],
      "name": "balanceOf",
      "outputs": [
        {
          "internalType": "uint256",
          "name": "",
          "type": "uint256"
        }
      ],
      "stateMutability": "view",
      "type": "function"
    },
    {
      "inputs": [
        {
          "internalType": "uint256",
          "name": "tokenId",
          "type": "uint256"
        }
      ],
      "name": "createMarketSale",
      "outputs": [],
      "stateMutability": "payable",
      "type": "function"
    },
    {
      "inputs": [
        {
          "internalType": "string",
          "name": "tokenURI",
          "type": "string"
        },
        {
          "internalType": "uint256",
          "name": "price",
          "type": "uint256"
        }
      ],
      "name": "createToken",
      "outputs": [
        {
          "internalType": "uint256",
          "name": "",
          "type": "uint256"
        }
      ],
      "stateMutability": "payable",
      "type": "function"
    },
    {
      "inputs": [
        {
          "internalType": "uint256",
          "name": "tokenId",
          "type": "uint256"
        }
      ],
      "name": "endAuction",
      "outputs": [],
      "stateMutability": "nonpayable",
      "type": "function"
    },
    {
      "inputs": [],
      "name": "fetchActiveAuctions",
      "outputs": [
        {
          "components": [
            {
              "internalType": "uint256",
              "name": "tokenId",
              "type": "uint256"
            },
            {
              "internalType": "address payable",
              "name": "seller",
              "type": "address"
            },
            {
              "internalType": "uint256",
              "name": "startingPrice",
              "type": "uint256"
            },
            {
              "internalType": "uint256",
              "name": "highestBid",
              "type": "uint256"
            },
            {
              "internalType": "address payable",
              "name": "highestBidder",
              "type": "address"
            },
            {
              "internalType": "uint256",
              "name": "endTime",
              "type": "uint256"
            },
            {
              "internalType": "bool",
              "name": "active",
              "type": "bool"
            }
          ],
          "internalType": "struct NFTMarketplace.Auction[]",
          "name": "",
          "type": "tuple[]"
        }
      ],
      "stateMutability": "view",
      "type": "function"
    },
    {
      "inputs": [
        {
          "internalType": "uint256",
          "name": "tokenId",
          "type": "uint256"
        }
      ],
      "name": "fetchAuction",
      "outputs": [
        {
          "components": [
            {
              "internalType": "uint256",
              "name": "tokenId",
              "type": "uint256"
            },
            {
              "internalType": "address payable",
              "name": "seller",
              "type": "address"
            },
            {
              "internalType": "uint256",
              "name": "startingPrice",
              "type": "uint256"
            },
            {
              "internalType": "uint256",
              "name": "highestBid",
              "type": "uint256"
            },
            {
              "internalType": "address payable",
              "name": "highestBidder",
              "type": "address"
            },
            {
              "internalType": "uint256",
              "name": "endTime",
              "type": "uint256"
            },
            {
              "internalType": "bool",
              "name": "active",
              "type": "bool"
            }
          ],
          "internalType": "struct NFTMarketplace.Auction",
          "name": "",
          "type": "tuple"
        }
      ],
      "stateMutability": "view",
      "type": "function"
    },
    {
      "inputs": [],
      "name": "fetchItemsListed",
      "outputs": [
        {
          "components": [
            {
              "internalType": "uint256",
              "name": "tokenId",
              "type": "uint256"
            },
            {
              "internalType": "address payable",
              "name": "seller",
              "type": "address"
            },
            {
              "internalType": "address payable",
              "name": "owner",
              "type": "address"
            },
            {
              "internalType": "uint256",
              "name": "price",
              "type": "uint256"
            },
            {
              "internalType": "bool",
              "name": "sold",
              "type": "bool"
            }
          ],
          "internalType": "struct NFTMarketplace.MarketItem[]",
          "name": "",
          "type": "tuple[]"
        }
      ],
      "stateMutability": "view",
      "type": "function"
    },
    {
      "inputs": [
        {
          "internalType": "uint256",
          "name": "tokenId",
          "type": "uint256"
        }
      ],
      "name": "fetchMarketItemById",
      "outputs": [
        {
          "components": [
            {
              "internalType": "uint256",
              "name": "tokenId",
              "type": "uint256"
            },
            {
              "internalType": "address payable",
              "name": "seller",
              "type": "address"
            },
            {
              "internalType": "address payable",
              "name": "owner",
              "type": "address"
            },
            {
              "internalType": "uint256",
              "name": "price",
              "type": "uint256"
            },
            {
              "internalType": "bool",
              "name": "sold",
              "type": "bool"
            }
          ],
          "internalType": "struct NFTMarketplace.MarketItem",
          "name": "",
          "type": "tuple"
        }
      ],
      "stateMutability": "view",
      "type": "function"
    },
    {
      "inputs": [],
      "name": "fetchMarketItems",
      "outputs": [
        {
          "components": [
            {
              "internalType": "uint256",
              "name": "tokenId",
              "type": "uint256"
            },
            {
              "internalType": "address payable",
              "name": "seller",
              "type": "address"
            },
            {
              "internalType": "address payable",
              "name": "owner",
              "type": "address"
            },
            {
              "internalType": "uint256",
              "name": "price",
              "type": "uint256"
            },
            {
              "internalType": "bool",
              "name": "sold",
              "type": "bool"
            }
          ],
          "internalType": "struct NFTMarketplace.MarketItem[]",
          "name": "",
          "type": "tuple[]"
        }
      ],
      "stateMutability": "view",
      "type": "function"
    },
    {
      "inputs": [
        {
          "internalType": "uint256[]",
          "name": "tokenIds",
          "type": "uint256[]"
        }
      ],
      "name": "fetchMarketItemsByIds",
      "outputs": [
        {
          "components": [
            {
              "internalType": "uint256",
              "name": "tokenId",
              "type": "uint256"
            },
            {
              "internalType": "address payable",
              "name": "seller",
              "type": "address"
            },
            {
              "internalType": "address payable",
              "name": "owner",
              "type": "address"
            },
            {
              "internalType": "uint256",
              "name": "price",
              "type": "uint256"
            },
            {
              "internalType": "bool",
              "name": "sold",
              "type": "bool"
            }
          ],
          "internalType": "struct NFTMarketplace.MarketItem[]",
          "name": "",
          "type": "tuple[]"
        }
      ],
      "stateMutability": "view",
      "type": "function"
    },
    {
      "inputs": [],
      "name": "fetchMyNFTs",
      "outputs": [
        {
          "components": [
            {
              "internalType": "uint256",
              "name": "tokenId",
              "type": "uint256"
            },
            {
              "internalType": "address payable",
              "name": "seller",
              "type": "address"
            },
            {
              "internalType": "address payable",
              "name": "owner",
              "type": "address"
            },
            {
              "internalType": "uint256",
              "name": "price",
              "type": "uint256"
            },
            {
              "internalType": "bool",
              "name": "sold",
              "type": "bool"
            }
          ],
          "internalType": "struct NFTMarketplace.MarketItem[]",
          "name": "",
          "type": "tuple[]"
        }
      ],
      "stateMutability": "view",
      "type": "function"
    },
    {
      "inputs": [
        {
          "internalType": "address",
          "name": "ownerAddress",
          "type": "address"
        }
      ],
      "name": "fetchNFTsByOwner",
      "outputs": [
        {
          "components": [
            {
              "internalType": "uint256",
              "name": "tokenId",
              "type": "uint256"
            },
            {
              "internalType": "address payable",
              "name": "seller",
              "type": "address"
            },
            {
              "internalType": "address payable",
              "name": "owner",
              "type": "address"
            },
            {
              "internalType": "uint256",
              "name": "price",
              "type": "uint256"
            },
            {
              "internalType": "bool",
              "name": "sold",
              "type": "bool"
            }
          ],
          "internalType": "struct NFTMarketplace.MarketItem[]",
          "name": "",
          "type": "tuple[]"
        }
      ],
      "stateMutability": "view",
      "type": "function"
    },
    {
      "inputs": [
        {
          "internalType": "uint256",
          "name": "tokenId",
          "type": "uint256"
        }
      ],
      "name": "getApproved",
      "outputs": [
        {
          "internalType": "address",
          "name": "",
          "type": "address"
        }
      ],
      "stateMutability": "view",
      "type": "function"
    },
    {
      "inputs": [],
      "name": "getListingPrice",
      "outputs": [
        {
          "internalType": "uint256",
          "name": "",
          "type": "uint256"
        }
      ],
      "stateMutability": "view",
      "type": "function"
    },
    {
      "inputs": [
        {
          "internalType": "address",
          "name": "userAddress",
          "type": "address"
        }
      ],
      "name": "getUserIPFSHash",
      "outputs": [
        {
          "internalType": "string",
          "name": "",
          "type": "string"
        }
      ],
      "stateMutability": "view",
      "type": "function"
    },
    {
      "inputs": [
        {
          "internalType": "address",
          "name": "owner",
          "type": "address"
        },
        {
          "internalType": "address",
          "name": "operator",
          "type": "address"
        }
      ],
      "name": "isApprovedForAll",
      "outputs": [
        {
          "internalType": "bool",
          "name": "",
          "type": "bool"
        }
      ],
      "stateMutability": "view",
      "type": "function"
    },
    {
      "inputs": [],
      "name": "name",
      "outputs": [
        {
          "internalType": "string",
          "name": "",
          "type": "string"
        }
      ],
      "stateMutability": "view",
      "type": "function"
    },
    {
      "inputs": [
        {
          "internalType": "uint256",
          "name": "tokenId",
          "type": "uint256"
        }
      ],
      "name": "ownerOf",
      "outputs": [
        {
          "internalType": "address",
          "name": "",
          "type": "address"
        }
      ],
      "stateMutability": "view",
      "type": "function"
    },
    {
      "inputs": [
        {
          "internalType": "uint256",
          "name": "tokenId",
          "type": "uint256"
        }
      ],
      "name": "placeBid",
      "outputs": [],
      "stateMutability": "payable",
      "type": "function"
    },
    {
      "inputs": [
        {
          "internalType": "uint256",
          "name": "tokenId",
          "type": "uint256"
        },
        {
          "internalType": "uint256",
          "name": "price",
          "type": "uint256"
        }
      ],
      "name": "resellToken",
      "outputs": [],
      "stateMutability": "payable",
      "type": "function"
    },
    {
      "inputs": [
        {
          "internalType": "address",
          "name": "from",
          "type": "address"
        },
        {
          "internalType": "address",
          "name": "to",
          "type": "address"
        },
        {
          "internalType": "uint256",
          "name": "tokenId",
          "type": "uint256"
        }
      ],
      "name": "safeTransferFrom",
      "outputs": [],
      "stateMutability": "nonpayable",
      "type": "function"
    },
    {
      "inputs": [
        {
          "internalType": "address",
          "name": "from",
          "type": "address"
        },
        {
          "internalType": "address",
          "name": "to",
          "type": "address"
        },
        {
          "internalType": "uint256",
          "name": "tokenId",
          "type": "uint256"
        },
        {
          "internalType": "bytes",
          "name": "data",
          "type": "bytes"
        }
      ],
      "name": "safeTransferFrom",
      "outputs": [],
      "stateMutability": "nonpayable",
      "type": "function"
    },
    {
      "inputs": [
        {
          "internalType": "address",
          "name": "operator",
          "type": "address"
        },
        {
          "internalType": "bool",
          "name": "approved",
          "type": "bool"
        }
      ],
      "name": "setApprovalForAll",
      "outputs": [],
      "stateMutability": "nonpayable",
      "type": "function"
    },
    {
      "inputs": [
        {
          "internalType": "string",
          "name": "ipfsHash",
          "type": "string"
        }
      ],
      "name": "setUserIPFSHash",
      "outputs": [],
      "stateMutability": "nonpayable",
      "type": "function"
    },
    {
      "inputs": [
        {
          "internalType": "uint256",
          "name": "tokenId",
          "type": "uint256"
        },
        {
          "internalType": "uint256",
          "name": "startingPrice",
          "type": "uint256"
        },
        {
          "internalType": "uint256",
          "name": "duration",
          "type": "uint256"
        }
      ],
      "name": "startAuction",
      "outputs": [],
      "stateMutability": "nonpayable",
      "type": "function"
    },
    {
      "inputs": [
        {
          "internalType": "bytes4",
          "name": "interfaceId",
          "type": "bytes4"
        }
      ],
      "name": "supportsInterface",
      "outputs": [
        {
          "internalType": "bool",
          "name": "",
          "type": "bool"
        }
      ],
      "stateMutability": "view",
      "type": "function"
    },
    {
      "inputs": [],
      "name": "symbol",
      "outputs": [
        {
          "internalType": "string",
          "name": "",
          "type": "string"
        }
      ],
      "stateMutability": "view",
      "type": "function"
    },
    {
      "inputs": [
        {
          "internalType": "uint256",
          "name": "tokenId",
          "type": "uint256"
        }
      ],
      "name": "tokenURI",
      "outputs": [
        {
          "internalType": "string",
          "name": "",
          "type": "string"
        }
      ],
      "stateMutability": "view",
      "type": "function"
    },
    {
      "inputs": [
        {
          "internalType": "address",
          "name": "from",
          "type": "address"
        },
        {
          "internalType": "address",
          "name": "to",
          "type": "address"
        },
        {
          "internalType": "uint256",
          "name": "tokenId",
          "type": "uint256"
        }
      ],
      "name": "transferFrom",
      "outputs": [],
      "stateMutability": "nonpayable",
      "type": "function"
    }
  ],
  "bytecode": "0x60806040526608e1bc9bf040006009553480156200001c57600080fd5b506040518060400160405280601081526020016f4d657461766572736520546f6b656e7360801b8152506040518060400160405280600881526020016726a2aa2a27a5a2a760c11b815250816000908162000078919062000147565b50600162000087828262000147565b5050600a80546001600160a01b031916331790555062000213565b634e487b7160e01b600052604160045260246000fd5b600181811c90821680620000cd57607f821691505b602082108103620000ee57634e487b7160e01b600052602260045260246000fd5b50919050565b601f8211156200014257600081815260208120601f850160051c810160208610156200011d5750805b601f850160051c820191505b818110156200013e5782815560010162000129565b5050505b505050565b81516001600160401b03811115620001635762000163620000a2565b6200017b81620001748454620000b8565b84620000f4565b602080601f831160018114620001b357600084156200019a5750858301515b600019600386901b1c1916600185901b1785556200013e565b600085815260208120601f198616915b82811015620001e457888601518255948401946001909101908401620001c3565b5085821015620002035787850151600019600388901b60f8161c191681555b5050505050600190811b01905550565b61312d80620002236000396000f3fe6080604052600436106101cd5760003560e01c806391e078bb116100f7578063b9a2de3a11610095578063e219fc7511610064578063e219fc7514610516578063e985e9c514610529578063f1d9e54514610549578063f70622c81461056b57600080fd5b8063b9a2de3a146104a3578063be9af536146104c3578063c5e71777146104d6578063c87b56dd146104f657600080fd5b80639ec2523b116100d15780639ec2523b14610416578063a22cb46514610436578063ad1477a914610456578063b88d4fde1461048357600080fd5b806391e078bb146103ce57806395d89b41146103ee5780639979ef451461040357600080fd5b806323b872dd1161016f5780636352211e1161013e5780636352211e1461034e57806370a082311461036e5780637195e1241461038e57806372b3b620146103bb57600080fd5b806323b872dd146102d957806341c5f499146102f957806342842e0e1461031957806345f8fa801461033957600080fd5b8063095ea7b3116101ab578063095ea7b3146102615780630f08efe01461028357806312e85585146102a5578063202e3740146102c457600080fd5b806301ffc9a7146101d257806306fdde0314610207578063081812fc14610229575b600080fd5b3480156101de57600080fd5b506101f26101ed3660046128cc565b61058b565b60405190151581526020015b60405180910390f35b34801561021357600080fd5b5061021c6105b6565b6040516101fe9190612939565b34801561023557600080fd5b5061024961024436600461294c565b610648565b6040516001600160a01b0390911681526020016101fe565b34801561026d57600080fd5b5061028161027c366004612981565b610671565b005b34801561028f57600080fd5b50610298610680565b6040516101fe91906129eb565b3480156102b157600080fd5b506009545b6040519081526020016101fe565b3480156102d057600080fd5b5061029861083b565b3480156102e557600080fd5b506102816102f4366004612a39565b6109b3565b34801561030557600080fd5b50610298610314366004612a75565b610a43565b34801561032557600080fd5b50610281610334366004612a39565b610c08565b34801561034557600080fd5b50610298610c28565b34801561035a57600080fd5b5061024961036936600461294c565b610dda565b34801561037a57600080fd5b506102b6610389366004612a75565b610de5565b34801561039a57600080fd5b506103ae6103a936600461294c565b610e2d565b6040516101fe9190612ae4565b6102b66103c9366004612baf565b610ef3565b3480156103da57600080fd5b506102816103e9366004612bf3565b610f7c565b3480156103fa57600080fd5b5061021c611210565b61028161041136600461294c565b61121f565b34801561042257600080fd5b50610281610431366004612c1f565b6113b3565b34801561044257600080fd5b50610281610451366004612c53565b6113cc565b34801561046257600080fd5b5061047661047136600461294c565b6113d7565b6040516101fe9190612c8f565b34801561048f57600080fd5b5061028161049e366004612c9d565b611441565b3480156104af57600080fd5b506102816104be36600461294c565b611458565b6102816104d136600461294c565b6116a8565b3480156104e257600080fd5b506102986104f1366004612d18565b611861565b34801561050257600080fd5b5061021c61051136600461294c565b61197e565b610281610524366004612dbd565b611a8f565b34801561053557600080fd5b506101f2610544366004612ddf565b611bdd565b34801561055557600080fd5b5061055e611c0b565b6040516101fe9190612e12565b34801561057757600080fd5b5061021c610586366004612a75565b611d87565b60006001600160e01b03198216632483248360e11b14806105b057506105b082611e33565b92915050565b6060600080546105c590612e54565b80601f01602080910402602001604051908101604052809291908181526020018280546105f190612e54565b801561063e5780601f106106135761010080835404028352916020019161063e565b820191906000526020600020905b81548152906001019060200180831161062157829003601f168201915b5050505050905090565b600061065382611e83565b506000828152600460205260409020546001600160a01b03166105b0565b61067c828233611ebc565b5050565b60075460609060008060015b8381116106f3576000818152600b60205260409020600201546001600160a01b0316301480156106ce57506000818152600b602052604090206004015460ff16155b156106e157826106dd81612ea4565b9350505b806106eb81612ea4565b91505061068c565b506000826001600160401b0381111561070e5761070e612af2565b60405190808252806020026020018201604052801561074757816020015b610734612834565b81526020019060019003908161072c5790505b50905060015b848111610832576000818152600b60205260409020600201546001600160a01b03163014801561078f57506000818152600b602052604090206004015460ff16155b15610820576000818152600b6020908152604091829020825160a0810184528154815260018201546001600160a01b03908116938201939093526002820154909216928201929092526003820154606082015260049091015460ff1615156080820152825183908590811061080657610806612ebd565b6020026020010181905250828061081c90612ea4565b9350505b8061082a81612ea4565b91505061074d565b50949350505050565b60075460609060008060015b838111610891576000818152600b6020526040902060020154336001600160a01b039091160361087f578261087b81612ea4565b9350505b8061088981612ea4565b915050610847565b506000826001600160401b038111156108ac576108ac612af2565b6040519080825280602002602001820160405280156108e557816020015b6108d2612834565b8152602001906001900390816108ca5790505b50905060015b848111610832576000818152600b6020526040902060020154336001600160a01b03909116036109a1576000818152600b6020908152604091829020825160a0810184528154815260018201546001600160a01b03908116938201939093526002820154909216928201929092526003820154606082015260049091015460ff1615156080820152825183908590811061098757610987612ebd565b6020026020010181905250828061099d90612ea4565b9350505b806109ab81612ea4565b9150506108eb565b6001600160a01b0382166109e257604051633250574960e11b8152600060048201526024015b60405180910390fd5b60006109ef838333611ec9565b9050836001600160a01b0316816001600160a01b031614610a3d576040516364283d7b60e01b81526001600160a01b03808616600483015260248201849052821660448201526064016109d9565b50505050565b600754606090600080805b83811015610ab1576001600160a01b038616600b6000610a6f846001612ed3565b81526020810191909152604001600020600201546001600160a01b031603610a9f57610a9c600184612ed3565b92505b80610aa981612ea4565b915050610a4e565b506000826001600160401b03811115610acc57610acc612af2565b604051908082528060200260200182016040528015610b0557816020015b610af2612834565b815260200190600190039081610aea5790505b50905060005b84811015610bfe576001600160a01b038716600b6000610b2c846001612ed3565b81526020810191909152604001600020600201546001600160a01b031603610bec576000610b5b826001612ed3565b6000818152600b6020908152604091829020825160a0810184528154815260018201546001600160a01b039081169382019390935260028201549092169282019290925260038201546060820152600482015460ff161515608082015285519293509091859087908110610bd157610bd1612ebd565b6020908102919091010152610be7600186612ed3565b945050505b80610bf681612ea4565b915050610b0b565b5095945050505050565b610c2383838360405180602001604052806000815250611441565b505050565b60075460609060008060015b838111610c9b576000818152600b60205260409020600101546001600160a01b031633148015610c7657506000818152600b602052604090206004015460ff16155b15610c895782610c8581612ea4565b9350505b80610c9381612ea4565b915050610c34565b506000826001600160401b03811115610cb657610cb6612af2565b604051908082528060200260200182016040528015610cef57816020015b610cdc612834565b815260200190600190039081610cd45790505b50905060015b848111610832576000818152600b60205260409020600101546001600160a01b031633148015610d3757506000818152600b602052604090206004015460ff16155b15610dc8576000818152600b6020908152604091829020825160a0810184528154815260018201546001600160a01b03908116938201939093526002820154909216928201929092526003820154606082015260049091015460ff16151560808201528251839085908110610dae57610dae612ebd565b60200260200101819052508280610dc490612ea4565b9350505b80610dd281612ea4565b915050610cf5565b60006105b082611e83565b60006001600160a01b038216610e11576040516322718ad960e21b8152600060048201526024016109d9565b506001600160a01b031660009081526003602052604090205490565b610e35612862565b6000828152600c6020908152604091829020825160e0810184528154815260018201546001600160a01b03908116938201939093526002820154938101939093526003810154606084015260048101549091166080830152600581015460a08301526006015460ff16151560c082018190526105b05760405162461bcd60e51b815260206004820152601a60248201527f41756374696f6e20656e646564206f72206e6f7420657869737400000000000060448201526064016109d9565b6007805460009182610f0483612ea4565b9091555050600754610f163382611fc2565b610f208185612027565b610f2a8184612077565b60408051600080825260606020830181905260069083015265135a5b9d195960d21b60808301524282840152915133929184916000805160206130d88339815191529181900360a00190a49392505050565b6000838152600b60205260409020600201546001600160a01b03163314610fe55760405162461bcd60e51b815260206004820152601c60248201527f4f6e6c79206f776e65722063616e2073746172742061756374696f6e0000000060448201526064016109d9565b6000838152600c602052604090206006015460ff16158061101757506000838152600c60205260409020600501544210155b6110895760405162461bcd60e51b815260206004820152603f60248201527f416e206163746976652061756374696f6e20616c72656164792065786973747360448201527f206f7220686173206e6f7420656e64656420666f722074686973206974656d0060648201526084016109d9565b6040805160e081018252848152336020820152908101839052600060608201819052608082015260a081016110be8342612ed3565b8152600160209182018190526000868152600c8352604090819020845181559284015191830180546001600160a01b039384166001600160a01b0319918216179091558482015160028501556060850151600385015560808501516004850180549190941691161790915560a0830151600583015560c0909201516006909101805491151560ff19909216919091179055513090339085906000805160206130d8833981519152906111a29087904290918252606060208301819052600e908301526d105d58dd1a5bdb94dd185c9d195960921b6080830152604082015260a00190565b60405180910390a46111b5333085612210565b827fc9050d42180a61cb0d9ebb8ad118b62fe6eab12cf12ff752c4a0cc7da9ddf62733846111e38542612ed3565b604080516001600160a01b03909416845260208401929092529082015260600160405180910390a2505050565b6060600180546105c590612e54565b6000818152600c60205260409020600681015460ff166112715760405162461bcd60e51b815260206004820152600d60248201526c105d58dd1a5bdb88195b991959609a1b60448201526064016109d9565b806005015442106112b65760405162461bcd60e51b815260206004820152600f60248201526e105d58dd1a5bdb88195e1c1a5c9959608a1b60448201526064016109d9565b806003015434116112fe5760405162461bcd60e51b815260206004820152601260248201527142696420616d6f756e7420746f6f206c6f7760701b60448201526064016109d9565b60048101546001600160a01b03161561135357600481015460038201546040516001600160a01b039092169181156108fc0291906000818181858888f19350505050158015611351573d6000803e3d6000fd5b505b34600382018190556004820180546001600160a01b0319163390811790915560408051918252602082019290925283917f0e54eff26401bf69b81b26f60bd85ef47f5d85275c1d268d84f68d6897431c4791015b60405180910390a25050565b336000908152600d6020526040902061067c8282612f34565b61067c3383836122c0565b6113df612834565b506000908152600b6020908152604091829020825160a0810184528154815260018201546001600160a01b03908116938201939093526002820154909216928201929092526003820154606082015260049091015460ff161515608082015290565b61144c8484846109b3565b610a3d8484848461235f565b6000818152600c60205260409020600681015460ff166114ba5760405162461bcd60e51b815260206004820152601a60248201527f41756374696f6e20656e646564206f72206e6f7420657869737400000000000060448201526064016109d9565b80600501544210156115075760405162461bcd60e51b8152602060048201526016602482015275105d5d18dd1a5bdb881b9bdd081e595d08195b99195960521b60448201526064016109d9565b60068101805460ff1916905560048101546001600160a01b03161561168e576004808201546000848152600b602052604081206002810180546001600160a01b0319166001600160a01b03909416939093179092559101805460ff19166001179055600880549161157783612ea4565b909155505060048101546115969030906001600160a01b031684612210565b600181015460038201546040516001600160a01b039092169181156108fc0291906000818181858888f193505050501580156115d6573d6000803e3d6000fd5b5060048101546003820154604080516001600160a01b039093168352602083019190915283917fd2aa34a4fdbbc6dff6a3e56f46e0f3ae2a31d7785ff3487aa5c95c642acea501910160405180910390a26004810154600382015460408051918252606060208301819052600c908301526b105d58dd1a5bdb915b99195960a21b60808301524282820152516001600160a01b0390921691309185916000805160206130d88339815191529181900360a00190a45050565b600181015461067c9030906001600160a01b031684612210565b6000818152600b6020526040902060038101546001909101546001600160a01b0316348214611741576040805162461bcd60e51b81526020600482015260248101919091527f506c65617365207375626d6974207468652061736b696e67207072696365206960448201527f6e206f7264657220746f20636f6d706c6574652074686520707572636861736560648201526084016109d9565b6000838152600b602052604081206002810180546001600160a01b0319908116331790915560048201805460ff1916600190811790915590910180549091169055600880549161179083612ea4565b91905055506117a0303385612210565b600a546009546040516001600160a01b039092169181156108fc0291906000818181858888f193505050501580156117dc573d6000803e3d6000fd5b506040516001600160a01b038216903480156108fc02916000818181858888f19350505050158015611812573d6000803e3d6000fd5b50604080518381526060602082018190526004908201526314dbdb1960e21b6080820152428183015290513391309186916000805160206130d8833981519152919081900360a00190a4505050565b80516060906000816001600160401b0381111561188057611880612af2565b6040519080825280602002602001820160405280156118b957816020015b6118a6612834565b81526020019060019003908161189e5790505b50905060005b828110156119765760008582815181106118db576118db612ebd565b6020908102919091018101516000818152600b8352604090819020815160a0810183528154815260018201546001600160a01b0390811695820195909552600282015490941691840191909152600381015460608401526004015460ff1615156080830152845190925084908490811061195757611957612ebd565b602002602001018190525050808061196e90612ea4565b9150506118bf565b509392505050565b606061198982611e83565b50600082815260066020526040812080546119a390612e54565b80601f01602080910402602001604051908101604052809291908181526020018280546119cf90612e54565b8015611a1c5780601f106119f157610100808354040283529160200191611a1c565b820191906000526020600020905b8154815290600101906020018083116119ff57829003601f168201915b505050505090506000611a3a60408051602081019091526000815290565b90508051600003611a4c575092915050565b815115611a7e578082604051602001611a66929190612ff3565b60405160208183030381529060405292505050919050565b611a8784612488565b949350505050565b6000828152600b60205260409020600201546001600160a01b03163314611b0b5760405162461bcd60e51b815260206004820152602a60248201527f4f6e6c79206974656d206f776e65722063616e20706572666f726d20746869736044820152691037b832b930ba34b7b760b11b60648201526084016109d9565b6009543414611b2c5760405162461bcd60e51b81526004016109d990613022565b6000828152600b6020526040812060048101805460ff19169055600381018390556001810180546001600160a01b0319908116331790915560029091018054909116301790556008805491611b8083613066565b9091555050604080518281526060602082018190526008908201526714995b1a5cdd195960c21b6080820152428183015290513091339185916000805160206130d8833981519152919081900360a00190a461067c333084612210565b6001600160a01b03918216600090815260056020908152604080832093909416825291909152205460ff1690565b60075460609060008060015b838111611c58576000818152600c602052604090206006015460ff1615611c4657611c43600184612ed3565b92505b80611c5081612ea4565b915050611c17565b506000826001600160401b03811115611c7357611c73612af2565b604051908082528060200260200182016040528015611cac57816020015b611c99612862565b815260200190600190039081611c915790505b50905060015b848111610832576000818152600c602052604090206006015460ff1615611d75576000818152600c6020908152604091829020825160e0810184528154815260018201546001600160a01b03908116938201939093526002820154938101939093526003810154606084015260048101549091166080830152600581015460a0830152600681015460ff16151560c08301528351909190849086908110611d5b57611d5b612ebd565b6020908102919091010152611d71600185612ed3565b9350505b80611d7f81612ea4565b915050611cb2565b6001600160a01b0381166000908152600d60205260409020805460609190611dae90612e54565b80601f0160208091040260200160405190810160405280929190818152602001828054611dda90612e54565b8015611e275780601f10611dfc57610100808354040283529160200191611e27565b820191906000526020600020905b815481529060010190602001808311611e0a57829003601f168201915b50505050509050919050565b60006001600160e01b031982166380ac58cd60e01b1480611e6457506001600160e01b03198216635b5e139f60e01b145b806105b057506301ffc9a760e01b6001600160e01b03198316146105b0565b6000818152600260205260408120546001600160a01b0316806105b057604051637e27328960e01b8152600481018490526024016109d9565b610c2383838360016124fd565b6000828152600260205260408120546001600160a01b0390811690831615611ef657611ef6818486612603565b6001600160a01b03811615611f3457611f136000856000806124fd565b6001600160a01b038116600090815260036020526040902080546000190190555b6001600160a01b03851615611f63576001600160a01b0385166000908152600360205260409020805460010190555b60008481526002602052604080822080546001600160a01b0319166001600160a01b0389811691821790925591518793918516917fddf252ad1be2c89b69c2b068fc378daa952ba7f163c4a11628f55a4df523b3ef91a4949350505050565b6001600160a01b038216611fec57604051633250574960e11b8152600060048201526024016109d9565b6000611ffa83836000611ec9565b90506001600160a01b03811615610c23576040516339e3563760e11b8152600060048201526024016109d9565b600082815260066020526040902061203f8282612f34565b506040518281527ff8e1a15aba9398e019f0b49df1a4fde98ee17ae345cb5f6b5e2c27f5033e8ce79060200160405180910390a15050565b600081116120c75760405162461bcd60e51b815260206004820152601c60248201527f5072696365206d757374206265206174206c656173742031207765690000000060448201526064016109d9565b60095434146120e85760405162461bcd60e51b81526004016109d990613022565b6040805160a080820183528482523360208084018281523085870181815260608088018a815260006080808b018281528e8352600b8952918c90209a518b55955160018b0180546001600160a01b03199081166001600160a01b0393841617909155945160028c01805490961691161790935551600389015590516004909701805460ff191697151597909717909655865188815292830186905260069583019590955265131a5cdd195960d21b908201524294810194909452919285916000805160206130d8833981519152910160405180910390a46121ca333084612210565b604080513381523060208201529081018290526000606082015282907fb640004f1d14576d0c209e240cad0410e0d8c0c33a09375861fbadae2588a98d906080016113a7565b6001600160a01b03821661223a57604051633250574960e11b8152600060048201526024016109d9565b600061224883836000611ec9565b90506001600160a01b03811661227457604051637e27328960e01b8152600481018390526024016109d9565b836001600160a01b0316816001600160a01b031614610a3d576040516364283d7b60e01b81526001600160a01b03808616600483015260248201849052821660448201526064016109d9565b6001600160a01b0382166122f257604051630b61174360e31b81526001600160a01b03831660048201526024016109d9565b6001600160a01b03838116600081815260056020908152604080832094871680845294825291829020805460ff191686151590811790915591519182527f17307eab39ab6107e8899845ad3d59bd9653f200f220920489ca2b5937696c31910160405180910390a3505050565b6001600160a01b0383163b15610a3d57604051630a85bd0160e11b81526001600160a01b0384169063150b7a02906123a190339088908790879060040161307d565b6020604051808303816000875af19250505080156123dc575060408051601f3d908101601f191682019092526123d9918101906130ba565b60015b612445573d80801561240a576040519150601f19603f3d011682016040523d82523d6000602084013e61240f565b606091505b50805160000361243d57604051633250574960e11b81526001600160a01b03851660048201526024016109d9565b805181602001fd5b6001600160e01b03198116630a85bd0160e11b1461248157604051633250574960e11b81526001600160a01b03851660048201526024016109d9565b5050505050565b606061249382611e83565b5060006124ab60408051602081019091526000815290565b905060008151116124cb57604051806020016040528060008152506124f6565b806124d584612667565b6040516020016124e6929190612ff3565b6040516020818303038152906040525b9392505050565b808061251157506001600160a01b03821615155b156125d357600061252184611e83565b90506001600160a01b0383161580159061254d5750826001600160a01b0316816001600160a01b031614155b8015612560575061255e8184611bdd565b155b156125895760405163a9fbf51f60e01b81526001600160a01b03841660048201526024016109d9565b81156125d15783856001600160a01b0316826001600160a01b03167f8c5be1e5ebec7d5bd14f71427d1e84f3dd0314c0f7b2291e5b200ac8c7c3b92560405160405180910390a45b505b5050600090815260046020526040902080546001600160a01b0319166001600160a01b0392909216919091179055565b61260e8383836126f9565b610c23576001600160a01b03831661263c57604051637e27328960e01b8152600481018290526024016109d9565b60405163177e802f60e01b81526001600160a01b0383166004820152602481018290526044016109d9565b606060006126748361275c565b60010190506000816001600160401b0381111561269357612693612af2565b6040519080825280601f01601f1916602001820160405280156126bd576020820181803683370190505b5090508181016020015b600019016f181899199a1a9b1b9c1cb0b131b232b360811b600a86061a8153600a85049450846126c757509392505050565b60006001600160a01b03831615801590611a875750826001600160a01b0316846001600160a01b0316148061273357506127338484611bdd565b80611a875750506000908152600460205260409020546001600160a01b03908116911614919050565b60008072184f03e93ff9f4daa797ed6e38ed64bf6a1f0160401b831061279b5772184f03e93ff9f4daa797ed6e38ed64bf6a1f0160401b830492506040015b6d04ee2d6d415b85acef810000000083106127c7576d04ee2d6d415b85acef8100000000830492506020015b662386f26fc1000083106127e557662386f26fc10000830492506010015b6305f5e10083106127fd576305f5e100830492506008015b612710831061281157612710830492506004015b60648310612823576064830492506002015b600a83106105b05760010192915050565b6040805160a08101825260008082526020820181905291810182905260608101829052608081019190915290565b6040518060e001604052806000815260200160006001600160a01b03168152602001600081526020016000815260200160006001600160a01b03168152602001600081526020016000151581525090565b6001600160e01b0319811681146128c957600080fd5b50565b6000602082840312156128de57600080fd5b81356124f6816128b3565b60005b838110156129045781810151838201526020016128ec565b50506000910152565b600081518084526129258160208601602086016128e9565b601f01601f19169290920160200192915050565b6020815260006124f6602083018461290d565b60006020828403121561295e57600080fd5b5035919050565b80356001600160a01b038116811461297c57600080fd5b919050565b6000806040838503121561299457600080fd5b61299d83612965565b946020939093013593505050565b805182526020808201516001600160a01b039081169184019190915260408083015190911690830152606080820151908301526080908101511515910152565b6020808252825182820181905260009190848201906040850190845b81811015612a2d57612a1a8385516129ab565b9284019260a09290920191600101612a07565b50909695505050505050565b600080600060608486031215612a4e57600080fd5b612a5784612965565b9250612a6560208501612965565b9150604084013590509250925092565b600060208284031215612a8757600080fd5b6124f682612965565b80518252602081015160018060a01b0380821660208501526040830151604085015260608301516060850152806080840151166080850152505060a081015160a083015260c0810151151560c08301525050565b60e081016105b08284612a90565b634e487b7160e01b600052604160045260246000fd5b604051601f8201601f191681016001600160401b0381118282101715612b3057612b30612af2565b604052919050565b60006001600160401b03831115612b5157612b51612af2565b612b64601f8401601f1916602001612b08565b9050828152838383011115612b7857600080fd5b828260208301376000602084830101529392505050565b600082601f830112612ba057600080fd5b6124f683833560208501612b38565b60008060408385031215612bc257600080fd5b82356001600160401b03811115612bd857600080fd5b612be485828601612b8f565b95602094909401359450505050565b600080600060608486031215612c0857600080fd5b505081359360208301359350604090920135919050565b600060208284031215612c3157600080fd5b81356001600160401b03811115612c4757600080fd5b611a8784828501612b8f565b60008060408385031215612c6657600080fd5b612c6f83612965565b915060208301358015158114612c8457600080fd5b809150509250929050565b60a081016105b082846129ab565b60008060008060808587031215612cb357600080fd5b612cbc85612965565b9350612cca60208601612965565b92506040850135915060608501356001600160401b03811115612cec57600080fd5b8501601f81018713612cfd57600080fd5b612d0c87823560208401612b38565b91505092959194509250565b60006020808385031215612d2b57600080fd5b82356001600160401b0380821115612d4257600080fd5b818501915085601f830112612d5657600080fd5b813581811115612d6857612d68612af2565b8060051b9150612d79848301612b08565b8181529183018401918481019088841115612d9357600080fd5b938501935b83851015612db157843582529385019390850190612d98565b98975050505050505050565b60008060408385031215612dd057600080fd5b50508035926020909101359150565b60008060408385031215612df257600080fd5b612dfb83612965565b9150612e0960208401612965565b90509250929050565b6020808252825182820181905260009190848201906040850190845b81811015612a2d57612e41838551612a90565b9284019260e09290920191600101612e2e565b600181811c90821680612e6857607f821691505b602082108103612e8857634e487b7160e01b600052602260045260246000fd5b50919050565b634e487b7160e01b600052601160045260246000fd5b600060018201612eb657612eb6612e8e565b5060010190565b634e487b7160e01b600052603260045260246000fd5b808201808211156105b0576105b0612e8e565b601f821115610c2357600081815260208120601f850160051c81016020861015612f0d5750805b601f850160051c820191505b81811015612f2c57828155600101612f19565b505050505050565b81516001600160401b03811115612f4d57612f4d612af2565b612f6181612f5b8454612e54565b84612ee6565b602080601f831160018114612f965760008415612f7e5750858301515b600019600386901b1c1916600185901b178555612f2c565b600085815260208120601f198616915b82811015612fc557888601518255948401946001909101908401612fa6565b5085821015612fe35787850151600019600388901b60f8161c191681555b5050505050600190811b01905550565b600083516130058184602088016128e9565b8351908301906130198183602088016128e9565b01949350505050565b60208082526024908201527f5072696365206d75737420626520657175616c20746f206c697374696e6720706040820152637269636560e01b606082015260800190565b60008161307557613075612e8e565b506000190190565b6001600160a01b03858116825284166020820152604081018390526080606082018190526000906130b09083018461290d565b9695505050505050565b6000602082840312156130cc57600080fd5b81516124f6816128b356fe54bb174cca262bb16372db4ab0481576288a7b7294650357cc2ddc2848a5c77da2646970667358221220b0fd4fc4b34337340ac2eb67425a30b8c9b293a7d090af8695c30b0c47ff85e164736f6c63430008140033",
  "linkReferences": {},
  "deployedLinkReferences": {}
}