{
  "_format": "hh-sol-artifact-1",
  "contractName": "NFTMarketplace",
  "sourceName": "contracts/NFTMarketplace.sol",
  "abi": [
    {
      "inputs": [],
      "stateMutability": "nonpayable",
      "type": "constructor"
    },
    {
      "inputs": [
        {
          "internalType": "address",
          "name": "sender",
          "type": "address"
        },
        {
          "internalType": "uint256",
          "name": "tokenId",
          "type": "uint256"
        },
        {
          "internalType": "address",
          "name": "owner",
          "type": "address"
        }
      ],
      "name": "ERC721IncorrectOwner",
      "type": "error"
    },
    {
      "inputs": [
        {
          "internalType": "address",
          "name": "operator",
          "type": "address"
        },
        {
          "internalType": "uint256",
          "name": "tokenId",
          "type": "uint256"
        }
      ],
      "name": "ERC721InsufficientApproval",
      "type": "error"
    },
    {
      "inputs": [
        {
          "internalType": "address",
          "name": "approver",
          "type": "address"
        }
      ],
      "name": "ERC721InvalidApprover",
      "type": "error"
    },
    {
      "inputs": [
        {
          "internalType": "address",
          "name": "operator",
          "type": "address"
        }
      ],
      "name": "ERC721InvalidOperator",
      "type": "error"
    },
    {
      "inputs": [
        {
          "internalType": "address",
          "name": "owner",
          "type": "address"
        }
      ],
      "name": "ERC721InvalidOwner",
      "type": "error"
    },
    {
      "inputs": [
        {
          "internalType": "address",
          "name": "receiver",
          "type": "address"
        }
      ],
      "name": "ERC721InvalidReceiver",
      "type": "error"
    },
    {
      "inputs": [
        {
          "internalType": "address",
          "name": "sender",
          "type": "address"
        }
      ],
      "name": "ERC721InvalidSender",
      "type": "error"
    },
    {
      "inputs": [
        {
          "internalType": "uint256",
          "name": "tokenId",
          "type": "uint256"
        }
      ],
      "name": "ERC721NonexistentToken",
      "type": "error"
    },
    {
      "anonymous": false,
      "inputs": [
        {
          "indexed": true,
          "internalType": "address",
          "name": "owner",
          "type": "address"
        },
        {
          "indexed": true,
          "internalType": "address",
          "name": "approved",
          "type": "address"
        },
        {
          "indexed": true,
          "internalType": "uint256",
          "name": "tokenId",
          "type": "uint256"
        }
      ],
      "name": "Approval",
      "type": "event"
    },
    {
      "anonymous": false,
      "inputs": [
        {
          "indexed": true,
          "internalType": "address",
          "name": "owner",
          "type": "address"
        },
        {
          "indexed": true,
          "internalType": "address",
          "name": "operator",
          "type": "address"
        },
        {
          "indexed": false,
          "internalType": "bool",
          "name": "approved",
          "type": "bool"
        }
      ],
      "name": "ApprovalForAll",
      "type": "event"
    },
    {
      "anonymous": false,
      "inputs": [
        {
          "indexed": true,
          "internalType": "uint256",
          "name": "tokenId",
          "type": "uint256"
        },
        {
          "indexed": false,
          "internalType": "address",
          "name": "seller",
          "type": "address"
        },
        {
          "indexed": false,
          "internalType": "uint256",
          "name": "startingPrice",
          "type": "uint256"
        },
        {
          "indexed": false,
          "internalType": "uint256",
          "name": "endTime",
          "type": "uint256"
        }
      ],
      "name": "AuctionCreated",
      "type": "event"
    },
    {
      "anonymous": false,
      "inputs": [
        {
          "indexed": true,
          "internalType": "uint256",
          "name": "tokenId",
          "type": "uint256"
        },
        {
          "indexed": false,
          "internalType": "address",
          "name": "winner",
          "type": "address"
        },
        {
          "indexed": false,
          "internalType": "uint256",
          "name": "winningBid",
          "type": "uint256"
        }
      ],
      "name": "AuctionEnded",
      "type": "event"
    },
    {
      "anonymous": false,
      "inputs": [
        {
          "indexed": false,
          "internalType": "uint256",
          "name": "_fromTokenId",
          "type": "uint256"
        },
        {
          "indexed": false,
          "internalType": "uint256",
          "name": "_toTokenId",
          "type": "uint256"
        }
      ],
      "name": "BatchMetadataUpdate",
      "type": "event"
    },
    {
      "anonymous": false,
      "inputs": [
        {
          "indexed": true,
          "internalType": "uint256",
          "name": "tokenId",
          "type": "uint256"
        },
        {
          "indexed": false,
          "internalType": "address",
          "name": "bidder",
          "type": "address"
        },
        {
          "indexed": false,
          "internalType": "uint256",
          "name": "bidAmount",
          "type": "uint256"
        }
      ],
      "name": "BidPlaced",
      "type": "event"
    },
    {
      "anonymous": false,
      "inputs": [
        {
          "indexed": true,
          "internalType": "uint256",
          "name": "tokenId",
          "type": "uint256"
        },
        {
          "indexed": false,
          "internalType": "address",
          "name": "seller",
          "type": "address"
        },
        {
          "indexed": false,
          "internalType": "address",
          "name": "owner",
          "type": "address"
        },
        {
          "indexed": false,
          "internalType": "uint256",
          "name": "price",
          "type": "uint256"
        },
        {
          "indexed": false,
          "internalType": "bool",
          "name": "sold",
          "type": "bool"
        }
      ],
      "name": "MarketItemCreated",
      "type": "event"
    },
    {
      "anonymous": false,
      "inputs": [
        {
          "indexed": false,
          "internalType": "uint256",
          "name": "_tokenId",
          "type": "uint256"
        }
      ],
      "name": "MetadataUpdate",
      "type": "event"
    },
    {
      "anonymous": false,
      "inputs": [
        {
          "indexed": true,
          "internalType": "address",
          "name": "from",
          "type": "address"
        },
        {
          "indexed": true,
          "internalType": "address",
          "name": "to",
          "type": "address"
        },
        {
          "indexed": true,
          "internalType": "uint256",
          "name": "tokenId",
          "type": "uint256"
        }
      ],
      "name": "Transfer",
      "type": "event"
    },
    {
      "inputs": [
        {
          "internalType": "address",
          "name": "to",
          "type": "address"
        },
        {
          "internalType": "uint256",
          "name": "tokenId",
          "type": "uint256"
        }
      ],
      "name": "approve",
      "outputs": [],
      "stateMutability": "nonpayable",
      "type": "function"
    },
    {
      "inputs": [
        {
          "internalType": "address",
          "name": "owner",
          "type": "address"
        }
      ],
      "name": "balanceOf",
      "outputs": [
        {
          "internalType": "uint256",
          "name": "",
          "type": "uint256"
        }
      ],
      "stateMutability": "view",
      "type": "function"
    },
    {
      "inputs": [
        {
          "internalType": "uint256",
          "name": "tokenId",
          "type": "uint256"
        }
      ],
      "name": "createMarketSale",
      "outputs": [],
      "stateMutability": "payable",
      "type": "function"
    },
    {
      "inputs": [
        {
          "internalType": "string",
          "name": "tokenURI",
          "type": "string"
        },
        {
          "internalType": "uint256",
          "name": "price",
          "type": "uint256"
        }
      ],
      "name": "createToken",
      "outputs": [
        {
          "internalType": "uint256",
          "name": "",
          "type": "uint256"
        }
      ],
      "stateMutability": "payable",
      "type": "function"
    },
    {
      "inputs": [
        {
          "internalType": "uint256",
          "name": "tokenId",
          "type": "uint256"
        }
      ],
      "name": "endAuction",
      "outputs": [],
      "stateMutability": "nonpayable",
      "type": "function"
    },
    {
      "inputs": [],
      "name": "fetchActiveAuctions",
      "outputs": [
        {
          "components": [
            {
              "internalType": "uint256",
              "name": "tokenId",
              "type": "uint256"
            },
            {
              "internalType": "address payable",
              "name": "seller",
              "type": "address"
            },
            {
              "internalType": "uint256",
              "name": "startingPrice",
              "type": "uint256"
            },
            {
              "internalType": "uint256",
              "name": "highestBid",
              "type": "uint256"
            },
            {
              "internalType": "address payable",
              "name": "highestBidder",
              "type": "address"
            },
            {
              "internalType": "uint256",
              "name": "endTime",
              "type": "uint256"
            },
            {
              "internalType": "bool",
              "name": "active",
              "type": "bool"
            }
          ],
          "internalType": "struct NFTMarketplace.Auction[]",
          "name": "",
          "type": "tuple[]"
        }
      ],
      "stateMutability": "view",
      "type": "function"
    },
    {
      "inputs": [
        {
          "internalType": "uint256",
          "name": "tokenId",
          "type": "uint256"
        }
      ],
      "name": "fetchAuction",
      "outputs": [
        {
          "components": [
            {
              "internalType": "uint256",
              "name": "tokenId",
              "type": "uint256"
            },
            {
              "internalType": "address payable",
              "name": "seller",
              "type": "address"
            },
            {
              "internalType": "uint256",
              "name": "startingPrice",
              "type": "uint256"
            },
            {
              "internalType": "uint256",
              "name": "highestBid",
              "type": "uint256"
            },
            {
              "internalType": "address payable",
              "name": "highestBidder",
              "type": "address"
            },
            {
              "internalType": "uint256",
              "name": "endTime",
              "type": "uint256"
            },
            {
              "internalType": "bool",
              "name": "active",
              "type": "bool"
            }
          ],
          "internalType": "struct NFTMarketplace.Auction",
          "name": "",
          "type": "tuple"
        }
      ],
      "stateMutability": "view",
      "type": "function"
    },
    {
      "inputs": [],
      "name": "fetchItemsListed",
      "outputs": [
        {
          "components": [
            {
              "internalType": "uint256",
              "name": "tokenId",
              "type": "uint256"
            },
            {
              "internalType": "address payable",
              "name": "seller",
              "type": "address"
            },
            {
              "internalType": "address payable",
              "name": "owner",
              "type": "address"
            },
            {
              "internalType": "uint256",
              "name": "price",
              "type": "uint256"
            },
            {
              "internalType": "bool",
              "name": "sold",
              "type": "bool"
            }
          ],
          "internalType": "struct NFTMarketplace.MarketItem[]",
          "name": "",
          "type": "tuple[]"
        }
      ],
      "stateMutability": "view",
      "type": "function"
    },
    {
      "inputs": [
        {
          "internalType": "uint256",
          "name": "tokenId",
          "type": "uint256"
        }
      ],
      "name": "fetchMarketItemById",
      "outputs": [
        {
          "components": [
            {
              "internalType": "uint256",
              "name": "tokenId",
              "type": "uint256"
            },
            {
              "internalType": "address payable",
              "name": "seller",
              "type": "address"
            },
            {
              "internalType": "address payable",
              "name": "owner",
              "type": "address"
            },
            {
              "internalType": "uint256",
              "name": "price",
              "type": "uint256"
            },
            {
              "internalType": "bool",
              "name": "sold",
              "type": "bool"
            }
          ],
          "internalType": "struct NFTMarketplace.MarketItem",
          "name": "",
          "type": "tuple"
        }
      ],
      "stateMutability": "view",
      "type": "function"
    },
    {
      "inputs": [],
      "name": "fetchMarketItems",
      "outputs": [
        {
          "components": [
            {
              "internalType": "uint256",
              "name": "tokenId",
              "type": "uint256"
            },
            {
              "internalType": "address payable",
              "name": "seller",
              "type": "address"
            },
            {
              "internalType": "address payable",
              "name": "owner",
              "type": "address"
            },
            {
              "internalType": "uint256",
              "name": "price",
              "type": "uint256"
            },
            {
              "internalType": "bool",
              "name": "sold",
              "type": "bool"
            }
          ],
          "internalType": "struct NFTMarketplace.MarketItem[]",
          "name": "",
          "type": "tuple[]"
        }
      ],
      "stateMutability": "view",
      "type": "function"
    },
    {
      "inputs": [
        {
          "internalType": "uint256[]",
          "name": "tokenIds",
          "type": "uint256[]"
        }
      ],
      "name": "fetchMarketItemsByIds",
      "outputs": [
        {
          "components": [
            {
              "internalType": "uint256",
              "name": "tokenId",
              "type": "uint256"
            },
            {
              "internalType": "address payable",
              "name": "seller",
              "type": "address"
            },
            {
              "internalType": "address payable",
              "name": "owner",
              "type": "address"
            },
            {
              "internalType": "uint256",
              "name": "price",
              "type": "uint256"
            },
            {
              "internalType": "bool",
              "name": "sold",
              "type": "bool"
            }
          ],
          "internalType": "struct NFTMarketplace.MarketItem[]",
          "name": "",
          "type": "tuple[]"
        }
      ],
      "stateMutability": "view",
      "type": "function"
    },
    {
      "inputs": [],
      "name": "fetchMyNFTs",
      "outputs": [
        {
          "components": [
            {
              "internalType": "uint256",
              "name": "tokenId",
              "type": "uint256"
            },
            {
              "internalType": "address payable",
              "name": "seller",
              "type": "address"
            },
            {
              "internalType": "address payable",
              "name": "owner",
              "type": "address"
            },
            {
              "internalType": "uint256",
              "name": "price",
              "type": "uint256"
            },
            {
              "internalType": "bool",
              "name": "sold",
              "type": "bool"
            }
          ],
          "internalType": "struct NFTMarketplace.MarketItem[]",
          "name": "",
          "type": "tuple[]"
        }
      ],
      "stateMutability": "view",
      "type": "function"
    },
    {
      "inputs": [
        {
          "internalType": "address",
          "name": "ownerAddress",
          "type": "address"
        }
      ],
      "name": "fetchNFTsByOwner",
      "outputs": [
        {
          "components": [
            {
              "internalType": "uint256",
              "name": "tokenId",
              "type": "uint256"
            },
            {
              "internalType": "address payable",
              "name": "seller",
              "type": "address"
            },
            {
              "internalType": "address payable",
              "name": "owner",
              "type": "address"
            },
            {
              "internalType": "uint256",
              "name": "price",
              "type": "uint256"
            },
            {
              "internalType": "bool",
              "name": "sold",
              "type": "bool"
            }
          ],
          "internalType": "struct NFTMarketplace.MarketItem[]",
          "name": "",
          "type": "tuple[]"
        }
      ],
      "stateMutability": "view",
      "type": "function"
    },
    {
      "inputs": [
        {
          "internalType": "address",
          "name": "sellerAddress",
          "type": "address"
        }
      ],
      "name": "fetchNFTsListedBySeller",
      "outputs": [
        {
          "components": [
            {
              "internalType": "uint256",
              "name": "tokenId",
              "type": "uint256"
            },
            {
              "internalType": "address payable",
              "name": "seller",
              "type": "address"
            },
            {
              "internalType": "address payable",
              "name": "owner",
              "type": "address"
            },
            {
              "internalType": "uint256",
              "name": "price",
              "type": "uint256"
            },
            {
              "internalType": "bool",
              "name": "sold",
              "type": "bool"
            }
          ],
          "internalType": "struct NFTMarketplace.MarketItem[]",
          "name": "",
          "type": "tuple[]"
        }
      ],
      "stateMutability": "view",
      "type": "function"
    },
    {
      "inputs": [
        {
          "internalType": "uint256",
          "name": "tokenId",
          "type": "uint256"
        }
      ],
      "name": "getApproved",
      "outputs": [
        {
          "internalType": "address",
          "name": "",
          "type": "address"
        }
      ],
      "stateMutability": "view",
      "type": "function"
    },
    {
      "inputs": [],
      "name": "getListingPrice",
      "outputs": [
        {
          "internalType": "uint256",
          "name": "",
          "type": "uint256"
        }
      ],
      "stateMutability": "view",
      "type": "function"
    },
    {
      "inputs": [
        {
          "internalType": "address",
          "name": "owner",
          "type": "address"
        },
        {
          "internalType": "address",
          "name": "operator",
          "type": "address"
        }
      ],
      "name": "isApprovedForAll",
      "outputs": [
        {
          "internalType": "bool",
          "name": "",
          "type": "bool"
        }
      ],
      "stateMutability": "view",
      "type": "function"
    },
    {
      "inputs": [],
      "name": "name",
      "outputs": [
        {
          "internalType": "string",
          "name": "",
          "type": "string"
        }
      ],
      "stateMutability": "view",
      "type": "function"
    },
    {
      "inputs": [
        {
          "internalType": "uint256",
          "name": "tokenId",
          "type": "uint256"
        }
      ],
      "name": "ownerOf",
      "outputs": [
        {
          "internalType": "address",
          "name": "",
          "type": "address"
        }
      ],
      "stateMutability": "view",
      "type": "function"
    },
    {
      "inputs": [
        {
          "internalType": "uint256",
          "name": "tokenId",
          "type": "uint256"
        }
      ],
      "name": "placeBid",
      "outputs": [],
      "stateMutability": "payable",
      "type": "function"
    },
    {
      "inputs": [
        {
          "internalType": "uint256",
          "name": "tokenId",
          "type": "uint256"
        },
        {
          "internalType": "uint256",
          "name": "price",
          "type": "uint256"
        }
      ],
      "name": "resellToken",
      "outputs": [],
      "stateMutability": "payable",
      "type": "function"
    },
    {
      "inputs": [
        {
          "internalType": "address",
          "name": "from",
          "type": "address"
        },
        {
          "internalType": "address",
          "name": "to",
          "type": "address"
        },
        {
          "internalType": "uint256",
          "name": "tokenId",
          "type": "uint256"
        }
      ],
      "name": "safeTransferFrom",
      "outputs": [],
      "stateMutability": "nonpayable",
      "type": "function"
    },
    {
      "inputs": [
        {
          "internalType": "address",
          "name": "from",
          "type": "address"
        },
        {
          "internalType": "address",
          "name": "to",
          "type": "address"
        },
        {
          "internalType": "uint256",
          "name": "tokenId",
          "type": "uint256"
        },
        {
          "internalType": "bytes",
          "name": "data",
          "type": "bytes"
        }
      ],
      "name": "safeTransferFrom",
      "outputs": [],
      "stateMutability": "nonpayable",
      "type": "function"
    },
    {
      "inputs": [
        {
          "internalType": "address",
          "name": "operator",
          "type": "address"
        },
        {
          "internalType": "bool",
          "name": "approved",
          "type": "bool"
        }
      ],
      "name": "setApprovalForAll",
      "outputs": [],
      "stateMutability": "nonpayable",
      "type": "function"
    },
    {
      "inputs": [
        {
          "internalType": "uint256",
          "name": "tokenId",
          "type": "uint256"
        },
        {
          "internalType": "uint256",
          "name": "startingPrice",
          "type": "uint256"
        },
        {
          "internalType": "uint256",
          "name": "duration",
          "type": "uint256"
        }
      ],
      "name": "startAuction",
      "outputs": [],
      "stateMutability": "nonpayable",
      "type": "function"
    },
    {
      "inputs": [
        {
          "internalType": "bytes4",
          "name": "interfaceId",
          "type": "bytes4"
        }
      ],
      "name": "supportsInterface",
      "outputs": [
        {
          "internalType": "bool",
          "name": "",
          "type": "bool"
        }
      ],
      "stateMutability": "view",
      "type": "function"
    },
    {
      "inputs": [],
      "name": "symbol",
      "outputs": [
        {
          "internalType": "string",
          "name": "",
          "type": "string"
        }
      ],
      "stateMutability": "view",
      "type": "function"
    },
    {
      "inputs": [
        {
          "internalType": "uint256",
          "name": "tokenId",
          "type": "uint256"
        }
      ],
      "name": "tokenURI",
      "outputs": [
        {
          "internalType": "string",
          "name": "",
          "type": "string"
        }
      ],
      "stateMutability": "view",
      "type": "function"
    },
    {
      "inputs": [
        {
          "internalType": "address",
          "name": "from",
          "type": "address"
        },
        {
          "internalType": "address",
          "name": "to",
          "type": "address"
        },
        {
          "internalType": "uint256",
          "name": "tokenId",
          "type": "uint256"
        }
      ],
      "name": "transferFrom",
      "outputs": [],
      "stateMutability": "nonpayable",
      "type": "function"
    },
    {
      "inputs": [
        {
          "internalType": "uint256",
          "name": "_listingPrice",
          "type": "uint256"
        }
      ],
      "name": "updateListingPrice",
      "outputs": [],
      "stateMutability": "payable",
      "type": "function"
    }
  ],
  "bytecode": "0x60806040526608e1bc9bf040006009553480156200001c57600080fd5b506040518060400160405280601081526020016f4d657461766572736520546f6b656e7360801b8152506040518060400160405280600881526020016726a2aa2a27a5a2a760c11b815250816000908162000078919062000147565b50600162000087828262000147565b5050600a80546001600160a01b031916331790555062000213565b634e487b7160e01b600052604160045260246000fd5b600181811c90821680620000cd57607f821691505b602082108103620000ee57634e487b7160e01b600052602260045260246000fd5b50919050565b601f8211156200014257600081815260208120601f850160051c810160208610156200011d5750805b601f850160051c820191505b818110156200013e5782815560010162000129565b5050505b505050565b81516001600160401b03811115620001635762000163620000a2565b6200017b81620001748454620000b8565b84620000f4565b602080601f831160018114620001b357600084156200019a5750858301515b600019600386901b1c1916600185901b1785556200013e565b600085815260208120601f198616915b82811015620001e457888601518255948401946001909101908401620001c3565b5085821015620002035787850151600019600388901b60f8161c191681555b5050505050600190811b01905550565b6130c580620002236000396000f3fe6080604052600436106101cd5760003560e01c80637be43d1e116100f7578063b88d4fde11610095578063c87b56dd11610064578063c87b56dd14610509578063e219fc7514610529578063e985e9c51461053c578063f1d9e5451461055c57600080fd5b8063b88d4fde14610496578063b9a2de3a146104b6578063be9af536146104d6578063c5e71777146104e957600080fd5b80639979ef45116100d15780639979ef4514610423578063a22cb46514610436578063ad1477a914610456578063ae677aa31461048357600080fd5b80637be43d1e146103ce57806391e078bb146103ee57806395d89b411461040e57600080fd5b806323b872dd1161016f5780636352211e1161013e5780636352211e1461034e57806370a082311461036e5780637195e1241461038e57806372b3b620146103bb57600080fd5b806323b872dd146102d957806341c5f499146102f957806342842e0e1461031957806345f8fa801461033957600080fd5b8063095ea7b3116101ab578063095ea7b3146102615780630f08efe01461028357806312e85585146102a5578063202e3740146102c457600080fd5b806301ffc9a7146101d257806306fdde0314610207578063081812fc14610229575b600080fd5b3480156101de57600080fd5b506101f26101ed3660046128b1565b61057e565b60405190151581526020015b60405180910390f35b34801561021357600080fd5b5061021c6105a9565b6040516101fe919061291e565b34801561023557600080fd5b50610249610244366004612931565b61063b565b6040516001600160a01b0390911681526020016101fe565b34801561026d57600080fd5b5061028161027c366004612966565b610664565b005b34801561028f57600080fd5b50610298610673565b6040516101fe91906129d0565b3480156102b157600080fd5b506009545b6040519081526020016101fe565b3480156102d057600080fd5b506102986107f0565b3480156102e557600080fd5b506102816102f4366004612a1e565b610999565b34801561030557600080fd5b50610298610314366004612a5a565b610a29565b34801561032557600080fd5b50610281610334366004612a1e565b610bee565b34801561034557600080fd5b50610298610c0e565b34801561035a57600080fd5b50610249610369366004612931565b610db7565b34801561037a57600080fd5b506102b6610389366004612a5a565b610dc2565b34801561039a57600080fd5b506103ae6103a9366004612931565b610e0a565b6040516101fe9190612ac9565b6102b66103c9366004612b74565b610ed0565b3480156103da57600080fd5b506102986103e9366004612a5a565b610f0e565b3480156103fa57600080fd5b50610281610409366004612bcc565b611129565b34801561041a57600080fd5b5061021c61131a565b610281610431366004612931565b611329565b34801561044257600080fd5b50610281610451366004612bf8565b6114bd565b34801561046257600080fd5b50610476610471366004612931565b6114c8565b6040516101fe9190612c34565b610281610491366004612931565b611532565b3480156104a257600080fd5b506102816104b1366004612c42565b611623565b3480156104c257600080fd5b506102816104d1366004612931565b61163a565b6102816104e4366004612931565b611820565b3480156104f557600080fd5b50610298610504366004612cbd565b61198a565b34801561051557600080fd5b5061021c610524366004612931565b611aa7565b610281610537366004612d62565b611bb8565b34801561054857600080fd5b506101f2610557366004612d84565b611cb9565b34801561056857600080fd5b50610571611ce7565b6040516101fe9190612db7565b60006001600160e01b03198216632483248360e11b14806105a357506105a382611e63565b92915050565b6060600080546105b890612df9565b80601f01602080910402602001604051908101604052809291908181526020018280546105e490612df9565b80156106315780601f1061060657610100808354040283529160200191610631565b820191906000526020600020905b81548152906001019060200180831161061457829003601f168201915b5050505050905090565b600061064682611eb3565b506000828152600460205260409020546001600160a01b03166105a3565b61066f828233611eec565b5050565b60606000600754905060006007546008541161069e576008546007546106999190612e49565b6106a1565b60005b9050600080826001600160401b038111156106be576106be612ad7565b6040519080825280602002602001820160405280156106f757816020015b6106e4612819565b8152602001906001900390816106dc5790505b50905060005b848110156107e75730600b6000610715846001612e5c565b81526020810191909152604001600020600201546001600160a01b0316036107d5576000610744826001612e5c565b6000818152600b6020908152604091829020825160a0810184528154815260018201546001600160a01b039081169382019390935260028201549092169282019290925260038201546060820152600482015460ff1615156080820152855192935090918590879081106107ba576107ba612e6f565b60209081029190910101526107d0600186612e5c565b945050505b806107df81612e85565b9150506106fd565b50949350505050565b600754606090600080805b838110156108555733600b6000610813846001612e5c565b81526020810191909152604001600020600201546001600160a01b03160361084357610840600184612e5c565b92505b8061084d81612e85565b9150506107fb565b506000826001600160401b0381111561087057610870612ad7565b6040519080825280602002602001820160405280156108a957816020015b610896612819565b81526020019060019003908161088e5790505b50905060005b848110156107e75733600b60006108c7846001612e5c565b81526020810191909152604001600020600201546001600160a01b0316036109875760006108f6826001612e5c565b6000818152600b6020908152604091829020825160a0810184528154815260018201546001600160a01b039081169382019390935260028201549092169282019290925260038201546060820152600482015460ff16151560808201528551929350909185908790811061096c5761096c612e6f565b6020908102919091010152610982600186612e5c565b945050505b8061099181612e85565b9150506108af565b6001600160a01b0382166109c857604051633250574960e11b8152600060048201526024015b60405180910390fd5b60006109d5838333611ef9565b9050836001600160a01b0316816001600160a01b031614610a23576040516364283d7b60e01b81526001600160a01b03808616600483015260248201849052821660448201526064016109bf565b50505050565b600754606090600080805b83811015610a97576001600160a01b038616600b6000610a55846001612e5c565b81526020810191909152604001600020600201546001600160a01b031603610a8557610a82600184612e5c565b92505b80610a8f81612e85565b915050610a34565b506000826001600160401b03811115610ab257610ab2612ad7565b604051908082528060200260200182016040528015610aeb57816020015b610ad8612819565b815260200190600190039081610ad05790505b50905060005b84811015610be4576001600160a01b038716600b6000610b12846001612e5c565b81526020810191909152604001600020600201546001600160a01b031603610bd2576000610b41826001612e5c565b6000818152600b6020908152604091829020825160a0810184528154815260018201546001600160a01b039081169382019390935260028201549092169282019290925260038201546060820152600482015460ff161515608082015285519293509091859087908110610bb757610bb7612e6f565b6020908102919091010152610bcd600186612e5c565b945050505b80610bdc81612e85565b915050610af1565b5095945050505050565b610c0983838360405180602001604052806000815250611623565b505050565b600754606090600080805b83811015610c735733600b6000610c31846001612e5c565b81526020810191909152604001600020600101546001600160a01b031603610c6157610c5e600184612e5c565b92505b80610c6b81612e85565b915050610c19565b506000826001600160401b03811115610c8e57610c8e612ad7565b604051908082528060200260200182016040528015610cc757816020015b610cb4612819565b815260200190600190039081610cac5790505b50905060005b848110156107e75733600b6000610ce5846001612e5c565b81526020810191909152604001600020600101546001600160a01b031603610da5576000610d14826001612e5c565b6000818152600b6020908152604091829020825160a0810184528154815260018201546001600160a01b039081169382019390935260028201549092169282019290925260038201546060820152600482015460ff161515608082015285519293509091859087908110610d8a57610d8a612e6f565b6020908102919091010152610da0600186612e5c565b945050505b80610daf81612e85565b915050610ccd565b60006105a382611eb3565b60006001600160a01b038216610dee576040516322718ad960e21b8152600060048201526024016109bf565b506001600160a01b031660009081526003602052604090205490565b610e12612847565b6000828152600c6020908152604091829020825160e0810184528154815260018201546001600160a01b03908116938201939093526002820154938101939093526003810154606084015260048101549091166080830152600581015460a08301526006015460ff16151560c082018190526105a35760405162461bcd60e51b815260206004820152601a60248201527f41756374696f6e20656e646564206f72206e6f7420657869737400000000000060448201526064016109bf565b6007805460009182610ee183612e85565b9091555050600754610ef33382611ff2565b610efd8185612057565b610f0781846120a7565b9392505050565b600754606090600080805b83811015610fac576001600160a01b038616600b6000610f3a846001612e5c565b81526020810191909152604001600020600101546001600160a01b0316148015610f875750600b6000610f6e836001612e5c565b815260208101919091526040016000206004015460ff16155b15610f9a57610f97600184612e5c565b92505b80610fa481612e85565b915050610f19565b506000826001600160401b03811115610fc757610fc7612ad7565b60405190808252806020026020018201604052801561100057816020015b610fed612819565b815260200190600190039081610fe55790505b50905060005b84811015610be4576001600160a01b038716600b6000611027846001612e5c565b81526020810191909152604001600020600101546001600160a01b03161480156110745750600b600061105b836001612e5c565b815260208101919091526040016000206004015460ff16155b15611117576000611086826001612e5c565b6000818152600b6020908152604091829020825160a0810184528154815260018201546001600160a01b039081169382019390935260028201549092169282019290925260038201546060820152600482015460ff1615156080820152855192935090918590879081106110fc576110fc612e6f565b6020908102919091010152611112600186612e5c565b945050505b8061112181612e85565b915050611006565b6000838152600b60205260409020600201546001600160a01b031633146111925760405162461bcd60e51b815260206004820152601c60248201527f4f6e6c79206f776e65722063616e2073746172742061756374696f6e0000000060448201526064016109bf565b6000838152600b602052604090206004015460ff1615156001146111ef5760405162461bcd60e51b8152602060048201526014602482015273125d195b481a5cc8185b1c9958591e481cdbdb1960621b60448201526064016109bf565b6040805160e081018252848152336020820152908101839052600060608201819052608082015260a081016112248342612e5c565b8152600160209182018190526000868152600c8352604090819020845181559284015191830180546001600160a01b039384166001600160a01b03199182161790915590840151600284015560608401516003840155608084015160048401805491909316911617905560a0820151600582015560c0909101516006909101805491151560ff199092169190911790556112bf3330856121f6565b827fc9050d42180a61cb0d9ebb8ad118b62fe6eab12cf12ff752c4a0cc7da9ddf62733846112ed8542612e5c565b604080516001600160a01b03909416845260208401929092529082015260600160405180910390a2505050565b6060600180546105b890612df9565b6000818152600c60205260409020600681015460ff1661137b5760405162461bcd60e51b815260206004820152600d60248201526c105d58dd1a5bdb88195b991959609a1b60448201526064016109bf565b806005015442106113c05760405162461bcd60e51b815260206004820152600f60248201526e105d58dd1a5bdb88195e1c1a5c9959608a1b60448201526064016109bf565b806003015434116114085760405162461bcd60e51b815260206004820152601260248201527142696420616d6f756e7420746f6f206c6f7760701b60448201526064016109bf565b60048101546001600160a01b03161561145d57600481015460038201546040516001600160a01b039092169181156108fc0291906000818181858888f1935050505015801561145b573d6000803e3d6000fd5b505b34600382018190556004820180546001600160a01b0319163390811790915560408051918252602082019290925283917f0e54eff26401bf69b81b26f60bd85ef47f5d85275c1d268d84f68d6897431c4791015b60405180910390a25050565b61066f3383836122a6565b6114d0612819565b506000908152600b6020908152604091829020825160a0810184528154815260018201546001600160a01b03908116938201939093526002820154909216928201929092526003820154606082015260049091015460ff161515608082015290565b600a546001600160a01b031633146115ab5760405162461bcd60e51b815260206004820152603660248201527f6f6e6c79206f776e6572206f6620746865206d61726b6574706c6163652063616044820152756e206368616e6765206c697374696e6720707269636560501b60648201526084016109bf565b600a546001600160a01b0316331461161e5760405162461bcd60e51b815260206004820152603060248201527f4f6e6c79206d61726b6574706c616365206f776e65722063616e20757064617460448201526f32903634b9ba34b73390383934b1b29760811b60648201526084016109bf565b600955565b61162e848484610999565b610a2384848484612345565b6000818152600c60205260409020600681015460ff1661169c5760405162461bcd60e51b815260206004820152601a60248201527f41756374696f6e20656e646564206f72206e6f7420657869737400000000000060448201526064016109bf565b80600501544210156116e95760405162461bcd60e51b8152602060048201526016602482015275105d5d18dd1a5bdb881b9bdd081e595d08195b99195960521b60448201526064016109bf565b60068101805460ff1916905560048101546001600160a01b031615611806576004808201546000848152600b602052604081206002810180546001600160a01b0319166001600160a01b03909416939093179092559101805460ff19166001179055600880549161175983612e85565b909155505060048101546117789030906001600160a01b0316846121f6565b600181015460038201546040516001600160a01b039092169181156108fc0291906000818181858888f193505050501580156117b8573d6000803e3d6000fd5b5060048101546003820154604080516001600160a01b039093168352602083019190915283917fd2aa34a4fdbbc6dff6a3e56f46e0f3ae2a31d7785ff3487aa5c95c642acea50191016114b1565b600181015461066f9030906001600160a01b0316846121f6565b6000818152600b6020526040902060038101546001909101546001600160a01b03163482146118b9576040805162461bcd60e51b81526020600482015260248101919091527f506c65617365207375626d6974207468652061736b696e67207072696365206960448201527f6e206f7264657220746f20636f6d706c6574652074686520707572636861736560648201526084016109bf565b6000838152600b602052604081206002810180546001600160a01b0319908116331790915560048201805460ff1916600190811790915590910180549091169055600880549161190883612e85565b91905055506119183033856121f6565b600a546009546040516001600160a01b039092169181156108fc0291906000818181858888f19350505050158015611954573d6000803e3d6000fd5b506040516001600160a01b038216903480156108fc02916000818181858888f19350505050158015610a23573d6000803e3d6000fd5b80516060906000816001600160401b038111156119a9576119a9612ad7565b6040519080825280602002602001820160405280156119e257816020015b6119cf612819565b8152602001906001900390816119c75790505b50905060005b82811015611a9f576000858281518110611a0457611a04612e6f565b6020908102919091018101516000818152600b8352604090819020815160a0810183528154815260018201546001600160a01b0390811695820195909552600282015490941691840191909152600381015460608401526004015460ff16151560808301528451909250849084908110611a8057611a80612e6f565b6020026020010181905250508080611a9790612e85565b9150506119e8565b509392505050565b6060611ab282611eb3565b5060008281526006602052604081208054611acc90612df9565b80601f0160208091040260200160405190810160405280929190818152602001828054611af890612df9565b8015611b455780601f10611b1a57610100808354040283529160200191611b45565b820191906000526020600020905b815481529060010190602001808311611b2857829003601f168201915b505050505090506000611b6360408051602081019091526000815290565b90508051600003611b75575092915050565b815115611ba7578082604051602001611b8f929190612e9e565b60405160208183030381529060405292505050919050565b611bb08461246e565b949350505050565b6000828152600b60205260409020600201546001600160a01b03163314611c345760405162461bcd60e51b815260206004820152602a60248201527f4f6e6c79206974656d206f776e65722063616e20706572666f726d20746869736044820152691037b832b930ba34b7b760b11b60648201526084016109bf565b6009543414611c555760405162461bcd60e51b81526004016109bf90612ecd565b6000828152600b6020526040812060048101805460ff19169055600381018390556001810180546001600160a01b0319908116331790915560029091018054909116301790556008805491611ca983612f11565b919050555061066f3330846121f6565b6001600160a01b03918216600090815260056020908152604080832093909416825291909152205460ff1690565b60075460609060008060015b838111611d34576000818152600c602052604090206006015460ff1615611d2257611d1f600184612e5c565b92505b80611d2c81612e85565b915050611cf3565b506000826001600160401b03811115611d4f57611d4f612ad7565b604051908082528060200260200182016040528015611d8857816020015b611d75612847565b815260200190600190039081611d6d5790505b50905060015b8481116107e7576000818152600c602052604090206006015460ff1615611e51576000818152600c6020908152604091829020825160e0810184528154815260018201546001600160a01b03908116938201939093526002820154938101939093526003810154606084015260048101549091166080830152600581015460a0830152600681015460ff16151560c08301528351909190849086908110611e3757611e37612e6f565b6020908102919091010152611e4d600185612e5c565b9350505b80611e5b81612e85565b915050611d8e565b60006001600160e01b031982166380ac58cd60e01b1480611e9457506001600160e01b03198216635b5e139f60e01b145b806105a357506301ffc9a760e01b6001600160e01b03198316146105a3565b6000818152600260205260408120546001600160a01b0316806105a357604051637e27328960e01b8152600481018490526024016109bf565b610c0983838360016124e2565b6000828152600260205260408120546001600160a01b0390811690831615611f2657611f268184866125e8565b6001600160a01b03811615611f6457611f436000856000806124e2565b6001600160a01b038116600090815260036020526040902080546000190190555b6001600160a01b03851615611f93576001600160a01b0385166000908152600360205260409020805460010190555b60008481526002602052604080822080546001600160a01b0319166001600160a01b0389811691821790925591518793918516917fddf252ad1be2c89b69c2b068fc378daa952ba7f163c4a11628f55a4df523b3ef91a4949350505050565b6001600160a01b03821661201c57604051633250574960e11b8152600060048201526024016109bf565b600061202a83836000611ef9565b90506001600160a01b03811615610c09576040516339e3563760e11b8152600060048201526024016109bf565b600082815260066020526040902061206f8282612f76565b506040518281527ff8e1a15aba9398e019f0b49df1a4fde98ee17ae345cb5f6b5e2c27f5033e8ce79060200160405180910390a15050565b600081116120f75760405162461bcd60e51b815260206004820152601c60248201527f5072696365206d757374206265206174206c656173742031207765690000000060448201526064016109bf565b60095434146121185760405162461bcd60e51b81526004016109bf90612ecd565b6040805160a08101825283815233602080830182815230848601818152606086018881526000608088018181528b8252600b909652979097209551865591516001860180546001600160a01b03199081166001600160a01b0393841617909155925160028701805490941691161790915593516003840155516004909201805460ff1916921515929092179091556121b091846121f6565b604080513381523060208201529081018290526000606082015282907fb640004f1d14576d0c209e240cad0410e0d8c0c33a09375861fbadae2588a98d906080016114b1565b6001600160a01b03821661222057604051633250574960e11b8152600060048201526024016109bf565b600061222e83836000611ef9565b90506001600160a01b03811661225a57604051637e27328960e01b8152600481018390526024016109bf565b836001600160a01b0316816001600160a01b031614610a23576040516364283d7b60e01b81526001600160a01b03808616600483015260248201849052821660448201526064016109bf565b6001600160a01b0382166122d857604051630b61174360e31b81526001600160a01b03831660048201526024016109bf565b6001600160a01b03838116600081815260056020908152604080832094871680845294825291829020805460ff191686151590811790915591519182527f17307eab39ab6107e8899845ad3d59bd9653f200f220920489ca2b5937696c31910160405180910390a3505050565b6001600160a01b0383163b15610a2357604051630a85bd0160e11b81526001600160a01b0384169063150b7a0290612387903390889087908790600401613035565b6020604051808303816000875af19250505080156123c2575060408051601f3d908101601f191682019092526123bf91810190613072565b60015b61242b573d8080156123f0576040519150601f19603f3d011682016040523d82523d6000602084013e6123f5565b606091505b50805160000361242357604051633250574960e11b81526001600160a01b03851660048201526024016109bf565b805181602001fd5b6001600160e01b03198116630a85bd0160e11b1461246757604051633250574960e11b81526001600160a01b03851660048201526024016109bf565b5050505050565b606061247982611eb3565b50600061249160408051602081019091526000815290565b905060008151116124b15760405180602001604052806000815250610f07565b806124bb8461264c565b6040516020016124cc929190612e9e565b6040516020818303038152906040529392505050565b80806124f657506001600160a01b03821615155b156125b857600061250684611eb3565b90506001600160a01b038316158015906125325750826001600160a01b0316816001600160a01b031614155b801561254557506125438184611cb9565b155b1561256e5760405163a9fbf51f60e01b81526001600160a01b03841660048201526024016109bf565b81156125b65783856001600160a01b0316826001600160a01b03167f8c5be1e5ebec7d5bd14f71427d1e84f3dd0314c0f7b2291e5b200ac8c7c3b92560405160405180910390a45b505b5050600090815260046020526040902080546001600160a01b0319166001600160a01b0392909216919091179055565b6125f38383836126de565b610c09576001600160a01b03831661262157604051637e27328960e01b8152600481018290526024016109bf565b60405163177e802f60e01b81526001600160a01b0383166004820152602481018290526044016109bf565b6060600061265983612741565b60010190506000816001600160401b0381111561267857612678612ad7565b6040519080825280601f01601f1916602001820160405280156126a2576020820181803683370190505b5090508181016020015b600019016f181899199a1a9b1b9c1cb0b131b232b360811b600a86061a8153600a85049450846126ac57509392505050565b60006001600160a01b03831615801590611bb05750826001600160a01b0316846001600160a01b0316148061271857506127188484611cb9565b80611bb05750506000908152600460205260409020546001600160a01b03908116911614919050565b60008072184f03e93ff9f4daa797ed6e38ed64bf6a1f0160401b83106127805772184f03e93ff9f4daa797ed6e38ed64bf6a1f0160401b830492506040015b6d04ee2d6d415b85acef810000000083106127ac576d04ee2d6d415b85acef8100000000830492506020015b662386f26fc1000083106127ca57662386f26fc10000830492506010015b6305f5e10083106127e2576305f5e100830492506008015b61271083106127f657612710830492506004015b60648310612808576064830492506002015b600a83106105a35760010192915050565b6040805160a08101825260008082526020820181905291810182905260608101829052608081019190915290565b6040518060e001604052806000815260200160006001600160a01b03168152602001600081526020016000815260200160006001600160a01b03168152602001600081526020016000151581525090565b6001600160e01b0319811681146128ae57600080fd5b50565b6000602082840312156128c357600080fd5b8135610f0781612898565b60005b838110156128e95781810151838201526020016128d1565b50506000910152565b6000815180845261290a8160208601602086016128ce565b601f01601f19169290920160200192915050565b602081526000610f0760208301846128f2565b60006020828403121561294357600080fd5b5035919050565b80356001600160a01b038116811461296157600080fd5b919050565b6000806040838503121561297957600080fd5b6129828361294a565b946020939093013593505050565b805182526020808201516001600160a01b039081169184019190915260408083015190911690830152606080820151908301526080908101511515910152565b6020808252825182820181905260009190848201906040850190845b81811015612a12576129ff838551612990565b9284019260a092909201916001016129ec565b50909695505050505050565b600080600060608486031215612a3357600080fd5b612a3c8461294a565b9250612a4a6020850161294a565b9150604084013590509250925092565b600060208284031215612a6c57600080fd5b610f078261294a565b80518252602081015160018060a01b0380821660208501526040830151604085015260608301516060850152806080840151166080850152505060a081015160a083015260c0810151151560c08301525050565b60e081016105a38284612a75565b634e487b7160e01b600052604160045260246000fd5b604051601f8201601f191681016001600160401b0381118282101715612b1557612b15612ad7565b604052919050565b60006001600160401b03831115612b3657612b36612ad7565b612b49601f8401601f1916602001612aed565b9050828152838383011115612b5d57600080fd5b828260208301376000602084830101529392505050565b60008060408385031215612b8757600080fd5b82356001600160401b03811115612b9d57600080fd5b8301601f81018513612bae57600080fd5b612bbd85823560208401612b1d565b95602094909401359450505050565b600080600060608486031215612be157600080fd5b505081359360208301359350604090920135919050565b60008060408385031215612c0b57600080fd5b612c148361294a565b915060208301358015158114612c2957600080fd5b809150509250929050565b60a081016105a38284612990565b60008060008060808587031215612c5857600080fd5b612c618561294a565b9350612c6f6020860161294a565b92506040850135915060608501356001600160401b03811115612c9157600080fd5b8501601f81018713612ca257600080fd5b612cb187823560208401612b1d565b91505092959194509250565b60006020808385031215612cd057600080fd5b82356001600160401b0380821115612ce757600080fd5b818501915085601f830112612cfb57600080fd5b813581811115612d0d57612d0d612ad7565b8060051b9150612d1e848301612aed565b8181529183018401918481019088841115612d3857600080fd5b938501935b83851015612d5657843582529385019390850190612d3d565b98975050505050505050565b60008060408385031215612d7557600080fd5b50508035926020909101359150565b60008060408385031215612d9757600080fd5b612da08361294a565b9150612dae6020840161294a565b90509250929050565b6020808252825182820181905260009190848201906040850190845b81811015612a1257612de6838551612a75565b9284019260e09290920191600101612dd3565b600181811c90821680612e0d57607f821691505b602082108103612e2d57634e487b7160e01b600052602260045260246000fd5b50919050565b634e487b7160e01b600052601160045260246000fd5b818103818111156105a3576105a3612e33565b808201808211156105a3576105a3612e33565b634e487b7160e01b600052603260045260246000fd5b600060018201612e9757612e97612e33565b5060010190565b60008351612eb08184602088016128ce565b835190830190612ec48183602088016128ce565b01949350505050565b60208082526024908201527f5072696365206d75737420626520657175616c20746f206c697374696e6720706040820152637269636560e01b606082015260800190565b600081612f2057612f20612e33565b506000190190565b601f821115610c0957600081815260208120601f850160051c81016020861015612f4f5750805b601f850160051c820191505b81811015612f6e57828155600101612f5b565b505050505050565b81516001600160401b03811115612f8f57612f8f612ad7565b612fa381612f9d8454612df9565b84612f28565b602080601f831160018114612fd85760008415612fc05750858301515b600019600386901b1c1916600185901b178555612f6e565b600085815260208120601f198616915b8281101561300757888601518255948401946001909101908401612fe8565b50858210156130255787850151600019600388901b60f8161c191681555b5050505050600190811b01905550565b6001600160a01b0385811682528416602082015260408101839052608060608201819052600090613068908301846128f2565b9695505050505050565b60006020828403121561308457600080fd5b8151610f078161289856fea264697066735822122084a721813b0f9af6c6ec06182f5c406333a7a04796da4cec1fa447e76b5ee10664736f6c63430008140033",
  "linkReferences": {},
  "deployedLinkReferences": {}
}