{
  "_format": "hh-sol-artifact-1",
  "contractName": "NFTMarketplace",
  "sourceName": "contracts/NFTMarketplace.sol",
  "abi": [
    {
      "inputs": [],
      "stateMutability": "nonpayable",
      "type": "constructor"
    },
    {
      "inputs": [
        {
          "internalType": "address",
          "name": "sender",
          "type": "address"
        },
        {
          "internalType": "uint256",
          "name": "tokenId",
          "type": "uint256"
        },
        {
          "internalType": "address",
          "name": "owner",
          "type": "address"
        }
      ],
      "name": "ERC721IncorrectOwner",
      "type": "error"
    },
    {
      "inputs": [
        {
          "internalType": "address",
          "name": "operator",
          "type": "address"
        },
        {
          "internalType": "uint256",
          "name": "tokenId",
          "type": "uint256"
        }
      ],
      "name": "ERC721InsufficientApproval",
      "type": "error"
    },
    {
      "inputs": [
        {
          "internalType": "address",
          "name": "approver",
          "type": "address"
        }
      ],
      "name": "ERC721InvalidApprover",
      "type": "error"
    },
    {
      "inputs": [
        {
          "internalType": "address",
          "name": "operator",
          "type": "address"
        }
      ],
      "name": "ERC721InvalidOperator",
      "type": "error"
    },
    {
      "inputs": [
        {
          "internalType": "address",
          "name": "owner",
          "type": "address"
        }
      ],
      "name": "ERC721InvalidOwner",
      "type": "error"
    },
    {
      "inputs": [
        {
          "internalType": "address",
          "name": "receiver",
          "type": "address"
        }
      ],
      "name": "ERC721InvalidReceiver",
      "type": "error"
    },
    {
      "inputs": [
        {
          "internalType": "address",
          "name": "sender",
          "type": "address"
        }
      ],
      "name": "ERC721InvalidSender",
      "type": "error"
    },
    {
      "inputs": [
        {
          "internalType": "uint256",
          "name": "tokenId",
          "type": "uint256"
        }
      ],
      "name": "ERC721NonexistentToken",
      "type": "error"
    },
    {
      "anonymous": false,
      "inputs": [
        {
          "indexed": true,
          "internalType": "address",
          "name": "owner",
          "type": "address"
        },
        {
          "indexed": true,
          "internalType": "address",
          "name": "approved",
          "type": "address"
        },
        {
          "indexed": true,
          "internalType": "uint256",
          "name": "tokenId",
          "type": "uint256"
        }
      ],
      "name": "Approval",
      "type": "event"
    },
    {
      "anonymous": false,
      "inputs": [
        {
          "indexed": true,
          "internalType": "address",
          "name": "owner",
          "type": "address"
        },
        {
          "indexed": true,
          "internalType": "address",
          "name": "operator",
          "type": "address"
        },
        {
          "indexed": false,
          "internalType": "bool",
          "name": "approved",
          "type": "bool"
        }
      ],
      "name": "ApprovalForAll",
      "type": "event"
    },
    {
      "anonymous": false,
      "inputs": [
        {
          "indexed": true,
          "internalType": "uint256",
          "name": "tokenId",
          "type": "uint256"
        },
        {
          "indexed": false,
          "internalType": "address",
          "name": "seller",
          "type": "address"
        },
        {
          "indexed": false,
          "internalType": "uint256",
          "name": "startingPrice",
          "type": "uint256"
        },
        {
          "indexed": false,
          "internalType": "uint256",
          "name": "endTime",
          "type": "uint256"
        }
      ],
      "name": "AuctionCreated",
      "type": "event"
    },
    {
      "anonymous": false,
      "inputs": [
        {
          "indexed": true,
          "internalType": "uint256",
          "name": "tokenId",
          "type": "uint256"
        },
        {
          "indexed": false,
          "internalType": "address",
          "name": "winner",
          "type": "address"
        },
        {
          "indexed": false,
          "internalType": "uint256",
          "name": "winningBid",
          "type": "uint256"
        }
      ],
      "name": "AuctionEnded",
      "type": "event"
    },
    {
      "anonymous": false,
      "inputs": [
        {
          "indexed": false,
          "internalType": "uint256",
          "name": "_fromTokenId",
          "type": "uint256"
        },
        {
          "indexed": false,
          "internalType": "uint256",
          "name": "_toTokenId",
          "type": "uint256"
        }
      ],
      "name": "BatchMetadataUpdate",
      "type": "event"
    },
    {
      "anonymous": false,
      "inputs": [
        {
          "indexed": true,
          "internalType": "uint256",
          "name": "tokenId",
          "type": "uint256"
        },
        {
          "indexed": false,
          "internalType": "address",
          "name": "bidder",
          "type": "address"
        },
        {
          "indexed": false,
          "internalType": "uint256",
          "name": "bidAmount",
          "type": "uint256"
        }
      ],
      "name": "BidPlaced",
      "type": "event"
    },
    {
      "anonymous": false,
      "inputs": [
        {
          "indexed": true,
          "internalType": "uint256",
          "name": "tokenId",
          "type": "uint256"
        },
        {
          "indexed": false,
          "internalType": "address",
          "name": "seller",
          "type": "address"
        },
        {
          "indexed": false,
          "internalType": "address",
          "name": "owner",
          "type": "address"
        },
        {
          "indexed": false,
          "internalType": "uint256",
          "name": "price",
          "type": "uint256"
        },
        {
          "indexed": false,
          "internalType": "bool",
          "name": "sold",
          "type": "bool"
        }
      ],
      "name": "MarketItemCreated",
      "type": "event"
    },
    {
      "anonymous": false,
      "inputs": [
        {
          "indexed": false,
          "internalType": "uint256",
          "name": "_tokenId",
          "type": "uint256"
        }
      ],
      "name": "MetadataUpdate",
      "type": "event"
    },
    {
      "anonymous": false,
      "inputs": [
        {
          "indexed": true,
          "internalType": "address",
          "name": "from",
          "type": "address"
        },
        {
          "indexed": true,
          "internalType": "address",
          "name": "to",
          "type": "address"
        },
        {
          "indexed": true,
          "internalType": "uint256",
          "name": "tokenId",
          "type": "uint256"
        }
      ],
      "name": "Transfer",
      "type": "event"
    },
    {
      "inputs": [
        {
          "internalType": "address",
          "name": "to",
          "type": "address"
        },
        {
          "internalType": "uint256",
          "name": "tokenId",
          "type": "uint256"
        }
      ],
      "name": "approve",
      "outputs": [],
      "stateMutability": "nonpayable",
      "type": "function"
    },
    {
      "inputs": [
        {
          "internalType": "address",
          "name": "owner",
          "type": "address"
        }
      ],
      "name": "balanceOf",
      "outputs": [
        {
          "internalType": "uint256",
          "name": "",
          "type": "uint256"
        }
      ],
      "stateMutability": "view",
      "type": "function"
    },
    {
      "inputs": [
        {
          "internalType": "uint256",
          "name": "tokenId",
          "type": "uint256"
        }
      ],
      "name": "createMarketSale",
      "outputs": [],
      "stateMutability": "payable",
      "type": "function"
    },
    {
      "inputs": [
        {
          "internalType": "string",
          "name": "tokenURI",
          "type": "string"
        },
        {
          "internalType": "uint256",
          "name": "price",
          "type": "uint256"
        }
      ],
      "name": "createToken",
      "outputs": [
        {
          "internalType": "uint256",
          "name": "",
          "type": "uint256"
        }
      ],
      "stateMutability": "payable",
      "type": "function"
    },
    {
      "inputs": [
        {
          "internalType": "uint256",
          "name": "tokenId",
          "type": "uint256"
        }
      ],
      "name": "endAuction",
      "outputs": [],
      "stateMutability": "nonpayable",
      "type": "function"
    },
    {
      "inputs": [],
      "name": "fetchActiveAuctions",
      "outputs": [
        {
          "components": [
            {
              "internalType": "uint256",
              "name": "tokenId",
              "type": "uint256"
            },
            {
              "internalType": "address payable",
              "name": "seller",
              "type": "address"
            },
            {
              "internalType": "uint256",
              "name": "startingPrice",
              "type": "uint256"
            },
            {
              "internalType": "uint256",
              "name": "highestBid",
              "type": "uint256"
            },
            {
              "internalType": "address payable",
              "name": "highestBidder",
              "type": "address"
            },
            {
              "internalType": "uint256",
              "name": "endTime",
              "type": "uint256"
            },
            {
              "internalType": "bool",
              "name": "active",
              "type": "bool"
            }
          ],
          "internalType": "struct NFTMarketplace.Auction[]",
          "name": "",
          "type": "tuple[]"
        }
      ],
      "stateMutability": "view",
      "type": "function"
    },
    {
      "inputs": [
        {
          "internalType": "uint256",
          "name": "tokenId",
          "type": "uint256"
        }
      ],
      "name": "fetchAuction",
      "outputs": [
        {
          "components": [
            {
              "internalType": "uint256",
              "name": "tokenId",
              "type": "uint256"
            },
            {
              "internalType": "address payable",
              "name": "seller",
              "type": "address"
            },
            {
              "internalType": "uint256",
              "name": "startingPrice",
              "type": "uint256"
            },
            {
              "internalType": "uint256",
              "name": "highestBid",
              "type": "uint256"
            },
            {
              "internalType": "address payable",
              "name": "highestBidder",
              "type": "address"
            },
            {
              "internalType": "uint256",
              "name": "endTime",
              "type": "uint256"
            },
            {
              "internalType": "bool",
              "name": "active",
              "type": "bool"
            }
          ],
          "internalType": "struct NFTMarketplace.Auction",
          "name": "",
          "type": "tuple"
        }
      ],
      "stateMutability": "view",
      "type": "function"
    },
    {
      "inputs": [],
      "name": "fetchItemsListed",
      "outputs": [
        {
          "components": [
            {
              "internalType": "uint256",
              "name": "tokenId",
              "type": "uint256"
            },
            {
              "internalType": "address payable",
              "name": "seller",
              "type": "address"
            },
            {
              "internalType": "address payable",
              "name": "owner",
              "type": "address"
            },
            {
              "internalType": "uint256",
              "name": "price",
              "type": "uint256"
            },
            {
              "internalType": "bool",
              "name": "sold",
              "type": "bool"
            }
          ],
          "internalType": "struct NFTMarketplace.MarketItem[]",
          "name": "",
          "type": "tuple[]"
        }
      ],
      "stateMutability": "view",
      "type": "function"
    },
    {
      "inputs": [
        {
          "internalType": "uint256",
          "name": "tokenId",
          "type": "uint256"
        }
      ],
      "name": "fetchMarketItemById",
      "outputs": [
        {
          "components": [
            {
              "internalType": "uint256",
              "name": "tokenId",
              "type": "uint256"
            },
            {
              "internalType": "address payable",
              "name": "seller",
              "type": "address"
            },
            {
              "internalType": "address payable",
              "name": "owner",
              "type": "address"
            },
            {
              "internalType": "uint256",
              "name": "price",
              "type": "uint256"
            },
            {
              "internalType": "bool",
              "name": "sold",
              "type": "bool"
            }
          ],
          "internalType": "struct NFTMarketplace.MarketItem",
          "name": "",
          "type": "tuple"
        }
      ],
      "stateMutability": "view",
      "type": "function"
    },
    {
      "inputs": [],
      "name": "fetchMarketItems",
      "outputs": [
        {
          "components": [
            {
              "internalType": "uint256",
              "name": "tokenId",
              "type": "uint256"
            },
            {
              "internalType": "address payable",
              "name": "seller",
              "type": "address"
            },
            {
              "internalType": "address payable",
              "name": "owner",
              "type": "address"
            },
            {
              "internalType": "uint256",
              "name": "price",
              "type": "uint256"
            },
            {
              "internalType": "bool",
              "name": "sold",
              "type": "bool"
            }
          ],
          "internalType": "struct NFTMarketplace.MarketItem[]",
          "name": "",
          "type": "tuple[]"
        }
      ],
      "stateMutability": "view",
      "type": "function"
    },
    {
      "inputs": [
        {
          "internalType": "uint256",
          "name": "tokenId",
          "type": "uint256"
        }
      ],
      "name": "getApproved",
      "outputs": [
        {
          "internalType": "address",
          "name": "",
          "type": "address"
        }
      ],
      "stateMutability": "view",
      "type": "function"
    },
    {
      "inputs": [],
      "name": "getListingPrice",
      "outputs": [
        {
          "internalType": "uint256",
          "name": "",
          "type": "uint256"
        }
      ],
      "stateMutability": "view",
      "type": "function"
    },
    {
      "inputs": [
        {
          "internalType": "address",
          "name": "owner",
          "type": "address"
        },
        {
          "internalType": "address",
          "name": "operator",
          "type": "address"
        }
      ],
      "name": "isApprovedForAll",
      "outputs": [
        {
          "internalType": "bool",
          "name": "",
          "type": "bool"
        }
      ],
      "stateMutability": "view",
      "type": "function"
    },
    {
      "inputs": [],
      "name": "name",
      "outputs": [
        {
          "internalType": "string",
          "name": "",
          "type": "string"
        }
      ],
      "stateMutability": "view",
      "type": "function"
    },
    {
      "inputs": [
        {
          "internalType": "uint256",
          "name": "tokenId",
          "type": "uint256"
        }
      ],
      "name": "ownerOf",
      "outputs": [
        {
          "internalType": "address",
          "name": "",
          "type": "address"
        }
      ],
      "stateMutability": "view",
      "type": "function"
    },
    {
      "inputs": [
        {
          "internalType": "uint256",
          "name": "tokenId",
          "type": "uint256"
        }
      ],
      "name": "placeBid",
      "outputs": [],
      "stateMutability": "payable",
      "type": "function"
    },
    {
      "inputs": [
        {
          "internalType": "uint256",
          "name": "tokenId",
          "type": "uint256"
        },
        {
          "internalType": "uint256",
          "name": "price",
          "type": "uint256"
        }
      ],
      "name": "resellToken",
      "outputs": [],
      "stateMutability": "payable",
      "type": "function"
    },
    {
      "inputs": [
        {
          "internalType": "address",
          "name": "from",
          "type": "address"
        },
        {
          "internalType": "address",
          "name": "to",
          "type": "address"
        },
        {
          "internalType": "uint256",
          "name": "tokenId",
          "type": "uint256"
        }
      ],
      "name": "safeTransferFrom",
      "outputs": [],
      "stateMutability": "nonpayable",
      "type": "function"
    },
    {
      "inputs": [
        {
          "internalType": "address",
          "name": "from",
          "type": "address"
        },
        {
          "internalType": "address",
          "name": "to",
          "type": "address"
        },
        {
          "internalType": "uint256",
          "name": "tokenId",
          "type": "uint256"
        },
        {
          "internalType": "bytes",
          "name": "data",
          "type": "bytes"
        }
      ],
      "name": "safeTransferFrom",
      "outputs": [],
      "stateMutability": "nonpayable",
      "type": "function"
    },
    {
      "inputs": [
        {
          "internalType": "address",
          "name": "operator",
          "type": "address"
        },
        {
          "internalType": "bool",
          "name": "approved",
          "type": "bool"
        }
      ],
      "name": "setApprovalForAll",
      "outputs": [],
      "stateMutability": "nonpayable",
      "type": "function"
    },
    {
      "inputs": [
        {
          "internalType": "uint256",
          "name": "tokenId",
          "type": "uint256"
        },
        {
          "internalType": "uint256",
          "name": "startingPrice",
          "type": "uint256"
        },
        {
          "internalType": "uint256",
          "name": "duration",
          "type": "uint256"
        }
      ],
      "name": "startAuction",
      "outputs": [],
      "stateMutability": "nonpayable",
      "type": "function"
    },
    {
      "inputs": [
        {
          "internalType": "bytes4",
          "name": "interfaceId",
          "type": "bytes4"
        }
      ],
      "name": "supportsInterface",
      "outputs": [
        {
          "internalType": "bool",
          "name": "",
          "type": "bool"
        }
      ],
      "stateMutability": "view",
      "type": "function"
    },
    {
      "inputs": [],
      "name": "symbol",
      "outputs": [
        {
          "internalType": "string",
          "name": "",
          "type": "string"
        }
      ],
      "stateMutability": "view",
      "type": "function"
    },
    {
      "inputs": [
        {
          "internalType": "uint256",
          "name": "tokenId",
          "type": "uint256"
        }
      ],
      "name": "tokenURI",
      "outputs": [
        {
          "internalType": "string",
          "name": "",
          "type": "string"
        }
      ],
      "stateMutability": "view",
      "type": "function"
    },
    {
      "inputs": [
        {
          "internalType": "address",
          "name": "from",
          "type": "address"
        },
        {
          "internalType": "address",
          "name": "to",
          "type": "address"
        },
        {
          "internalType": "uint256",
          "name": "tokenId",
          "type": "uint256"
        }
      ],
      "name": "transferFrom",
      "outputs": [],
      "stateMutability": "nonpayable",
      "type": "function"
    }
  ],
  "bytecode": "0x60806040526608e1bc9bf040006009553480156200001c57600080fd5b506040518060400160405280601081526020016f4d657461766572736520546f6b656e7360801b8152506040518060400160405280600881526020016726a2aa2a27a5a2a760c11b815250816000908162000078919062000147565b50600162000087828262000147565b5050600a80546001600160a01b031916331790555062000213565b634e487b7160e01b600052604160045260246000fd5b600181811c90821680620000cd57607f821691505b602082108103620000ee57634e487b7160e01b600052602260045260246000fd5b50919050565b601f8211156200014257600081815260208120601f850160051c810160208610156200011d5750805b601f850160051c820191505b818110156200013e5782815560010162000129565b5050505b505050565b81516001600160401b03811115620001635762000163620000a2565b6200017b81620001748454620000b8565b84620000f4565b602080601f831160018114620001b357600084156200019a5750858301515b600019600386901b1c1916600185901b1785556200013e565b600085815260208120601f198616915b82811015620001e457888601518255948401946001909101908401620001c3565b5085821015620002035787850151600019600388901b60f8161c191681555b5050505050600190811b01905550565b61283b80620002236000396000f3fe6080604052600436106101665760003560e01c806372b3b620116100d1578063b88d4fde1161008a578063c87b56dd11610064578063c87b56dd146104a2578063e219fc75146104c2578063e985e9c5146104d5578063f1d9e545146104f557600080fd5b8063b88d4fde1461044f578063b9a2de3a1461046f578063be9af5361461048f57600080fd5b806372b3b6201461031f57806391e078bb1461033257806395d89b41146103525780639979ef4514610367578063a22cb4651461037a578063ad1477a91461039a57600080fd5b806323b872dd1161012357806323b872dd1461025d57806342842e0e1461027d57806345f8fa801461029d5780636352211e146102b257806370a08231146102d25780637195e124146102f257600080fd5b806301ffc9a71461016b57806306fdde03146101a0578063081812fc146101c2578063095ea7b3146101fa5780630f08efe01461021c57806312e855851461023e575b600080fd5b34801561017757600080fd5b5061018b6101863660046120ed565b610517565b60405190151581526020015b60405180910390f35b3480156101ac57600080fd5b506101b5610542565b604051610197919061215a565b3480156101ce57600080fd5b506101e26101dd36600461216d565b6105d4565b6040516001600160a01b039091168152602001610197565b34801561020657600080fd5b5061021a6102153660046121a2565b6105fd565b005b34801561022857600080fd5b5061023161060c565b604051610197919061220c565b34801561024a57600080fd5b506009545b604051908152602001610197565b34801561026957600080fd5b5061021a61027836600461225a565b6107e8565b34801561028957600080fd5b5061021a61029836600461225a565b610878565b3480156102a957600080fd5b50610231610898565b3480156102be57600080fd5b506101e26102cd36600461216d565b610a6b565b3480156102de57600080fd5b5061024f6102ed366004612296565b610a76565b3480156102fe57600080fd5b5061031261030d36600461216d565b610abe565b6040516101979190612305565b61024f61032d36600461239f565b610b84565b34801561033e57600080fd5b5061021a61034d3660046123f8565b610bc2565b34801561035e57600080fd5b506101b5610dfa565b61021a61037536600461216d565b610e09565b34801561038657600080fd5b5061021a610395366004612424565b610f9d565b3480156103a657600080fd5b506104426103b536600461216d565b6040805160a081018252600080825260208201819052918101829052606081018290526080810191909152506000908152600b6020908152604091829020825160a0810184528154815260018201546001600160a01b03908116938201939093526002820154909216928201929092526003820154606082015260049091015460ff161515608082015290565b6040516101979190612460565b34801561045b57600080fd5b5061021a61046a36600461246e565b610fa8565b34801561047b57600080fd5b5061021a61048a36600461216d565b610fbf565b61021a61049d36600461216d565b6111a5565b3480156104ae57600080fd5b506101b56104bd36600461216d565b61130f565b61021a6104d03660046124ea565b611420565b3480156104e157600080fd5b5061018b6104f036600461250c565b611521565b34801561050157600080fd5b5061050a61154f565b604051610197919061253f565b60006001600160e01b03198216632483248360e11b148061053c575061053c826116cc565b92915050565b60606000805461055190612581565b80601f016020809104026020016040519081016040528092919081815260200182805461057d90612581565b80156105ca5780601f1061059f576101008083540402835291602001916105ca565b820191906000526020600020905b8154815290600101906020018083116105ad57829003601f168201915b5050505050905090565b60006105df8261171c565b506000828152600460205260409020546001600160a01b031661053c565b610608828233611755565b5050565b60075460609060008060015b83811161067f576000818152600b60205260409020600201546001600160a01b03163014801561065a57506000818152600b602052604090206004015460ff16155b1561066d5782610669816125d1565b9350505b80610677816125d1565b915050610618565b5060008267ffffffffffffffff81111561069b5761069b612313565b6040519080825280602002602001820160405280156106f457816020015b6040805160a0810182526000808252602080830182905292820181905260608201819052608082015282526000199092019101816106b95790505b50905060015b8481116107df576000818152600b60205260409020600201546001600160a01b03163014801561073c57506000818152600b602052604090206004015460ff16155b156107cd576000818152600b6020908152604091829020825160a0810184528154815260018201546001600160a01b03908116938201939093526002820154909216928201929092526003820154606082015260049091015460ff161515608082015282518390859081106107b3576107b36125ea565b602002602001018190525082806107c9906125d1565b9350505b806107d7816125d1565b9150506106fa565b50949350505050565b6001600160a01b03821661081757604051633250574960e11b8152600060048201526024015b60405180910390fd5b6000610824838333611762565b9050836001600160a01b0316816001600160a01b031614610872576040516364283d7b60e01b81526001600160a01b038086166004830152602482018490528216604482015260640161080e565b50505050565b61089383838360405180602001604052806000815250610fa8565b505050565b60075460609060008060015b83811161090b576000818152600b60205260409020600101546001600160a01b0316331480156108e657506000818152600b602052604090206004015460ff16155b156108f957826108f5816125d1565b9350505b80610903816125d1565b9150506108a4565b5060008267ffffffffffffffff81111561092757610927612313565b60405190808252806020026020018201604052801561098057816020015b6040805160a0810182526000808252602080830182905292820181905260608201819052608082015282526000199092019101816109455790505b50905060015b8481116107df576000818152600b60205260409020600101546001600160a01b0316331480156109c857506000818152600b602052604090206004015460ff16155b15610a59576000818152600b6020908152604091829020825160a0810184528154815260018201546001600160a01b03908116938201939093526002820154909216928201929092526003820154606082015260049091015460ff16151560808201528251839085908110610a3f57610a3f6125ea565b60200260200101819052508280610a55906125d1565b9350505b80610a63816125d1565b915050610986565b600061053c8261171c565b60006001600160a01b038216610aa2576040516322718ad960e21b81526000600482015260240161080e565b506001600160a01b031660009081526003602052604090205490565b610ac6612083565b6000828152600c6020908152604091829020825160e0810184528154815260018201546001600160a01b03908116938201939093526002820154938101939093526003810154606084015260048101549091166080830152600581015460a08301526006015460ff16151560c0820181905261053c5760405162461bcd60e51b815260206004820152601a60248201527f41756374696f6e20656e646564206f72206e6f74206578697374000000000000604482015260640161080e565b6007805460009182610b95836125d1565b9091555050600754610ba7338261185b565b610bb181856118c0565b610bbb8184611910565b9392505050565b6000838152600b60205260409020600201546001600160a01b03163314610c2b5760405162461bcd60e51b815260206004820152601c60248201527f4f6e6c79206f776e65722063616e2073746172742061756374696f6e00000000604482015260640161080e565b6000838152600c602052604090206006015460ff161580610c5d57506000838152600c60205260409020600501544210155b610ccf5760405162461bcd60e51b815260206004820152603f60248201527f416e206163746976652061756374696f6e20616c72656164792065786973747360448201527f206f7220686173206e6f7420656e64656420666f722074686973206974656d00606482015260840161080e565b6040805160e081018252848152336020820152908101839052600060608201819052608082015260a08101610d048342612600565b8152600160209182018190526000868152600c8352604090819020845181559284015191830180546001600160a01b039384166001600160a01b03199182161790915590840151600284015560608401516003840155608084015160048401805491909316911617905560a0820151600582015560c0909101516006909101805491151560ff19909216919091179055610d9f333085611a5f565b827fc9050d42180a61cb0d9ebb8ad118b62fe6eab12cf12ff752c4a0cc7da9ddf6273384610dcd8542612600565b604080516001600160a01b03909416845260208401929092529082015260600160405180910390a2505050565b60606001805461055190612581565b6000818152600c60205260409020600681015460ff16610e5b5760405162461bcd60e51b815260206004820152600d60248201526c105d58dd1a5bdb88195b991959609a1b604482015260640161080e565b80600501544210610ea05760405162461bcd60e51b815260206004820152600f60248201526e105d58dd1a5bdb88195e1c1a5c9959608a1b604482015260640161080e565b80600301543411610ee85760405162461bcd60e51b815260206004820152601260248201527142696420616d6f756e7420746f6f206c6f7760701b604482015260640161080e565b60048101546001600160a01b031615610f3d57600481015460038201546040516001600160a01b039092169181156108fc0291906000818181858888f19350505050158015610f3b573d6000803e3d6000fd5b505b34600382018190556004820180546001600160a01b0319163390811790915560408051918252602082019290925283917f0e54eff26401bf69b81b26f60bd85ef47f5d85275c1d268d84f68d6897431c4791015b60405180910390a25050565b610608338383611b0f565b610fb38484846107e8565b61087284848484611bae565b6000818152600c60205260409020600681015460ff166110215760405162461bcd60e51b815260206004820152601a60248201527f41756374696f6e20656e646564206f72206e6f74206578697374000000000000604482015260640161080e565b806005015442101561106e5760405162461bcd60e51b8152602060048201526016602482015275105d5d18dd1a5bdb881b9bdd081e595d08195b99195960521b604482015260640161080e565b60068101805460ff1916905560048101546001600160a01b03161561118b576004808201546000848152600b602052604081206002810180546001600160a01b0319166001600160a01b03909416939093179092559101805460ff1916600117905560088054916110de836125d1565b909155505060048101546110fd9030906001600160a01b031684611a5f565b600181015460038201546040516001600160a01b039092169181156108fc0291906000818181858888f1935050505015801561113d573d6000803e3d6000fd5b5060048101546003820154604080516001600160a01b039093168352602083019190915283917fd2aa34a4fdbbc6dff6a3e56f46e0f3ae2a31d7785ff3487aa5c95c642acea5019101610f91565b60018101546106089030906001600160a01b031684611a5f565b6000818152600b6020526040902060038101546001909101546001600160a01b031634821461123e576040805162461bcd60e51b81526020600482015260248101919091527f506c65617365207375626d6974207468652061736b696e67207072696365206960448201527f6e206f7264657220746f20636f6d706c65746520746865207075726368617365606482015260840161080e565b6000838152600b602052604081206002810180546001600160a01b0319908116331790915560048201805460ff1916600190811790915590910180549091169055600880549161128d836125d1565b919050555061129d303385611a5f565b600a546009546040516001600160a01b039092169181156108fc0291906000818181858888f193505050501580156112d9573d6000803e3d6000fd5b506040516001600160a01b038216903480156108fc02916000818181858888f19350505050158015610872573d6000803e3d6000fd5b606061131a8261171c565b506000828152600660205260408120805461133490612581565b80601f016020809104026020016040519081016040528092919081815260200182805461136090612581565b80156113ad5780601f10611382576101008083540402835291602001916113ad565b820191906000526020600020905b81548152906001019060200180831161139057829003601f168201915b5050505050905060006113cb60408051602081019091526000815290565b905080516000036113dd575092915050565b81511561140f5780826040516020016113f7929190612613565b60405160208183030381529060405292505050919050565b61141884611cd7565b949350505050565b6000828152600b60205260409020600201546001600160a01b0316331461149c5760405162461bcd60e51b815260206004820152602a60248201527f4f6e6c79206974656d206f776e65722063616e20706572666f726d20746869736044820152691037b832b930ba34b7b760b11b606482015260840161080e565b60095434146114bd5760405162461bcd60e51b815260040161080e90612642565b6000828152600b6020526040812060048101805460ff19169055600381018390556001810180546001600160a01b031990811633179091556002909101805490911630179055600880549161151183612686565b9190505550610608333084611a5f565b6001600160a01b03918216600090815260056020908152604080832093909416825291909152205460ff1690565b60075460609060008060015b83811161159c576000818152600c602052604090206006015460ff161561158a57611587600184612600565b92505b80611594816125d1565b91505061155b565b5060008267ffffffffffffffff8111156115b8576115b8612313565b6040519080825280602002602001820160405280156115f157816020015b6115de612083565b8152602001906001900390816115d65790505b50905060015b8481116107df576000818152600c602052604090206006015460ff16156116ba576000818152600c6020908152604091829020825160e0810184528154815260018201546001600160a01b03908116938201939093526002820154938101939093526003810154606084015260048101549091166080830152600581015460a0830152600681015460ff16151560c083015283519091908490869081106116a0576116a06125ea565b60209081029190910101526116b6600185612600565b9350505b806116c4816125d1565b9150506115f7565b60006001600160e01b031982166380ac58cd60e01b14806116fd57506001600160e01b03198216635b5e139f60e01b145b8061053c57506301ffc9a760e01b6001600160e01b031983161461053c565b6000818152600260205260408120546001600160a01b03168061053c57604051637e27328960e01b81526004810184905260240161080e565b6108938383836001611d4b565b6000828152600260205260408120546001600160a01b039081169083161561178f5761178f818486611e51565b6001600160a01b038116156117cd576117ac600085600080611d4b565b6001600160a01b038116600090815260036020526040902080546000190190555b6001600160a01b038516156117fc576001600160a01b0385166000908152600360205260409020805460010190555b60008481526002602052604080822080546001600160a01b0319166001600160a01b0389811691821790925591518793918516917fddf252ad1be2c89b69c2b068fc378daa952ba7f163c4a11628f55a4df523b3ef91a4949350505050565b6001600160a01b03821661188557604051633250574960e11b81526000600482015260240161080e565b600061189383836000611762565b90506001600160a01b03811615610893576040516339e3563760e11b81526000600482015260240161080e565b60008281526006602052604090206118d882826126eb565b506040518281527ff8e1a15aba9398e019f0b49df1a4fde98ee17ae345cb5f6b5e2c27f5033e8ce79060200160405180910390a15050565b600081116119605760405162461bcd60e51b815260206004820152601c60248201527f5072696365206d757374206265206174206c6561737420312077656900000000604482015260640161080e565b60095434146119815760405162461bcd60e51b815260040161080e90612642565b6040805160a08101825283815233602080830182815230848601818152606086018881526000608088018181528b8252600b909652979097209551865591516001860180546001600160a01b03199081166001600160a01b0393841617909155925160028701805490941691161790915593516003840155516004909201805460ff191692151592909217909155611a199184611a5f565b604080513381523060208201529081018290526000606082015282907fb640004f1d14576d0c209e240cad0410e0d8c0c33a09375861fbadae2588a98d90608001610f91565b6001600160a01b038216611a8957604051633250574960e11b81526000600482015260240161080e565b6000611a9783836000611762565b90506001600160a01b038116611ac357604051637e27328960e01b81526004810183905260240161080e565b836001600160a01b0316816001600160a01b031614610872576040516364283d7b60e01b81526001600160a01b038086166004830152602482018490528216604482015260640161080e565b6001600160a01b038216611b4157604051630b61174360e31b81526001600160a01b038316600482015260240161080e565b6001600160a01b03838116600081815260056020908152604080832094871680845294825291829020805460ff191686151590811790915591519182527f17307eab39ab6107e8899845ad3d59bd9653f200f220920489ca2b5937696c31910160405180910390a3505050565b6001600160a01b0383163b1561087257604051630a85bd0160e11b81526001600160a01b0384169063150b7a0290611bf09033908890879087906004016127ab565b6020604051808303816000875af1925050508015611c2b575060408051601f3d908101601f19168201909252611c28918101906127e8565b60015b611c94573d808015611c59576040519150601f19603f3d011682016040523d82523d6000602084013e611c5e565b606091505b508051600003611c8c57604051633250574960e11b81526001600160a01b038516600482015260240161080e565b805181602001fd5b6001600160e01b03198116630a85bd0160e11b14611cd057604051633250574960e11b81526001600160a01b038516600482015260240161080e565b5050505050565b6060611ce28261171c565b506000611cfa60408051602081019091526000815290565b90506000815111611d1a5760405180602001604052806000815250610bbb565b80611d2484611eb5565b604051602001611d35929190612613565b6040516020818303038152906040529392505050565b8080611d5f57506001600160a01b03821615155b15611e21576000611d6f8461171c565b90506001600160a01b03831615801590611d9b5750826001600160a01b0316816001600160a01b031614155b8015611dae5750611dac8184611521565b155b15611dd75760405163a9fbf51f60e01b81526001600160a01b038416600482015260240161080e565b8115611e1f5783856001600160a01b0316826001600160a01b03167f8c5be1e5ebec7d5bd14f71427d1e84f3dd0314c0f7b2291e5b200ac8c7c3b92560405160405180910390a45b505b5050600090815260046020526040902080546001600160a01b0319166001600160a01b0392909216919091179055565b611e5c838383611f48565b610893576001600160a01b038316611e8a57604051637e27328960e01b81526004810182905260240161080e565b60405163177e802f60e01b81526001600160a01b03831660048201526024810182905260440161080e565b60606000611ec283611fab565b600101905060008167ffffffffffffffff811115611ee257611ee2612313565b6040519080825280601f01601f191660200182016040528015611f0c576020820181803683370190505b5090508181016020015b600019016f181899199a1a9b1b9c1cb0b131b232b360811b600a86061a8153600a8504945084611f1657509392505050565b60006001600160a01b038316158015906114185750826001600160a01b0316846001600160a01b03161480611f825750611f828484611521565b806114185750506000908152600460205260409020546001600160a01b03908116911614919050565b60008072184f03e93ff9f4daa797ed6e38ed64bf6a1f0160401b8310611fea5772184f03e93ff9f4daa797ed6e38ed64bf6a1f0160401b830492506040015b6d04ee2d6d415b85acef81000000008310612016576d04ee2d6d415b85acef8100000000830492506020015b662386f26fc10000831061203457662386f26fc10000830492506010015b6305f5e100831061204c576305f5e100830492506008015b612710831061206057612710830492506004015b60648310612072576064830492506002015b600a831061053c5760010192915050565b6040518060e001604052806000815260200160006001600160a01b03168152602001600081526020016000815260200160006001600160a01b03168152602001600081526020016000151581525090565b6001600160e01b0319811681146120ea57600080fd5b50565b6000602082840312156120ff57600080fd5b8135610bbb816120d4565b60005b8381101561212557818101518382015260200161210d565b50506000910152565b6000815180845261214681602086016020860161210a565b601f01601f19169290920160200192915050565b602081526000610bbb602083018461212e565b60006020828403121561217f57600080fd5b5035919050565b80356001600160a01b038116811461219d57600080fd5b919050565b600080604083850312156121b557600080fd5b6121be83612186565b946020939093013593505050565b805182526020808201516001600160a01b039081169184019190915260408083015190911690830152606080820151908301526080908101511515910152565b6020808252825182820181905260009190848201906040850190845b8181101561224e5761223b8385516121cc565b9284019260a09290920191600101612228565b50909695505050505050565b60008060006060848603121561226f57600080fd5b61227884612186565b925061228660208501612186565b9150604084013590509250925092565b6000602082840312156122a857600080fd5b610bbb82612186565b80518252602081015160018060a01b0380821660208501526040830151604085015260608301516060850152806080840151166080850152505060a081015160a083015260c0810151151560c08301525050565b60e0810161053c82846122b1565b634e487b7160e01b600052604160045260246000fd5b600067ffffffffffffffff8084111561234457612344612313565b604051601f8501601f19908116603f0116810190828211818310171561236c5761236c612313565b8160405280935085815286868601111561238557600080fd5b858560208301376000602087830101525050509392505050565b600080604083850312156123b257600080fd5b823567ffffffffffffffff8111156123c957600080fd5b8301601f810185136123da57600080fd5b6123e985823560208401612329565b95602094909401359450505050565b60008060006060848603121561240d57600080fd5b505081359360208301359350604090920135919050565b6000806040838503121561243757600080fd5b61244083612186565b91506020830135801515811461245557600080fd5b809150509250929050565b60a0810161053c82846121cc565b6000806000806080858703121561248457600080fd5b61248d85612186565b935061249b60208601612186565b925060408501359150606085013567ffffffffffffffff8111156124be57600080fd5b8501601f810187136124cf57600080fd5b6124de87823560208401612329565b91505092959194509250565b600080604083850312156124fd57600080fd5b50508035926020909101359150565b6000806040838503121561251f57600080fd5b61252883612186565b915061253660208401612186565b90509250929050565b6020808252825182820181905260009190848201906040850190845b8181101561224e5761256e8385516122b1565b9284019260e0929092019160010161255b565b600181811c9082168061259557607f821691505b6020821081036125b557634e487b7160e01b600052602260045260246000fd5b50919050565b634e487b7160e01b600052601160045260246000fd5b6000600182016125e3576125e36125bb565b5060010190565b634e487b7160e01b600052603260045260246000fd5b8082018082111561053c5761053c6125bb565b6000835161262581846020880161210a565b83519083019061263981836020880161210a565b01949350505050565b60208082526024908201527f5072696365206d75737420626520657175616c20746f206c697374696e6720706040820152637269636560e01b606082015260800190565b600081612695576126956125bb565b506000190190565b601f82111561089357600081815260208120601f850160051c810160208610156126c45750805b601f850160051c820191505b818110156126e3578281556001016126d0565b505050505050565b815167ffffffffffffffff81111561270557612705612313565b612719816127138454612581565b8461269d565b602080601f83116001811461274e57600084156127365750858301515b600019600386901b1c1916600185901b1785556126e3565b600085815260208120601f198616915b8281101561277d5788860151825594840194600190910190840161275e565b508582101561279b5787850151600019600388901b60f8161c191681555b5050505050600190811b01905550565b6001600160a01b03858116825284166020820152604081018390526080606082018190526000906127de9083018461212e565b9695505050505050565b6000602082840312156127fa57600080fd5b8151610bbb816120d456fea264697066735822122028639ff688b72c6703b136d66cef9bc80873812dbbb301b0028b3356e940416e64736f6c63430008140033",
  "linkReferences": {},
  "deployedLinkReferences": {}
}