{
  "_format": "hh-sol-artifact-1",
  "contractName": "NFTMarketplace",
  "sourceName": "contracts/NFTMarketplace.sol",
  "abi": [
    {
      "inputs": [],
      "stateMutability": "nonpayable",
      "type": "constructor"
    },
    {
      "inputs": [
        {
          "internalType": "address",
          "name": "sender",
          "type": "address"
        },
        {
          "internalType": "uint256",
          "name": "tokenId",
          "type": "uint256"
        },
        {
          "internalType": "address",
          "name": "owner",
          "type": "address"
        }
      ],
      "name": "ERC721IncorrectOwner",
      "type": "error"
    },
    {
      "inputs": [
        {
          "internalType": "address",
          "name": "operator",
          "type": "address"
        },
        {
          "internalType": "uint256",
          "name": "tokenId",
          "type": "uint256"
        }
      ],
      "name": "ERC721InsufficientApproval",
      "type": "error"
    },
    {
      "inputs": [
        {
          "internalType": "address",
          "name": "approver",
          "type": "address"
        }
      ],
      "name": "ERC721InvalidApprover",
      "type": "error"
    },
    {
      "inputs": [
        {
          "internalType": "address",
          "name": "operator",
          "type": "address"
        }
      ],
      "name": "ERC721InvalidOperator",
      "type": "error"
    },
    {
      "inputs": [
        {
          "internalType": "address",
          "name": "owner",
          "type": "address"
        }
      ],
      "name": "ERC721InvalidOwner",
      "type": "error"
    },
    {
      "inputs": [
        {
          "internalType": "address",
          "name": "receiver",
          "type": "address"
        }
      ],
      "name": "ERC721InvalidReceiver",
      "type": "error"
    },
    {
      "inputs": [
        {
          "internalType": "address",
          "name": "sender",
          "type": "address"
        }
      ],
      "name": "ERC721InvalidSender",
      "type": "error"
    },
    {
      "inputs": [
        {
          "internalType": "uint256",
          "name": "tokenId",
          "type": "uint256"
        }
      ],
      "name": "ERC721NonexistentToken",
      "type": "error"
    },
    {
      "anonymous": false,
      "inputs": [
        {
          "indexed": true,
          "internalType": "address",
          "name": "owner",
          "type": "address"
        },
        {
          "indexed": true,
          "internalType": "address",
          "name": "approved",
          "type": "address"
        },
        {
          "indexed": true,
          "internalType": "uint256",
          "name": "tokenId",
          "type": "uint256"
        }
      ],
      "name": "Approval",
      "type": "event"
    },
    {
      "anonymous": false,
      "inputs": [
        {
          "indexed": true,
          "internalType": "address",
          "name": "owner",
          "type": "address"
        },
        {
          "indexed": true,
          "internalType": "address",
          "name": "operator",
          "type": "address"
        },
        {
          "indexed": false,
          "internalType": "bool",
          "name": "approved",
          "type": "bool"
        }
      ],
      "name": "ApprovalForAll",
      "type": "event"
    },
    {
      "anonymous": false,
      "inputs": [
        {
          "indexed": false,
          "internalType": "uint256",
          "name": "_fromTokenId",
          "type": "uint256"
        },
        {
          "indexed": false,
          "internalType": "uint256",
          "name": "_toTokenId",
          "type": "uint256"
        }
      ],
      "name": "BatchMetadataUpdate",
      "type": "event"
    },
    {
      "anonymous": false,
      "inputs": [
        {
          "indexed": true,
          "internalType": "uint256",
          "name": "tokenId",
          "type": "uint256"
        },
        {
          "indexed": false,
          "internalType": "address",
          "name": "seller",
          "type": "address"
        },
        {
          "indexed": false,
          "internalType": "address",
          "name": "owner",
          "type": "address"
        },
        {
          "indexed": false,
          "internalType": "uint256",
          "name": "price",
          "type": "uint256"
        },
        {
          "indexed": false,
          "internalType": "bool",
          "name": "sold",
          "type": "bool"
        }
      ],
      "name": "MarketItemCreated",
      "type": "event"
    },
    {
      "anonymous": false,
      "inputs": [
        {
          "indexed": false,
          "internalType": "uint256",
          "name": "_tokenId",
          "type": "uint256"
        }
      ],
      "name": "MetadataUpdate",
      "type": "event"
    },
    {
      "anonymous": false,
      "inputs": [
        {
          "indexed": true,
          "internalType": "address",
          "name": "from",
          "type": "address"
        },
        {
          "indexed": true,
          "internalType": "address",
          "name": "to",
          "type": "address"
        },
        {
          "indexed": true,
          "internalType": "uint256",
          "name": "tokenId",
          "type": "uint256"
        }
      ],
      "name": "Transfer",
      "type": "event"
    },
    {
      "inputs": [
        {
          "internalType": "address",
          "name": "to",
          "type": "address"
        },
        {
          "internalType": "uint256",
          "name": "tokenId",
          "type": "uint256"
        }
      ],
      "name": "approve",
      "outputs": [],
      "stateMutability": "nonpayable",
      "type": "function"
    },
    {
      "inputs": [
        {
          "internalType": "address",
          "name": "owner",
          "type": "address"
        }
      ],
      "name": "balanceOf",
      "outputs": [
        {
          "internalType": "uint256",
          "name": "",
          "type": "uint256"
        }
      ],
      "stateMutability": "view",
      "type": "function"
    },
    {
      "inputs": [
        {
          "internalType": "uint256",
          "name": "tokenId",
          "type": "uint256"
        }
      ],
      "name": "createMarketSale",
      "outputs": [],
      "stateMutability": "payable",
      "type": "function"
    },
    {
      "inputs": [
        {
          "internalType": "string",
          "name": "tokenURI",
          "type": "string"
        },
        {
          "internalType": "uint256",
          "name": "price",
          "type": "uint256"
        }
      ],
      "name": "createToken",
      "outputs": [
        {
          "internalType": "uint256",
          "name": "",
          "type": "uint256"
        }
      ],
      "stateMutability": "payable",
      "type": "function"
    },
    {
      "inputs": [],
      "name": "fetchItemsListed",
      "outputs": [
        {
          "components": [
            {
              "internalType": "uint256",
              "name": "tokenId",
              "type": "uint256"
            },
            {
              "internalType": "address payable",
              "name": "seller",
              "type": "address"
            },
            {
              "internalType": "address payable",
              "name": "owner",
              "type": "address"
            },
            {
              "internalType": "uint256",
              "name": "price",
              "type": "uint256"
            },
            {
              "internalType": "bool",
              "name": "sold",
              "type": "bool"
            }
          ],
          "internalType": "struct NFTMarketplace.MarketItem[]",
          "name": "",
          "type": "tuple[]"
        }
      ],
      "stateMutability": "view",
      "type": "function"
    },
    {
      "inputs": [
        {
          "internalType": "uint256",
          "name": "tokenId",
          "type": "uint256"
        }
      ],
      "name": "fetchMarketItemById",
      "outputs": [
        {
          "components": [
            {
              "internalType": "uint256",
              "name": "tokenId",
              "type": "uint256"
            },
            {
              "internalType": "address payable",
              "name": "seller",
              "type": "address"
            },
            {
              "internalType": "address payable",
              "name": "owner",
              "type": "address"
            },
            {
              "internalType": "uint256",
              "name": "price",
              "type": "uint256"
            },
            {
              "internalType": "bool",
              "name": "sold",
              "type": "bool"
            }
          ],
          "internalType": "struct NFTMarketplace.MarketItem",
          "name": "",
          "type": "tuple"
        }
      ],
      "stateMutability": "view",
      "type": "function"
    },
    {
      "inputs": [],
      "name": "fetchMarketItems",
      "outputs": [
        {
          "components": [
            {
              "internalType": "uint256",
              "name": "tokenId",
              "type": "uint256"
            },
            {
              "internalType": "address payable",
              "name": "seller",
              "type": "address"
            },
            {
              "internalType": "address payable",
              "name": "owner",
              "type": "address"
            },
            {
              "internalType": "uint256",
              "name": "price",
              "type": "uint256"
            },
            {
              "internalType": "bool",
              "name": "sold",
              "type": "bool"
            }
          ],
          "internalType": "struct NFTMarketplace.MarketItem[]",
          "name": "",
          "type": "tuple[]"
        }
      ],
      "stateMutability": "view",
      "type": "function"
    },
    {
      "inputs": [
        {
          "internalType": "uint256[]",
          "name": "tokenIds",
          "type": "uint256[]"
        }
      ],
      "name": "fetchMarketItemsByIds",
      "outputs": [
        {
          "components": [
            {
              "internalType": "uint256",
              "name": "tokenId",
              "type": "uint256"
            },
            {
              "internalType": "address payable",
              "name": "seller",
              "type": "address"
            },
            {
              "internalType": "address payable",
              "name": "owner",
              "type": "address"
            },
            {
              "internalType": "uint256",
              "name": "price",
              "type": "uint256"
            },
            {
              "internalType": "bool",
              "name": "sold",
              "type": "bool"
            }
          ],
          "internalType": "struct NFTMarketplace.MarketItem[]",
          "name": "",
          "type": "tuple[]"
        }
      ],
      "stateMutability": "view",
      "type": "function"
    },
    {
      "inputs": [],
      "name": "fetchMyNFTs",
      "outputs": [
        {
          "components": [
            {
              "internalType": "uint256",
              "name": "tokenId",
              "type": "uint256"
            },
            {
              "internalType": "address payable",
              "name": "seller",
              "type": "address"
            },
            {
              "internalType": "address payable",
              "name": "owner",
              "type": "address"
            },
            {
              "internalType": "uint256",
              "name": "price",
              "type": "uint256"
            },
            {
              "internalType": "bool",
              "name": "sold",
              "type": "bool"
            }
          ],
          "internalType": "struct NFTMarketplace.MarketItem[]",
          "name": "",
          "type": "tuple[]"
        }
      ],
      "stateMutability": "view",
      "type": "function"
    },
    {
      "inputs": [
        {
          "internalType": "uint256",
          "name": "tokenId",
          "type": "uint256"
        }
      ],
      "name": "getApproved",
      "outputs": [
        {
          "internalType": "address",
          "name": "",
          "type": "address"
        }
      ],
      "stateMutability": "view",
      "type": "function"
    },
    {
      "inputs": [],
      "name": "getListingPrice",
      "outputs": [
        {
          "internalType": "uint256",
          "name": "",
          "type": "uint256"
        }
      ],
      "stateMutability": "view",
      "type": "function"
    },
    {
      "inputs": [
        {
          "internalType": "address",
          "name": "owner",
          "type": "address"
        },
        {
          "internalType": "address",
          "name": "operator",
          "type": "address"
        }
      ],
      "name": "isApprovedForAll",
      "outputs": [
        {
          "internalType": "bool",
          "name": "",
          "type": "bool"
        }
      ],
      "stateMutability": "view",
      "type": "function"
    },
    {
      "inputs": [],
      "name": "name",
      "outputs": [
        {
          "internalType": "string",
          "name": "",
          "type": "string"
        }
      ],
      "stateMutability": "view",
      "type": "function"
    },
    {
      "inputs": [
        {
          "internalType": "uint256",
          "name": "tokenId",
          "type": "uint256"
        }
      ],
      "name": "ownerOf",
      "outputs": [
        {
          "internalType": "address",
          "name": "",
          "type": "address"
        }
      ],
      "stateMutability": "view",
      "type": "function"
    },
    {
      "inputs": [
        {
          "internalType": "uint256",
          "name": "tokenId",
          "type": "uint256"
        },
        {
          "internalType": "uint256",
          "name": "price",
          "type": "uint256"
        }
      ],
      "name": "resellToken",
      "outputs": [],
      "stateMutability": "payable",
      "type": "function"
    },
    {
      "inputs": [
        {
          "internalType": "address",
          "name": "from",
          "type": "address"
        },
        {
          "internalType": "address",
          "name": "to",
          "type": "address"
        },
        {
          "internalType": "uint256",
          "name": "tokenId",
          "type": "uint256"
        }
      ],
      "name": "safeTransferFrom",
      "outputs": [],
      "stateMutability": "nonpayable",
      "type": "function"
    },
    {
      "inputs": [
        {
          "internalType": "address",
          "name": "from",
          "type": "address"
        },
        {
          "internalType": "address",
          "name": "to",
          "type": "address"
        },
        {
          "internalType": "uint256",
          "name": "tokenId",
          "type": "uint256"
        },
        {
          "internalType": "bytes",
          "name": "data",
          "type": "bytes"
        }
      ],
      "name": "safeTransferFrom",
      "outputs": [],
      "stateMutability": "nonpayable",
      "type": "function"
    },
    {
      "inputs": [
        {
          "internalType": "address",
          "name": "operator",
          "type": "address"
        },
        {
          "internalType": "bool",
          "name": "approved",
          "type": "bool"
        }
      ],
      "name": "setApprovalForAll",
      "outputs": [],
      "stateMutability": "nonpayable",
      "type": "function"
    },
    {
      "inputs": [
        {
          "internalType": "bytes4",
          "name": "interfaceId",
          "type": "bytes4"
        }
      ],
      "name": "supportsInterface",
      "outputs": [
        {
          "internalType": "bool",
          "name": "",
          "type": "bool"
        }
      ],
      "stateMutability": "view",
      "type": "function"
    },
    {
      "inputs": [],
      "name": "symbol",
      "outputs": [
        {
          "internalType": "string",
          "name": "",
          "type": "string"
        }
      ],
      "stateMutability": "view",
      "type": "function"
    },
    {
      "inputs": [
        {
          "internalType": "uint256",
          "name": "tokenId",
          "type": "uint256"
        }
      ],
      "name": "tokenURI",
      "outputs": [
        {
          "internalType": "string",
          "name": "",
          "type": "string"
        }
      ],
      "stateMutability": "view",
      "type": "function"
    },
    {
      "inputs": [
        {
          "internalType": "address",
          "name": "from",
          "type": "address"
        },
        {
          "internalType": "address",
          "name": "to",
          "type": "address"
        },
        {
          "internalType": "uint256",
          "name": "tokenId",
          "type": "uint256"
        }
      ],
      "name": "transferFrom",
      "outputs": [],
      "stateMutability": "nonpayable",
      "type": "function"
    },
    {
      "inputs": [
        {
          "internalType": "uint256",
          "name": "_listingPrice",
          "type": "uint256"
        }
      ],
      "name": "updateListingPrice",
      "outputs": [],
      "stateMutability": "payable",
      "type": "function"
    }
  ],
  "bytecode": "0x60806040526608e1bc9bf040006009553480156200001c57600080fd5b506040518060400160405280601081526020016f4d657461766572736520546f6b656e7360801b8152506040518060400160405280600881526020016726a2aa2a27a5a2a760c11b815250816000908162000078919062000147565b50600162000087828262000147565b5050600a80546001600160a01b031916331790555062000213565b634e487b7160e01b600052604160045260246000fd5b600181811c90821680620000cd57607f821691505b602082108103620000ee57634e487b7160e01b600052602260045260246000fd5b50919050565b601f8211156200014257600081815260208120601f850160051c810160208610156200011d5750805b601f850160051c820191505b818110156200013e5782815560010162000129565b5050505b505050565b81516001600160401b03811115620001635762000163620000a2565b6200017b81620001748454620000b8565b84620000f4565b602080601f831160018114620001b357600084156200019a5750858301515b600019600386901b1c1916600185901b1785556200013e565b600085815260208120601f198616915b82811015620001e457888601518255948401946001909101908401620001c3565b5085821015620002035787850151600019600388901b60f8161c191681555b5050505050600190811b01905550565b6122a380620002236000396000f3fe6080604052600436106101405760003560e01c806370a08231116100b6578063b88d4fde1161006f578063b88d4fde14610369578063be9af53614610389578063c5e717771461039c578063c87b56dd146103bc578063e219fc75146103dc578063e985e9c5146103ef57600080fd5b806370a08231146102c157806372b3b620146102e157806395d89b41146102f4578063a22cb46514610309578063ad1477a914610329578063ae677aa31461035657600080fd5b806312e855851161010857806312e8558514610218578063202e37401461023757806323b872dd1461024c57806342842e0e1461026c57806345f8fa801461028c5780636352211e146102a157600080fd5b806301ffc9a71461014557806306fdde031461017a578063081812fc1461019c578063095ea7b3146101d45780630f08efe0146101f6575b600080fd5b34801561015157600080fd5b50610165610160366004611b59565b61040f565b60405190151581526020015b60405180910390f35b34801561018657600080fd5b5061018f61043a565b6040516101719190611bc6565b3480156101a857600080fd5b506101bc6101b7366004611bd9565b6104cc565b6040516001600160a01b039091168152602001610171565b3480156101e057600080fd5b506101f46101ef366004611c0e565b6104f5565b005b34801561020257600080fd5b5061020b610504565b6040516101719190611c78565b34801561022457600080fd5b506009545b604051908152602001610171565b34801561024357600080fd5b5061020b61066b565b34801561025857600080fd5b506101f4610267366004611cc6565b610815565b34801561027857600080fd5b506101f4610287366004611cc6565b6108a5565b34801561029857600080fd5b5061020b6108c5565b3480156102ad57600080fd5b506101bc6102bc366004611bd9565b610a6f565b3480156102cd57600080fd5b506102296102dc366004611d02565b610a7a565b6102296102ef366004611dbc565b610ac2565b34801561030057600080fd5b5061018f610b00565b34801561031557600080fd5b506101f4610324366004611e15565b610b0f565b34801561033557600080fd5b50610349610344366004611bd9565b610b1a565b6040516101719190611e51565b6101f4610364366004611bd9565b610b84565b34801561037557600080fd5b506101f4610384366004611e5f565b610c75565b6101f4610397366004611bd9565b610c8c565b3480156103a857600080fd5b5061020b6103b7366004611edb565b610df6565b3480156103c857600080fd5b5061018f6103d7366004611bd9565b610f14565b6101f46103ea366004611f81565b611025565b3480156103fb57600080fd5b5061016561040a366004611fa3565b611126565b60006001600160e01b03198216632483248360e11b1480610434575061043482611154565b92915050565b60606000805461044990611fd6565b80601f016020809104026020016040519081016040528092919081815260200182805461047590611fd6565b80156104c25780601f10610497576101008083540402835291602001916104c2565b820191906000526020600020905b8154815290600101906020018083116104a557829003601f168201915b5050505050905090565b60006104d7826111a4565b506000828152600460205260409020546001600160a01b0316610434565b6105008282336111dd565b5050565b6007546008546060919060009061051b9083612026565b90506000808267ffffffffffffffff81111561053957610539611d1d565b60405190808252806020026020018201604052801561057257816020015b61055f611b12565b8152602001906001900390816105575790505b50905060005b848110156106625730600b6000610590846001612039565b81526020810191909152604001600020600201546001600160a01b0316036106505760006105bf826001612039565b6000818152600b6020908152604091829020825160a0810184528154815260018201546001600160a01b039081169382019390935260028201549092169282019290925260038201546060820152600482015460ff1615156080820152855192935090918590879081106106355761063561204c565b602090810291909101015261064b600186612039565b945050505b8061065a81612062565b915050610578565b50949350505050565b600754606090600080805b838110156106d05733600b600061068e846001612039565b81526020810191909152604001600020600201546001600160a01b0316036106be576106bb600184612039565b92505b806106c881612062565b915050610676565b5060008267ffffffffffffffff8111156106ec576106ec611d1d565b60405190808252806020026020018201604052801561072557816020015b610712611b12565b81526020019060019003908161070a5790505b50905060005b848110156106625733600b6000610743846001612039565b81526020810191909152604001600020600201546001600160a01b031603610803576000610772826001612039565b6000818152600b6020908152604091829020825160a0810184528154815260018201546001600160a01b039081169382019390935260028201549092169282019290925260038201546060820152600482015460ff1615156080820152855192935090918590879081106107e8576107e861204c565b60209081029190910101526107fe600186612039565b945050505b8061080d81612062565b91505061072b565b6001600160a01b03821661084457604051633250574960e11b8152600060048201526024015b60405180910390fd5b60006108518383336111ea565b9050836001600160a01b0316816001600160a01b03161461089f576040516364283d7b60e01b81526001600160a01b038086166004830152602482018490528216604482015260640161083b565b50505050565b6108c083838360405180602001604052806000815250610c75565b505050565b600754606090600080805b8381101561092a5733600b60006108e8846001612039565b81526020810191909152604001600020600101546001600160a01b03160361091857610915600184612039565b92505b8061092281612062565b9150506108d0565b5060008267ffffffffffffffff81111561094657610946611d1d565b60405190808252806020026020018201604052801561097f57816020015b61096c611b12565b8152602001906001900390816109645790505b50905060005b848110156106625733600b600061099d846001612039565b81526020810191909152604001600020600101546001600160a01b031603610a5d5760006109cc826001612039565b6000818152600b6020908152604091829020825160a0810184528154815260018201546001600160a01b039081169382019390935260028201549092169282019290925260038201546060820152600482015460ff161515608082015285519293509091859087908110610a4257610a4261204c565b6020908102919091010152610a58600186612039565b945050505b80610a6781612062565b915050610985565b6000610434826111a4565b60006001600160a01b038216610aa6576040516322718ad960e21b81526000600482015260240161083b565b506001600160a01b031660009081526003602052604090205490565b6007805460009182610ad383612062565b9091555050600754610ae533826112e3565b610aef8185611348565b610af98184611398565b9392505050565b60606001805461044990611fd6565b6105003383836114ee565b610b22611b12565b506000908152600b6020908152604091829020825160a0810184528154815260018201546001600160a01b03908116938201939093526002820154909216928201929092526003820154606082015260049091015460ff161515608082015290565b600a546001600160a01b03163314610bfd5760405162461bcd60e51b815260206004820152603660248201527f6f6e6c79206f776e6572206f6620746865206d61726b6574706c6163652063616044820152756e206368616e6765206c697374696e6720707269636560501b606482015260840161083b565b600a546001600160a01b03163314610c705760405162461bcd60e51b815260206004820152603060248201527f4f6e6c79206d61726b6574706c616365206f776e65722063616e20757064617460448201526f32903634b9ba34b73390383934b1b29760811b606482015260840161083b565b600955565b610c80848484610815565b61089f8484848461158d565b6000818152600b6020526040902060038101546001909101546001600160a01b0316348214610d25576040805162461bcd60e51b81526020600482015260248101919091527f506c65617365207375626d6974207468652061736b696e67207072696365206960448201527f6e206f7264657220746f20636f6d706c65746520746865207075726368617365606482015260840161083b565b6000838152600b602052604081206002810180546001600160a01b0319908116331790915560048201805460ff19166001908117909155909101805490911690556008805491610d7483612062565b9190505550610d843033856116b6565b600a546009546040516001600160a01b039092169181156108fc0291906000818181858888f19350505050158015610dc0573d6000803e3d6000fd5b506040516001600160a01b038216903480156108fc02916000818181858888f1935050505015801561089f573d6000803e3d6000fd5b805160609060008167ffffffffffffffff811115610e1657610e16611d1d565b604051908082528060200260200182016040528015610e4f57816020015b610e3c611b12565b815260200190600190039081610e345790505b50905060005b82811015610f0c576000858281518110610e7157610e7161204c565b6020908102919091018101516000818152600b8352604090819020815160a0810183528154815260018201546001600160a01b0390811695820195909552600282015490941691840191909152600381015460608401526004015460ff16151560808301528451909250849084908110610eed57610eed61204c565b6020026020010181905250508080610f0490612062565b915050610e55565b509392505050565b6060610f1f826111a4565b5060008281526006602052604081208054610f3990611fd6565b80601f0160208091040260200160405190810160405280929190818152602001828054610f6590611fd6565b8015610fb25780601f10610f8757610100808354040283529160200191610fb2565b820191906000526020600020905b815481529060010190602001808311610f9557829003601f168201915b505050505090506000610fd060408051602081019091526000815290565b90508051600003610fe2575092915050565b815115611014578082604051602001610ffc92919061207b565b60405160208183030381529060405292505050919050565b61101d84611766565b949350505050565b6000828152600b60205260409020600201546001600160a01b031633146110a15760405162461bcd60e51b815260206004820152602a60248201527f4f6e6c79206974656d206f776e65722063616e20706572666f726d20746869736044820152691037b832b930ba34b7b760b11b606482015260840161083b565b60095434146110c25760405162461bcd60e51b815260040161083b906120aa565b6000828152600b6020526040812060048101805460ff19169055600381018390556001810180546001600160a01b0319908116331790915560029091018054909116301790556008805491611116836120ee565b91905055506105003330846116b6565b6001600160a01b03918216600090815260056020908152604080832093909416825291909152205460ff1690565b60006001600160e01b031982166380ac58cd60e01b148061118557506001600160e01b03198216635b5e139f60e01b145b8061043457506301ffc9a760e01b6001600160e01b0319831614610434565b6000818152600260205260408120546001600160a01b03168061043457604051637e27328960e01b81526004810184905260240161083b565b6108c083838360016117da565b6000828152600260205260408120546001600160a01b0390811690831615611217576112178184866118e0565b6001600160a01b03811615611255576112346000856000806117da565b6001600160a01b038116600090815260036020526040902080546000190190555b6001600160a01b03851615611284576001600160a01b0385166000908152600360205260409020805460010190555b60008481526002602052604080822080546001600160a01b0319166001600160a01b0389811691821790925591518793918516917fddf252ad1be2c89b69c2b068fc378daa952ba7f163c4a11628f55a4df523b3ef91a4949350505050565b6001600160a01b03821661130d57604051633250574960e11b81526000600482015260240161083b565b600061131b838360006111ea565b90506001600160a01b038116156108c0576040516339e3563760e11b81526000600482015260240161083b565b60008281526006602052604090206113608282612153565b506040518281527ff8e1a15aba9398e019f0b49df1a4fde98ee17ae345cb5f6b5e2c27f5033e8ce79060200160405180910390a15050565b600081116113e85760405162461bcd60e51b815260206004820152601c60248201527f5072696365206d757374206265206174206c6561737420312077656900000000604482015260640161083b565b60095434146114095760405162461bcd60e51b815260040161083b906120aa565b6040805160a08101825283815233602080830182815230848601818152606086018881526000608088018181528b8252600b909652979097209551865591516001860180546001600160a01b03199081166001600160a01b0393841617909155925160028701805490941691161790915593516003840155516004909201805460ff1916921515929092179091556114a191846116b6565b604080513381523060208201529081018290526000606082015282907fb640004f1d14576d0c209e240cad0410e0d8c0c33a09375861fbadae2588a98d9060800160405180910390a25050565b6001600160a01b03821661152057604051630b61174360e31b81526001600160a01b038316600482015260240161083b565b6001600160a01b03838116600081815260056020908152604080832094871680845294825291829020805460ff191686151590811790915591519182527f17307eab39ab6107e8899845ad3d59bd9653f200f220920489ca2b5937696c31910160405180910390a3505050565b6001600160a01b0383163b1561089f57604051630a85bd0160e11b81526001600160a01b0384169063150b7a02906115cf903390889087908790600401612213565b6020604051808303816000875af192505050801561160a575060408051601f3d908101601f1916820190925261160791810190612250565b60015b611673573d808015611638576040519150601f19603f3d011682016040523d82523d6000602084013e61163d565b606091505b50805160000361166b57604051633250574960e11b81526001600160a01b038516600482015260240161083b565b805181602001fd5b6001600160e01b03198116630a85bd0160e11b146116af57604051633250574960e11b81526001600160a01b038516600482015260240161083b565b5050505050565b6001600160a01b0382166116e057604051633250574960e11b81526000600482015260240161083b565b60006116ee838360006111ea565b90506001600160a01b03811661171a57604051637e27328960e01b81526004810183905260240161083b565b836001600160a01b0316816001600160a01b03161461089f576040516364283d7b60e01b81526001600160a01b038086166004830152602482018490528216604482015260640161083b565b6060611771826111a4565b50600061178960408051602081019091526000815290565b905060008151116117a95760405180602001604052806000815250610af9565b806117b384611944565b6040516020016117c492919061207b565b6040516020818303038152906040529392505050565b80806117ee57506001600160a01b03821615155b156118b05760006117fe846111a4565b90506001600160a01b0383161580159061182a5750826001600160a01b0316816001600160a01b031614155b801561183d575061183b8184611126565b155b156118665760405163a9fbf51f60e01b81526001600160a01b038416600482015260240161083b565b81156118ae5783856001600160a01b0316826001600160a01b03167f8c5be1e5ebec7d5bd14f71427d1e84f3dd0314c0f7b2291e5b200ac8c7c3b92560405160405180910390a45b505b5050600090815260046020526040902080546001600160a01b0319166001600160a01b0392909216919091179055565b6118eb8383836119d7565b6108c0576001600160a01b03831661191957604051637e27328960e01b81526004810182905260240161083b565b60405163177e802f60e01b81526001600160a01b03831660048201526024810182905260440161083b565b6060600061195183611a3a565b600101905060008167ffffffffffffffff81111561197157611971611d1d565b6040519080825280601f01601f19166020018201604052801561199b576020820181803683370190505b5090508181016020015b600019016f181899199a1a9b1b9c1cb0b131b232b360811b600a86061a8153600a85049450846119a557509392505050565b60006001600160a01b0383161580159061101d5750826001600160a01b0316846001600160a01b03161480611a115750611a118484611126565b8061101d5750506000908152600460205260409020546001600160a01b03908116911614919050565b60008072184f03e93ff9f4daa797ed6e38ed64bf6a1f0160401b8310611a795772184f03e93ff9f4daa797ed6e38ed64bf6a1f0160401b830492506040015b6d04ee2d6d415b85acef81000000008310611aa5576d04ee2d6d415b85acef8100000000830492506020015b662386f26fc100008310611ac357662386f26fc10000830492506010015b6305f5e1008310611adb576305f5e100830492506008015b6127108310611aef57612710830492506004015b60648310611b01576064830492506002015b600a83106104345760010192915050565b6040805160a08101825260008082526020820181905291810182905260608101829052608081019190915290565b6001600160e01b031981168114611b5657600080fd5b50565b600060208284031215611b6b57600080fd5b8135610af981611b40565b60005b83811015611b91578181015183820152602001611b79565b50506000910152565b60008151808452611bb2816020860160208601611b76565b601f01601f19169290920160200192915050565b602081526000610af96020830184611b9a565b600060208284031215611beb57600080fd5b5035919050565b80356001600160a01b0381168114611c0957600080fd5b919050565b60008060408385031215611c2157600080fd5b611c2a83611bf2565b946020939093013593505050565b805182526020808201516001600160a01b039081169184019190915260408083015190911690830152606080820151908301526080908101511515910152565b6020808252825182820181905260009190848201906040850190845b81811015611cba57611ca7838551611c38565b9284019260a09290920191600101611c94565b50909695505050505050565b600080600060608486031215611cdb57600080fd5b611ce484611bf2565b9250611cf260208501611bf2565b9150604084013590509250925092565b600060208284031215611d1457600080fd5b610af982611bf2565b634e487b7160e01b600052604160045260246000fd5b604051601f8201601f1916810167ffffffffffffffff81118282101715611d5c57611d5c611d1d565b604052919050565b600067ffffffffffffffff831115611d7e57611d7e611d1d565b611d91601f8401601f1916602001611d33565b9050828152838383011115611da557600080fd5b828260208301376000602084830101529392505050565b60008060408385031215611dcf57600080fd5b823567ffffffffffffffff811115611de657600080fd5b8301601f81018513611df757600080fd5b611e0685823560208401611d64565b95602094909401359450505050565b60008060408385031215611e2857600080fd5b611e3183611bf2565b915060208301358015158114611e4657600080fd5b809150509250929050565b60a081016104348284611c38565b60008060008060808587031215611e7557600080fd5b611e7e85611bf2565b9350611e8c60208601611bf2565b925060408501359150606085013567ffffffffffffffff811115611eaf57600080fd5b8501601f81018713611ec057600080fd5b611ecf87823560208401611d64565b91505092959194509250565b60006020808385031215611eee57600080fd5b823567ffffffffffffffff80821115611f0657600080fd5b818501915085601f830112611f1a57600080fd5b813581811115611f2c57611f2c611d1d565b8060051b9150611f3d848301611d33565b8181529183018401918481019088841115611f5757600080fd5b938501935b83851015611f7557843582529385019390850190611f5c565b98975050505050505050565b60008060408385031215611f9457600080fd5b50508035926020909101359150565b60008060408385031215611fb657600080fd5b611fbf83611bf2565b9150611fcd60208401611bf2565b90509250929050565b600181811c90821680611fea57607f821691505b60208210810361200a57634e487b7160e01b600052602260045260246000fd5b50919050565b634e487b7160e01b600052601160045260246000fd5b8181038181111561043457610434612010565b8082018082111561043457610434612010565b634e487b7160e01b600052603260045260246000fd5b60006001820161207457612074612010565b5060010190565b6000835161208d818460208801611b76565b8351908301906120a1818360208801611b76565b01949350505050565b60208082526024908201527f5072696365206d75737420626520657175616c20746f206c697374696e6720706040820152637269636560e01b606082015260800190565b6000816120fd576120fd612010565b506000190190565b601f8211156108c057600081815260208120601f850160051c8101602086101561212c5750805b601f850160051c820191505b8181101561214b57828155600101612138565b505050505050565b815167ffffffffffffffff81111561216d5761216d611d1d565b6121818161217b8454611fd6565b84612105565b602080601f8311600181146121b6576000841561219e5750858301515b600019600386901b1c1916600185901b17855561214b565b600085815260208120601f198616915b828110156121e5578886015182559484019460019091019084016121c6565b50858210156122035787850151600019600388901b60f8161c191681555b5050505050600190811b01905550565b6001600160a01b038581168252841660208201526040810183905260806060820181905260009061224690830184611b9a565b9695505050505050565b60006020828403121561226257600080fd5b8151610af981611b4056fea264697066735822122056f893833908e050d6f76bf5d09c07e94c96dffaffa4eeda0297fa879a7ef8e364736f6c63430008140033",
  "linkReferences": {},
  "deployedLinkReferences": {}
}